{"contracts/TestToken.sol":{"TestToken":{"abi":[{"inputs":[{"internalType":"string","name":"name","type":"string"},{"internalType":"string","name":"symbol","type":"string"},{"internalType":"uint256","name":"initialSupply","type":"uint256"},{"internalType":"uint256","name":"_maxSupply","type":"uint256"}],"stateMutability":"nonpayable","type":"constructor"},{"inputs":[],"name":"ECDSAInvalidSignature","type":"error"},{"inputs":[{"internalType":"uint256","name":"length","type":"uint256"}],"name":"ECDSAInvalidSignatureLength","type":"error"},{"inputs":[{"internalType":"bytes32","name":"s","type":"bytes32"}],"name":"ECDSAInvalidSignatureS","type":"error"},{"inputs":[{"internalType":"address","name":"spender","type":"address"},{"internalType":"uint256","name":"allowance","type":"uint256"},{"internalType":"uint256","name":"needed","type":"uint256"}],"name":"ERC20InsufficientAllowance","type":"error"},{"inputs":[{"internalType":"address","name":"sender","type":"address"},{"internalType":"uint256","name":"balance","type":"uint256"},{"internalType":"uint256","name":"needed","type":"uint256"}],"name":"ERC20InsufficientBalance","type":"error"},{"inputs":[{"internalType":"address","name":"approver","type":"address"}],"name":"ERC20InvalidApprover","type":"error"},{"inputs":[{"internalType":"address","name":"receiver","type":"address"}],"name":"ERC20InvalidReceiver","type":"error"},{"inputs":[{"internalType":"address","name":"sender","type":"address"}],"name":"ERC20InvalidSender","type":"error"},{"inputs":[{"internalType":"address","name":"spender","type":"address"}],"name":"ERC20InvalidSpender","type":"error"},{"inputs":[{"internalType":"uint256","name":"deadline","type":"uint256"}],"name":"ERC2612ExpiredSignature","type":"error"},{"inputs":[{"internalType":"address","name":"signer","type":"address"},{"internalType":"address","name":"owner","type":"address"}],"name":"ERC2612InvalidSigner","type":"error"},{"inputs":[],"name":"EnforcedPause","type":"error"},{"inputs":[],"name":"ExpectedPause","type":"error"},{"inputs":[{"internalType":"address","name":"account","type":"address"},{"internalType":"uint256","name":"currentNonce","type":"uint256"}],"name":"InvalidAccountNonce","type":"error"},{"inputs":[],"name":"InvalidShortString","type":"error"},{"inputs":[{"internalType":"address","name":"owner","type":"address"}],"name":"OwnableInvalidOwner","type":"error"},{"inputs":[{"internalType":"address","name":"account","type":"address"}],"name":"OwnableUnauthorizedAccount","type":"error"},{"inputs":[{"internalType":"string","name":"str","type":"string"}],"name":"StringTooLong","type":"error"},{"anonymous":false,"inputs":[{"indexed":true,"internalType":"address","name":"owner","type":"address"},{"indexed":true,"internalType":"address","name":"spender","type":"address"},{"indexed":false,"internalType":"uint256","name":"value","type":"uint256"}],"name":"Approval","type":"event"},{"anonymous":false,"inputs":[],"name":"EIP712DomainChanged","type":"event"},{"anonymous":false,"inputs":[{"indexed":true,"internalType":"address","name":"previousOwner","type":"address"},{"indexed":true,"internalType":"address","name":"newOwner","type":"address"}],"name":"OwnershipTransferred","type":"event"},{"anonymous":false,"inputs":[{"indexed":false,"internalType":"address","name":"account","type":"address"}],"name":"Paused","type":"event"},{"anonymous":false,"inputs":[{"indexed":true,"internalType":"address","name":"from","type":"address"},{"indexed":true,"internalType":"address","name":"to","type":"address"},{"indexed":false,"internalType":"uint256","name":"value","type":"uint256"}],"name":"Transfer","type":"event"},{"anonymous":false,"inputs":[{"indexed":false,"internalType":"address","name":"account","type":"address"}],"name":"Unpaused","type":"event"},{"inputs":[],"name":"DOMAIN_SEPARATOR","outputs":[{"internalType":"bytes32","name":"","type":"bytes32"}],"stateMutability":"view","type":"function"},{"inputs":[{"internalType":"address","name":"owner","type":"address"},{"internalType":"address","name":"spender","type":"address"}],"name":"allowance","outputs":[{"internalType":"uint256","name":"","type":"uint256"}],"stateMutability":"view","type":"function"},{"inputs":[{"internalType":"address","name":"spender","type":"address"},{"internalType":"uint256","name":"value","type":"uint256"}],"name":"approve","outputs":[{"internalType":"bool","name":"","type":"bool"}],"stateMutability":"nonpayable","type":"function"},{"inputs":[{"internalType":"address","name":"account","type":"address"}],"name":"balanceOf","outputs":[{"internalType":"uint256","name":"","type":"uint256"}],"stateMutability":"view","type":"function"},{"inputs":[{"internalType":"address[]","name":"owners","type":"address[]"},{"internalType":"address[]","name":"spenders","type":"address[]"},{"internalType":"uint256[]","name":"amounts","type":"uint256[]"},{"internalType":"uint256[]","name":"deadlines","type":"uint256[]"},{"internalType":"uint8[]","name":"v","type":"uint8[]"},{"internalType":"bytes32[]","name":"r","type":"bytes32[]"},{"internalType":"bytes32[]","name":"s","type":"bytes32[]"}],"name":"batchPermit","outputs":[],"stateMutability":"nonpayable","type":"function"},{"inputs":[{"internalType":"uint256","name":"amount","type":"uint256"}],"name":"burn","outputs":[],"stateMutability":"nonpayable","type":"function"},{"inputs":[],"name":"decimals","outputs":[{"internalType":"uint8","name":"","type":"uint8"}],"stateMutability":"view","type":"function"},{"inputs":[],"name":"eip712Domain","outputs":[{"internalType":"bytes1","name":"fields","type":"bytes1"},{"internalType":"string","name":"name","type":"string"},{"internalType":"string","name":"version","type":"string"},{"internalType":"uint256","name":"chainId","type":"uint256"},{"internalType":"address","name":"verifyingContract","type":"address"},{"internalType":"bytes32","name":"salt","type":"bytes32"},{"internalType":"uint256[]","name":"extensions","type":"uint256[]"}],"stateMutability":"view","type":"function"},{"inputs":[],"name":"getDomainSeparator","outputs":[{"internalType":"bytes32","name":"","type":"bytes32"}],"stateMutability":"view","type":"function"},{"inputs":[{"internalType":"address","name":"owner","type":"address"}],"name":"getNonce","outputs":[{"internalType":"uint256","name":"","type":"uint256"}],"stateMutability":"view","type":"function"},{"inputs":[],"name":"maxSupply","outputs":[{"internalType":"uint256","name":"","type":"uint256"}],"stateMutability":"view","type":"function"},{"inputs":[{"internalType":"address","name":"to","type":"address"},{"internalType":"uint256","name":"amount","type":"uint256"}],"name":"mint","outputs":[],"stateMutability":"nonpayable","type":"function"},{"inputs":[],"name":"name","outputs":[{"internalType":"string","name":"","type":"string"}],"stateMutability":"view","type":"function"},{"inputs":[{"internalType":"address","name":"owner","type":"address"}],"name":"nonces","outputs":[{"internalType":"uint256","name":"","type":"uint256"}],"stateMutability":"view","type":"function"},{"inputs":[],"name":"owner","outputs":[{"internalType":"address","name":"","type":"address"}],"stateMutability":"view","type":"function"},{"inputs":[],"name":"pause","outputs":[],"stateMutability":"nonpayable","type":"function"},{"inputs":[],"name":"paused","outputs":[{"internalType":"bool","name":"","type":"bool"}],"stateMutability":"view","type":"function"},{"inputs":[{"internalType":"address","name":"owner","type":"address"},{"internalType":"address","name":"spender","type":"address"},{"internalType":"uint256","name":"value","type":"uint256"},{"internalType":"uint256","name":"deadline","type":"uint256"},{"internalType":"uint8","name":"v","type":"uint8"},{"internalType":"bytes32","name":"r","type":"bytes32"},{"internalType":"bytes32","name":"s","type":"bytes32"}],"name":"permit","outputs":[],"stateMutability":"nonpayable","type":"function"},{"inputs":[{"internalType":"address","name":"from","type":"address"},{"internalType":"address","name":"to","type":"address"},{"internalType":"uint256","name":"amount","type":"uint256"},{"internalType":"uint256","name":"deadline","type":"uint256"},{"internalType":"uint8","name":"v","type":"uint8"},{"internalType":"bytes32","name":"r","type":"bytes32"},{"internalType":"bytes32","name":"s","type":"bytes32"}],"name":"permitTransfer","outputs":[],"stateMutability":"nonpayable","type":"function"},{"inputs":[],"name":"renounceOwnership","outputs":[],"stateMutability":"nonpayable","type":"function"},{"inputs":[],"name":"symbol","outputs":[{"internalType":"string","name":"","type":"string"}],"stateMutability":"view","type":"function"},{"inputs":[],"name":"totalMinted","outputs":[{"internalType":"uint256","name":"","type":"uint256"}],"stateMutability":"view","type":"function"},{"inputs":[],"name":"totalSupply","outputs":[{"internalType":"uint256","name":"","type":"uint256"}],"stateMutability":"view","type":"function"},{"inputs":[{"internalType":"address","name":"to","type":"address"},{"internalType":"uint256","name":"value","type":"uint256"}],"name":"transfer","outputs":[{"internalType":"bool","name":"","type":"bool"}],"stateMutability":"nonpayable","type":"function"},{"inputs":[{"internalType":"address","name":"from","type":"address"},{"internalType":"address","name":"to","type":"address"},{"internalType":"uint256","name":"value","type":"uint256"}],"name":"transferFrom","outputs":[{"internalType":"bool","name":"","type":"bool"}],"stateMutability":"nonpayable","type":"function"},{"inputs":[{"internalType":"address","name":"newOwner","type":"address"}],"name":"transferOwnership","outputs":[],"stateMutability":"nonpayable","type":"function"},{"inputs":[],"name":"unpause","outputs":[],"stateMutability":"nonpayable","type":"function"},{"inputs":[{"internalType":"uint256","name":"newMaxSupply","type":"uint256"}],"name":"updateMaxSupply","outputs":[],"stateMutability":"nonpayable","type":"function"}],"evm":{"bytecode":{"linkReferences":{},"object":"6101606040818152346200059a576200224a80380380916200002282866200059f565b84398201916080818403126200059a5780516001600160401b0392908381116200059a578462000054918401620005e8565b9160209485820151908582116200059a5762000072918301620005e8565b9460608383015192015195835196848801888110888211176200049957855260019687895283890197603160f81b89528751828111620004995760038054918383811c931680156200058f575b888410146200057957601f928381116200052e575b508088848211600114620004bb57600091620004af575b5060001982841b1c191690841b1781555b855191848311620004995760049687548581811c911680156200048e575b8a82101462000479578281116200042e575b5088918411600114620003c357938394918492600095620003b7575b50501b92600019911b1c19161783555b620001638762000643565b97610120988952620001758a620007e8565b97610140988952858151910120998a60e05251902061010099818b524660a052875191868301917f8b73c3c69bb8fe3d512ecc4cf759cc79239f7b179b0ffacaa9a75d522b39400f83528984015260608301524660808301523060a083015260a0825260c082019282841090841117620003a257828852815190206080523060c05233156200038b57505060088054610100600160a81b031981163380841b610100600160a81b0316919091178355875191939284901c6001600160a01b03167f8be0079c531659141344cd1fd0a4f28419497f9722a3daafe3b4186f6b6457e0600080a381861180159062000382575b15620003375750600955600a84905560ff166200032957600254908382018092116200031457506000917fddf252ad1be2c89b69c2b068fc378daa952ba7f163c4a11628f55a4df523b3ef9160025533835282815284832084815401905584519384523393a3519161190a93846200094085396080518461154c015260a05184611618015260c0518461151d015260e0518461159b015251836115c1015251826105030152518161052c0152f35b601190634e487b7160e01b6000525260246000fd5b835163d93c066560e01b8152fd5b62461bcd60e51b8152838101859052602160248201527f496e697469616c20737570706c792065786365656473206d617820737570706c6044820152607960f81b6064820152608490fd5b50811562000266565b631e4fbdf760e01b8252600060c490910152602490fd5b604185634e487b7160e01b6000525260246000fd5b01519350388062000148565b9190601f1984169288600052848a6000209460005b8c89838310620004165750505010620003fb575b50505050811b01835562000158565b01519060f884600019921b161c1916905538808080620003ec565b868601518955909701969485019488935001620003d8565b88600052896000208380870160051c8201928c88106200046f575b0160051c019086905b828110620004625750506200012c565b6000815501869062000452565b9250819262000449565b602289634e487b7160e01b6000525260246000fd5b90607f16906200011a565b634e487b7160e01b600052604160045260246000fd5b90508b015138620000eb565b8592508c90601f198316856000528b600020928c6000915b8383106200050c575050508311620004f3575b5050811b018155620000fc565b8d015160001983861b60f8161c191690553880620004e6565b948482949597989293960151815501940192019087949392918f8d90620004d3565b82600052886000208480840160051c8201928b85106200056f575b0160051c019085905b82811062000562575050620000d4565b6000815501859062000552565b9250819262000549565b634e487b7160e01b600052602260045260246000fd5b92607f1692620000bf565b600080fd5b601f909101601f19168101906001600160401b038211908210176200049957604052565b60005b838110620005d75750506000910152565b8181015183820152602001620005c6565b81601f820112156200059a5780516001600160401b0381116200049957604051926200061f601f8301601f1916602001856200059f565b818452602082840101116200059a57620006409160208085019101620005c3565b90565b80516020919082811015620006c3575090601f8251116200068157808251920151908083106200067257501790565b82600019910360031b1b161790565b604490620006b59260405193849263305a27a960e01b845280600485015282519283918260248701528686019101620005c3565b601f01601f19168101030190fd5b6001600160401b03811162000499576005928354926001938481811c91168015620007dd575b838210146200057957601f8111620007a6575b5081601f84116001146200073c575092829391839260009462000730575b50501b916000199060031b1c191617905560ff90565b0151925038806200071a565b919083601f1981168760005284600020946000905b888383106200078b575050501062000771575b505050811b01905560ff90565b015160001960f88460031b161c1916905538808062000764565b85870151885590960195948501948793509081019062000751565b8560005284601f846000209201871c820191601f8601881c015b828110620007d0575050620006fc565b60008155018590620007c0565b90607f1690620006e9565b805160209081811015620008155750601f8251116200068157808251920151908083106200067257501790565b906001600160401b0382116200049957600654926001938481811c9116801562000934575b838210146200057957601f8111620008fa575b5081601f84116001146200088e575092829391839260009462000882575b50501b916000199060031b1c19161760065560ff90565b0151925038806200086b565b919083601f198116600660005284600020946000905b88838310620008df5750505010620008c5575b505050811b0160065560ff90565b015160001960f88460031b161c19169055388080620008b7565b858701518855909601959485019487935090810190620008a4565b600660005284601f84600020920160051c820191601f860160051c015b828110620009275750506200084d565b6000815501859062000917565b90607f16906200083a56fe608080604052600436101561001357600080fd5b60003560e01c90816306fdde0314610d7957508063095ea7b314610d5357806318160ddd14610d3557806323b872dd14610cfc5780632d0335ab14610683578063313ce56714610ce05780633644e515146102fc5780633f4ba83a14610c5e57806340c10f1914610b0857806342966c68146109c05780635c975abb1461099d57806365f748881461076957806370a082311461072f578063715018a6146106c35780637ecebe00146106835780638456cb591461062957806384b0196e146104ed5780638da5cb5b146104c357806395d89b41146103dd578063a2309ff8146103bf578063a9059cbb1461038e578063d505accf14610371578063d5abeb0114610353578063dd62ed3e14610301578063ed24911d146102fc578063f065895b146102c7578063f103b433146102225763f2fde38b1461015357600080fd5b3461021d57602036600319011261021d5761016c610e5c565b610174610f23565b6001600160a01b038082169182156101ec5774ffffffffffffffffffffffffffffffffffffffff006008549160081b1674ffffffffffffffffffffffffffffffffffffffff001982161760085560081c167f8be0079c531659141344cd1fd0a4f28419497f9722a3daafe3b4186f6b6457e0600080a3005b60246040517f1e4fbdf700000000000000000000000000000000000000000000000000000000815260006004820152fd5b600080fd5b3461021d57602036600319011261021d5760043561023e610f23565b801580156102bb575b1561025157600955005b608460405162461bcd60e51b815260206004820152602860248201527f4e6577206d617820737570706c79206d757374206265203e3d2063757272656e60448201527f7420737570706c790000000000000000000000000000000000000000000000006064820152fd5b50600254811015610247565b3461021d576102fa6102f56102db36610ed4565b926102ed979497969596929192611864565b873387611242565b610fe2565b005b610e88565b3461021d57604036600319011261021d5761031a610e5c565b610322610e72565b906001600160a01b038091166000526001602052604060002091166000526020526020604060002054604051908152f35b3461021d57600036600319011261021d576020600954604051908152f35b3461021d576102fa61038236610ed4565b95949094939193611242565b3461021d57604036600319011261021d576103b46103aa610e5c565b60243590336110cc565b602060405160018152f35b3461021d57600036600319011261021d576020600a54604051908152f35b3461021d57600036600319011261021d5760405160006004546103ff81610f6a565b8084529060019081811690811561049c5750600114610441575b61043d8461042981860382610fc0565b604051918291602083526020830190610e1c565b0390f35b6004600090815292507f8a35acfbc15ff81a39ae7d344fd709f28e8600b4aa8c65c6b64bfe7fe36bd19b5b82841061048457505050810160200161042982610419565b8054602085870181019190915290930192810161046c565b60ff191660208087019190915292151560051b850190920192506104299150839050610419565b3461021d57600036600319011261021d5760206001600160a01b0360085460081c16604051908152f35b3461021d57600036600319011261021d576105277f000000000000000000000000000000000000000000000000000000000000000061163e565b6105507f0000000000000000000000000000000000000000000000000000000000000000611752565b60405160208082019282841067ffffffffffffffff8511176106135791816105c685946105b89796604052600084526040519788977f0f00000000000000000000000000000000000000000000000000000000000000895260e0858a015260e0890190610e1c565b908782036040890152610e1c565b91466060870152306080870152600060a087015285830360c0870152519182815201929160005b8281106105fc57505050500390f35b8351855286955093810193928101926001016105ed565b634e487b7160e01b600052604160045260246000fd5b3461021d57600036600319011261021d57610642610f23565b61064a611864565b600160ff1960085416176008557f62e78cea01bee320cd4e420270b5ea74000d11b0c9f74754ebdbfc544b05a2586020604051338152a1005b3461021d57602036600319011261021d5760206106bb6106a1610e5c565b6001600160a01b0316600052600760205260406000205490565b604051908152f35b3461021d57600036600319011261021d576106dc610f23565b60006001600160a01b0360085474ffffffffffffffffffffffffffffffffffffffff0019811660085560081c167f8be0079c531659141344cd1fd0a4f28419497f9722a3daafe3b4186f6b6457e08280a3005b3461021d57602036600319011261021d576001600160a01b03610750610e5c565b1660005260006020526020604060002054604051908152f35b3461021d5760e036600319011261021d5767ffffffffffffffff60043581811161021d5761079b903690600401610ea3565b919060243582811161021d576107b5903690600401610ea3565b92909160443582811161021d576107d0903690600401610ea3565b60649491943584811161021d576107eb903690600401610ea3565b919060843586811161021d57610805903690600401610ea3565b9460a43588811161021d5761081e903690600401610ea3565b93909760c435998a1161021d578b9a61083c8e9b3690600401610ea3565b9d909b610847611864565b1480610994575b8061098b575b80610982575b80610979575b80610970575b1561092c5760008e5b811061087757005b8a8f8f8f91908f918d8f918c8f918c8a8f818f918f9261089a838098819361189a565b6108a3906118c0565b9d6108ad9261189a565b6108b6906118c0565b966108c09261189a565b35956108cb9261189a565b35946108d69261189a565b359360ff8516850361021d57888f916108f6826108fd946109049c61189a565b359761189a565b3595611242565b6000198114610916576001018e61086f565b634e487b7160e01b600052601160045260246000fd5b606460405162461bcd60e51b815260206004820152601660248201527f417272617973206c656e677468206d69736d61746368000000000000000000006044820152fd5b508c8614610866565b50858914610860565b5088881461085a565b50878714610854565b50868c1461084e565b3461021d57600036600319011261021d57602060ff600854166040519015158152f35b3461021d5760208060031936011261021d576004356109dd610f23565b6109e5611864565b6109f081151561180c565b33600052600082528060406000205410610ac4573315610a9357610a12611864565b336000526000825260406000205491818310610a6d577fddf252ad1be2c89b69c2b068fc378daa952ba7f163c4a11628f55a4df523b3ef908260009433865285835203604085205582600254036002556040519283523392a3005b5060405163391434e360e21b815233600482015260248101929092526044820152606490fd5b60246040517f96c6fd1e00000000000000000000000000000000000000000000000000000000815260006004820152fd5b6064826040519062461bcd60e51b82526004820152601c60248201527f496e73756666696369656e742062616c616e636520746f206275726e000000006044820152fd5b3461021d57604036600319011261021d57610b21610e5c565b6001600160a01b0360243591610b35610f23565b610b3d611864565b16908115610c1a57610b5081151561180c565b60095480610bbf575b507fddf252ad1be2c89b69c2b068fc378daa952ba7f163c4a11628f55a4df523b3ef602082610b8c600094600a54611857565b600a55610b97611864565b610ba381600254611857565b60025584845283825260408420818154019055604051908152a3005b610bcb82600254611857565b11610bd65782610b59565b606460405162461bcd60e51b815260206004820152601f60248201527f4d696e74696e6720776f756c6420657863656564206d617820737570706c79006044820152fd5b606460405162461bcd60e51b815260206004820152601b60248201527f43616e6e6f74206d696e7420746f207a65726f206164647265737300000000006044820152fd5b3461021d57600036600319011261021d57610c77610f23565b60085460ff811615610cb65760ff19166008557f5db9ee0a495bf2e6ff9c91a7834c1ba4fdd244a5e8aa4e537bd38aeae4b073aa6020604051338152a1005b60046040517f8dfc202b000000000000000000000000000000000000000000000000000000008152fd5b3461021d57600036600319011261021d57602060405160128152f35b3461021d57606036600319011261021d576020610d2b610d1a610e5c565b610d22610e72565b60443591610fe2565b6040519015158152f35b3461021d57600036600319011261021d576020600254604051908152f35b3461021d57604036600319011261021d576103b4610d6f610e5c565b60243590336111b1565b3461021d57600036600319011261021d576000600354610d9881610f6a565b8084529060019081811690811561049c5750600114610dc15761043d8461042981860382610fc0565b6003600090815292507fc2575a0e9e593c00f959f8c92f12db2869c3395a3b0502d05e2516446f71f85b5b828410610e0457505050810160200161042982610419565b80546020858701810191909152909301928101610dec565b919082519283825260005b848110610e48575050826000602080949584010152601f8019910116010190565b602081830181015184830182015201610e27565b600435906001600160a01b038216820361021d57565b602435906001600160a01b038216820361021d57565b3461021d57600036600319011261021d5760206106bb611513565b9181601f8401121561021d5782359167ffffffffffffffff831161021d576020808501948460051b01011161021d57565b60e090600319011261021d576001600160a01b0390600435828116810361021d5791602435908116810361021d5790604435906064359060843560ff8116810361021d579060a4359060c43590565b6001600160a01b0360085460081c163303610f3a57565b60246040517f118cdaa7000000000000000000000000000000000000000000000000000000008152336004820152fd5b90600182811c92168015610f9a575b6020831014610f8457565b634e487b7160e01b600052602260045260246000fd5b91607f1691610f79565b6040810190811067ffffffffffffffff82111761061357604052565b90601f8019910116810190811067ffffffffffffffff82111761061357604052565b9291906001600160a01b038416936000858152600160205260409586822033835260205286822054906000198210611028575b5050506110239394506110cc565b600190565b85821061108e578015611077573315611060576110239697918691845260016020528284203385526020520391205584933880611015565b602483895190634a1406b160e11b82526004820152fd5b60248389519063e602df0560e01b82526004820152fd5b87517ffb8f41b20000000000000000000000000000000000000000000000000000000081523360048201526024810183905260448101879052606490fd5b916001600160a01b03808416928315610a935716928315611180576110ef611864565b6000908382528160205260408220549083821061114e575091604082827fddf252ad1be2c89b69c2b068fc378daa952ba7f163c4a11628f55a4df523b3ef958760209652828652038282205586815220818154019055604051908152a3565b60405163391434e360e21b81526001600160a01b03919091166004820152602481019190915260448101839052606490fd5b60246040517fec442f0500000000000000000000000000000000000000000000000000000000815260006004820152fd5b6001600160a01b0380911691821561122a57169182156112125760207f8c5be1e5ebec7d5bd14f71427d1e84f3dd0314c0f7b2291e5b200ac8c7c3b925918360005260018252604060002085600052825280604060002055604051908152a3565b6024604051634a1406b160e11b815260006004820152fd5b602460405163e602df0560e01b815260006004820152fd5b929695919496939093804211611384576001600160a01b0391828516938460005260076020526040998a9283600020948554956001870190558451958860208801967f6e71edae12b1b97f4d1f60370fef10105fa2faae0126114a169c64845d6126c98852880152878b1660608801528b608088015260a087015260c086015260c0855260e085019480861067ffffffffffffffff871117610613578c61132d956042926113369883525190206112f7611513565b9151917f1901000000000000000000000000000000000000000000000000000000000000835260028301526022820152206113b5565b90929192611445565b169080820361134e57505061134c9394506111b1565b565b604492508651917f4b800e4600000000000000000000000000000000000000000000000000000000835260048301526024820152fd5b602490604051907f627913020000000000000000000000000000000000000000000000000000000082526004820152fd5b91907f7fffffffffffffffffffffffffffffff5d576e7357a4501ddfe92f46681b20a0841161143957926020929160ff608095604051948552168484015260408301526060820152600092839182805260015afa1561142d5780516001600160a01b0381161561142457918190565b50809160019190565b604051903d90823e3d90fd5b50505060009160039190565b60048110156114fd5780611457575050565b600181036114895760046040517ff645eedf000000000000000000000000000000000000000000000000000000008152fd5b600281036114c257602482604051907ffce698f70000000000000000000000000000000000000000000000000000000082526004820152fd5b6003146114cc5750565b602490604051907fd78bce0c0000000000000000000000000000000000000000000000000000000082526004820152fd5b634e487b7160e01b600052602160045260246000fd5b6001600160a01b037f000000000000000000000000000000000000000000000000000000000000000016301480611615575b1561156e577f000000000000000000000000000000000000000000000000000000000000000090565b60405160208101907f8b73c3c69bb8fe3d512ecc4cf759cc79239f7b179b0ffacaa9a75d522b39400f82527f000000000000000000000000000000000000000000000000000000000000000060408201527f000000000000000000000000000000000000000000000000000000000000000060608201524660808201523060a082015260a0815260c0810181811067ffffffffffffffff8211176106135760405251902090565b507f00000000000000000000000000000000000000000000000000000000000000004614611545565b60ff81146116945760ff811690601f821161166a576040519161166083610fa4565b8252602082015290565b60046040517fb3512b0c000000000000000000000000000000000000000000000000000000008152fd5b506040516005548160006116a783610f6a565b8083529260019081811690811561173057506001146116d1575b506116ce92500382610fc0565b90565b6005600090815291507f036b6384b5eca791c62761152d0c79bb0604c104a5fb6f4eb0703f3154bb3db05b84831061171557506116ce9350508101602001386116c1565b819350908160209254838589010152019101909184926116fc565b9050602092506116ce94915060ff191682840152151560051b820101386116c1565b60ff81146117745760ff811690601f821161166a576040519161166083610fa4565b5060405160065481600061178783610f6a565b8083529260019081811690811561173057506001146117ad57506116ce92500382610fc0565b6006600090815291507ff652222313e28459528d920b65115c16c04f3efc82aaedc97be59f3f377c0d3f5b8483106117f157506116ce9350508101602001386116c1565b819350908160209254838589010152019101909184926117d8565b1561181357565b606460405162461bcd60e51b815260206004820152602060248201527f416d6f756e74206d7573742062652067726561746572207468616e207a65726f6044820152fd5b9190820180921161091657565b60ff6008541661187057565b60046040517fd93c0665000000000000000000000000000000000000000000000000000000008152fd5b91908110156118aa5760051b0190565b634e487b7160e01b600052603260045260246000fd5b356001600160a01b038116810361021d579056fea2646970667358221220c596f17c8043034f5a831dc5d3e8e007a743020ae0bb096cd01d0ea4dde63e4764736f6c63430008140033","opcodes":"PUSH2 0x160 PUSH1 0x40 DUP2 DUP2 MSTORE CALLVALUE PUSH3 0x59A JUMPI PUSH3 0x224A DUP1 CODESIZE SUB DUP1 SWAP2 PUSH3 0x22 DUP3 DUP7 PUSH3 0x59F JUMP JUMPDEST DUP5 CODECOPY DUP3 ADD SWAP2 PUSH1 0x80 DUP2 DUP5 SUB SLT PUSH3 0x59A JUMPI DUP1 MLOAD PUSH1 0x1 PUSH1 0x1 PUSH1 0x40 SHL SUB SWAP3 SWAP1 DUP4 DUP2 GT PUSH3 0x59A JUMPI DUP5 PUSH3 0x54 SWAP2 DUP5 ADD PUSH3 0x5E8 JUMP JUMPDEST SWAP2 PUSH1 0x20 SWAP5 DUP6 DUP3 ADD MLOAD SWAP1 DUP6 DUP3 GT PUSH3 0x59A JUMPI PUSH3 0x72 SWAP2 DUP4 ADD PUSH3 0x5E8 JUMP JUMPDEST SWAP5 PUSH1 0x60 DUP4 DUP4 ADD MLOAD SWAP3 ADD MLOAD SWAP6 DUP4 MLOAD SWAP7 DUP5 DUP9 ADD DUP9 DUP2 LT DUP9 DUP3 GT OR PUSH3 0x499 JUMPI DUP6 MSTORE PUSH1 0x1 SWAP7 DUP8 DUP10 MSTORE DUP4 DUP10 ADD SWAP8 PUSH1 0x31 PUSH1 0xF8 SHL DUP10 MSTORE DUP8 MLOAD DUP3 DUP2 GT PUSH3 0x499 JUMPI PUSH1 0x3 DUP1 SLOAD SWAP2 DUP4 DUP4 DUP2 SHR SWAP4 AND DUP1 ISZERO PUSH3 0x58F JUMPI JUMPDEST DUP9 DUP5 LT EQ PUSH3 0x579 JUMPI PUSH1 0x1F SWAP3 DUP4 DUP2 GT PUSH3 0x52E JUMPI JUMPDEST POP DUP1 DUP9 DUP5 DUP3 GT PUSH1 0x1 EQ PUSH3 0x4BB JUMPI PUSH1 0x0 SWAP2 PUSH3 0x4AF JUMPI JUMPDEST POP PUSH1 0x0 NOT DUP3 DUP5 SHL SHR NOT AND SWAP1 DUP5 SHL OR DUP2 SSTORE JUMPDEST DUP6 MLOAD SWAP2 DUP5 DUP4 GT PUSH3 0x499 JUMPI PUSH1 0x4 SWAP7 DUP8 SLOAD DUP6 DUP2 DUP2 SHR SWAP2 AND DUP1 ISZERO PUSH3 0x48E JUMPI JUMPDEST DUP11 DUP3 LT EQ PUSH3 0x479 JUMPI DUP3 DUP2 GT PUSH3 0x42E JUMPI JUMPDEST POP DUP9 SWAP2 DUP5 GT PUSH1 0x1 EQ PUSH3 0x3C3 JUMPI SWAP4 DUP4 SWAP5 SWAP2 DUP5 SWAP3 PUSH1 0x0 SWAP6 PUSH3 0x3B7 JUMPI JUMPDEST POP POP SHL SWAP3 PUSH1 0x0 NOT SWAP2 SHL SHR NOT AND OR DUP4 SSTORE JUMPDEST PUSH3 0x163 DUP8 PUSH3 0x643 JUMP JUMPDEST SWAP8 PUSH2 0x120 SWAP9 DUP10 MSTORE PUSH3 0x175 DUP11 PUSH3 0x7E8 JUMP JUMPDEST SWAP8 PUSH2 0x140 SWAP9 DUP10 MSTORE DUP6 DUP2 MLOAD SWAP2 ADD KECCAK256 SWAP10 DUP11 PUSH1 0xE0 MSTORE MLOAD SWAP1 KECCAK256 PUSH2 0x100 SWAP10 DUP2 DUP12 MSTORE CHAINID PUSH1 0xA0 MSTORE DUP8 MLOAD SWAP2 DUP7 DUP4 ADD SWAP2 PUSH32 0x8B73C3C69BB8FE3D512ECC4CF759CC79239F7B179B0FFACAA9A75D522B39400F DUP4 MSTORE DUP10 DUP5 ADD MSTORE PUSH1 0x60 DUP4 ADD MSTORE CHAINID PUSH1 0x80 DUP4 ADD MSTORE ADDRESS PUSH1 0xA0 DUP4 ADD MSTORE PUSH1 0xA0 DUP3 MSTORE PUSH1 0xC0 DUP3 ADD SWAP3 DUP3 DUP5 LT SWAP1 DUP5 GT OR PUSH3 0x3A2 JUMPI DUP3 DUP9 MSTORE DUP2 MLOAD SWAP1 KECCAK256 PUSH1 0x80 MSTORE ADDRESS PUSH1 0xC0 MSTORE CALLER ISZERO PUSH3 0x38B JUMPI POP POP PUSH1 0x8 DUP1 SLOAD PUSH2 0x100 PUSH1 0x1 PUSH1 0xA8 SHL SUB NOT DUP2 AND CALLER DUP1 DUP5 SHL PUSH2 0x100 PUSH1 0x1 PUSH1 0xA8 SHL SUB AND SWAP2 SWAP1 SWAP2 OR DUP4 SSTORE DUP8 MLOAD SWAP2 SWAP4 SWAP3 DUP5 SWAP1 SHR PUSH1 0x1 PUSH1 0x1 PUSH1 0xA0 SHL SUB AND PUSH32 0x8BE0079C531659141344CD1FD0A4F28419497F9722A3DAAFE3B4186F6B6457E0 PUSH1 0x0 DUP1 LOG3 DUP2 DUP7 GT DUP1 ISZERO SWAP1 PUSH3 0x382 JUMPI JUMPDEST ISZERO PUSH3 0x337 JUMPI POP PUSH1 0x9 SSTORE PUSH1 0xA DUP5 SWAP1 SSTORE PUSH1 0xFF AND PUSH3 0x329 JUMPI PUSH1 0x2 SLOAD SWAP1 DUP4 DUP3 ADD DUP1 SWAP3 GT PUSH3 0x314 JUMPI POP PUSH1 0x0 SWAP2 PUSH32 0xDDF252AD1BE2C89B69C2B068FC378DAA952BA7F163C4A11628F55A4DF523B3EF SWAP2 PUSH1 0x2 SSTORE CALLER DUP4 MSTORE DUP3 DUP2 MSTORE DUP5 DUP4 KECCAK256 DUP5 DUP2 SLOAD ADD SWAP1 SSTORE DUP5 MLOAD SWAP4 DUP5 MSTORE CALLER SWAP4 LOG3 MLOAD SWAP2 PUSH2 0x190A SWAP4 DUP5 PUSH3 0x940 DUP6 CODECOPY PUSH1 0x80 MLOAD DUP5 PUSH2 0x154C ADD MSTORE PUSH1 0xA0 MLOAD DUP5 PUSH2 0x1618 ADD MSTORE PUSH1 0xC0 MLOAD DUP5 PUSH2 0x151D ADD MSTORE PUSH1 0xE0 MLOAD DUP5 PUSH2 0x159B ADD MSTORE MLOAD DUP4 PUSH2 0x15C1 ADD MSTORE MLOAD DUP3 PUSH2 0x503 ADD MSTORE MLOAD DUP2 PUSH2 0x52C ADD MSTORE RETURN JUMPDEST PUSH1 0x11 SWAP1 PUSH4 0x4E487B71 PUSH1 0xE0 SHL PUSH1 0x0 MSTORE MSTORE PUSH1 0x24 PUSH1 0x0 REVERT JUMPDEST DUP4 MLOAD PUSH4 0xD93C0665 PUSH1 0xE0 SHL DUP2 MSTORE REVERT JUMPDEST PUSH3 0x461BCD PUSH1 0xE5 SHL DUP2 MSTORE DUP4 DUP2 ADD DUP6 SWAP1 MSTORE PUSH1 0x21 PUSH1 0x24 DUP3 ADD MSTORE PUSH32 0x496E697469616C20737570706C792065786365656473206D617820737570706C PUSH1 0x44 DUP3 ADD MSTORE PUSH1 0x79 PUSH1 0xF8 SHL PUSH1 0x64 DUP3 ADD MSTORE PUSH1 0x84 SWAP1 REVERT JUMPDEST POP DUP2 ISZERO PUSH3 0x266 JUMP JUMPDEST PUSH4 0x1E4FBDF7 PUSH1 0xE0 SHL DUP3 MSTORE PUSH1 0x0 PUSH1 0xC4 SWAP1 SWAP2 ADD MSTORE PUSH1 0x24 SWAP1 REVERT JUMPDEST PUSH1 0x41 DUP6 PUSH4 0x4E487B71 PUSH1 0xE0 SHL PUSH1 0x0 MSTORE MSTORE PUSH1 0x24 PUSH1 0x0 REVERT JUMPDEST ADD MLOAD SWAP4 POP CODESIZE DUP1 PUSH3 0x148 JUMP JUMPDEST SWAP2 SWAP1 PUSH1 0x1F NOT DUP5 AND SWAP3 DUP9 PUSH1 0x0 MSTORE DUP5 DUP11 PUSH1 0x0 KECCAK256 SWAP5 PUSH1 0x0 JUMPDEST DUP13 DUP10 DUP4 DUP4 LT PUSH3 0x416 JUMPI POP POP POP LT PUSH3 0x3FB JUMPI JUMPDEST POP POP POP POP DUP2 SHL ADD DUP4 SSTORE PUSH3 0x158 JUMP JUMPDEST ADD MLOAD SWAP1 PUSH1 0xF8 DUP5 PUSH1 0x0 NOT SWAP3 SHL AND SHR NOT AND SWAP1 SSTORE CODESIZE DUP1 DUP1 DUP1 PUSH3 0x3EC JUMP JUMPDEST DUP7 DUP7 ADD MLOAD DUP10 SSTORE SWAP1 SWAP8 ADD SWAP7 SWAP5 DUP6 ADD SWAP5 DUP9 SWAP4 POP ADD PUSH3 0x3D8 JUMP JUMPDEST DUP9 PUSH1 0x0 MSTORE DUP10 PUSH1 0x0 KECCAK256 DUP4 DUP1 DUP8 ADD PUSH1 0x5 SHR DUP3 ADD SWAP3 DUP13 DUP9 LT PUSH3 0x46F JUMPI JUMPDEST ADD PUSH1 0x5 SHR ADD SWAP1 DUP7 SWAP1 JUMPDEST DUP3 DUP2 LT PUSH3 0x462 JUMPI POP POP PUSH3 0x12C JUMP JUMPDEST PUSH1 0x0 DUP2 SSTORE ADD DUP7 SWAP1 PUSH3 0x452 JUMP JUMPDEST SWAP3 POP DUP2 SWAP3 PUSH3 0x449 JUMP JUMPDEST PUSH1 0x22 DUP10 PUSH4 0x4E487B71 PUSH1 0xE0 SHL PUSH1 0x0 MSTORE MSTORE PUSH1 0x24 PUSH1 0x0 REVERT JUMPDEST SWAP1 PUSH1 0x7F AND SWAP1 PUSH3 0x11A JUMP JUMPDEST PUSH4 0x4E487B71 PUSH1 0xE0 SHL PUSH1 0x0 MSTORE PUSH1 0x41 PUSH1 0x4 MSTORE PUSH1 0x24 PUSH1 0x0 REVERT JUMPDEST SWAP1 POP DUP12 ADD MLOAD CODESIZE PUSH3 0xEB JUMP JUMPDEST DUP6 SWAP3 POP DUP13 SWAP1 PUSH1 0x1F NOT DUP4 AND DUP6 PUSH1 0x0 MSTORE DUP12 PUSH1 0x0 KECCAK256 SWAP3 DUP13 PUSH1 0x0 SWAP2 JUMPDEST DUP4 DUP4 LT PUSH3 0x50C JUMPI POP POP POP DUP4 GT PUSH3 0x4F3 JUMPI JUMPDEST POP POP DUP2 SHL ADD DUP2 SSTORE PUSH3 0xFC JUMP JUMPDEST DUP14 ADD MLOAD PUSH1 0x0 NOT DUP4 DUP7 SHL PUSH1 0xF8 AND SHR NOT AND SWAP1 SSTORE CODESIZE DUP1 PUSH3 0x4E6 JUMP JUMPDEST SWAP5 DUP5 DUP3 SWAP5 SWAP6 SWAP8 SWAP9 SWAP3 SWAP4 SWAP7 ADD MLOAD DUP2 SSTORE ADD SWAP5 ADD SWAP3 ADD SWAP1 DUP8 SWAP5 SWAP4 SWAP3 SWAP2 DUP16 DUP14 SWAP1 PUSH3 0x4D3 JUMP JUMPDEST DUP3 PUSH1 0x0 MSTORE DUP9 PUSH1 0x0 KECCAK256 DUP5 DUP1 DUP5 ADD PUSH1 0x5 SHR DUP3 ADD SWAP3 DUP12 DUP6 LT PUSH3 0x56F JUMPI JUMPDEST ADD PUSH1 0x5 SHR ADD SWAP1 DUP6 SWAP1 JUMPDEST DUP3 DUP2 LT PUSH3 0x562 JUMPI POP POP PUSH3 0xD4 JUMP JUMPDEST PUSH1 0x0 DUP2 SSTORE ADD DUP6 SWAP1 PUSH3 0x552 JUMP JUMPDEST SWAP3 POP DUP2 SWAP3 PUSH3 0x549 JUMP JUMPDEST PUSH4 0x4E487B71 PUSH1 0xE0 SHL PUSH1 0x0 MSTORE PUSH1 0x22 PUSH1 0x4 MSTORE PUSH1 0x24 PUSH1 0x0 REVERT JUMPDEST SWAP3 PUSH1 0x7F AND SWAP3 PUSH3 0xBF JUMP JUMPDEST PUSH1 0x0 DUP1 REVERT JUMPDEST PUSH1 0x1F SWAP1 SWAP2 ADD PUSH1 0x1F NOT AND DUP2 ADD SWAP1 PUSH1 0x1 PUSH1 0x1 PUSH1 0x40 SHL SUB DUP3 GT SWAP1 DUP3 LT OR PUSH3 0x499 JUMPI PUSH1 0x40 MSTORE JUMP JUMPDEST PUSH1 0x0 JUMPDEST DUP4 DUP2 LT PUSH3 0x5D7 JUMPI POP POP PUSH1 0x0 SWAP2 ADD MSTORE JUMP JUMPDEST DUP2 DUP2 ADD MLOAD DUP4 DUP3 ADD MSTORE PUSH1 0x20 ADD PUSH3 0x5C6 JUMP JUMPDEST DUP2 PUSH1 0x1F DUP3 ADD SLT ISZERO PUSH3 0x59A JUMPI DUP1 MLOAD PUSH1 0x1 PUSH1 0x1 PUSH1 0x40 SHL SUB DUP2 GT PUSH3 0x499 JUMPI PUSH1 0x40 MLOAD SWAP3 PUSH3 0x61F PUSH1 0x1F DUP4 ADD PUSH1 0x1F NOT AND PUSH1 0x20 ADD DUP6 PUSH3 0x59F JUMP JUMPDEST DUP2 DUP5 MSTORE PUSH1 0x20 DUP3 DUP5 ADD ADD GT PUSH3 0x59A JUMPI PUSH3 0x640 SWAP2 PUSH1 0x20 DUP1 DUP6 ADD SWAP2 ADD PUSH3 0x5C3 JUMP JUMPDEST SWAP1 JUMP JUMPDEST DUP1 MLOAD PUSH1 0x20 SWAP2 SWAP1 DUP3 DUP2 LT ISZERO PUSH3 0x6C3 JUMPI POP SWAP1 PUSH1 0x1F DUP3 MLOAD GT PUSH3 0x681 JUMPI DUP1 DUP3 MLOAD SWAP3 ADD MLOAD SWAP1 DUP1 DUP4 LT PUSH3 0x672 JUMPI POP OR SWAP1 JUMP JUMPDEST DUP3 PUSH1 0x0 NOT SWAP2 SUB PUSH1 0x3 SHL SHL AND OR SWAP1 JUMP JUMPDEST PUSH1 0x44 SWAP1 PUSH3 0x6B5 SWAP3 PUSH1 0x40 MLOAD SWAP4 DUP5 SWAP3 PUSH4 0x305A27A9 PUSH1 0xE0 SHL DUP5 MSTORE DUP1 PUSH1 0x4 DUP6 ADD MSTORE DUP3 MLOAD SWAP3 DUP4 SWAP2 DUP3 PUSH1 0x24 DUP8 ADD MSTORE DUP7 DUP7 ADD SWAP2 ADD PUSH3 0x5C3 JUMP JUMPDEST PUSH1 0x1F ADD PUSH1 0x1F NOT AND DUP2 ADD SUB ADD SWAP1 REVERT JUMPDEST PUSH1 0x1 PUSH1 0x1 PUSH1 0x40 SHL SUB DUP2 GT PUSH3 0x499 JUMPI PUSH1 0x5 SWAP3 DUP4 SLOAD SWAP3 PUSH1 0x1 SWAP4 DUP5 DUP2 DUP2 SHR SWAP2 AND DUP1 ISZERO PUSH3 0x7DD JUMPI JUMPDEST DUP4 DUP3 LT EQ PUSH3 0x579 JUMPI PUSH1 0x1F DUP2 GT PUSH3 0x7A6 JUMPI JUMPDEST POP DUP2 PUSH1 0x1F DUP5 GT PUSH1 0x1 EQ PUSH3 0x73C JUMPI POP SWAP3 DUP3 SWAP4 SWAP2 DUP4 SWAP3 PUSH1 0x0 SWAP5 PUSH3 0x730 JUMPI JUMPDEST POP POP SHL SWAP2 PUSH1 0x0 NOT SWAP1 PUSH1 0x3 SHL SHR NOT AND OR SWAP1 SSTORE PUSH1 0xFF SWAP1 JUMP JUMPDEST ADD MLOAD SWAP3 POP CODESIZE DUP1 PUSH3 0x71A JUMP JUMPDEST SWAP2 SWAP1 DUP4 PUSH1 0x1F NOT DUP2 AND DUP8 PUSH1 0x0 MSTORE DUP5 PUSH1 0x0 KECCAK256 SWAP5 PUSH1 0x0 SWAP1 JUMPDEST DUP9 DUP4 DUP4 LT PUSH3 0x78B JUMPI POP POP POP LT PUSH3 0x771 JUMPI JUMPDEST POP POP POP DUP2 SHL ADD SWAP1 SSTORE PUSH1 0xFF SWAP1 JUMP JUMPDEST ADD MLOAD PUSH1 0x0 NOT PUSH1 0xF8 DUP5 PUSH1 0x3 SHL AND SHR NOT AND SWAP1 SSTORE CODESIZE DUP1 DUP1 PUSH3 0x764 JUMP JUMPDEST DUP6 DUP8 ADD MLOAD DUP9 SSTORE SWAP1 SWAP7 ADD SWAP6 SWAP5 DUP6 ADD SWAP5 DUP8 SWAP4 POP SWAP1 DUP2 ADD SWAP1 PUSH3 0x751 JUMP JUMPDEST DUP6 PUSH1 0x0 MSTORE DUP5 PUSH1 0x1F DUP5 PUSH1 0x0 KECCAK256 SWAP3 ADD DUP8 SHR DUP3 ADD SWAP2 PUSH1 0x1F DUP7 ADD DUP9 SHR ADD JUMPDEST DUP3 DUP2 LT PUSH3 0x7D0 JUMPI POP POP PUSH3 0x6FC JUMP JUMPDEST PUSH1 0x0 DUP2 SSTORE ADD DUP6 SWAP1 PUSH3 0x7C0 JUMP JUMPDEST SWAP1 PUSH1 0x7F AND SWAP1 PUSH3 0x6E9 JUMP JUMPDEST DUP1 MLOAD PUSH1 0x20 SWAP1 DUP2 DUP2 LT ISZERO PUSH3 0x815 JUMPI POP PUSH1 0x1F DUP3 MLOAD GT PUSH3 0x681 JUMPI DUP1 DUP3 MLOAD SWAP3 ADD MLOAD SWAP1 DUP1 DUP4 LT PUSH3 0x672 JUMPI POP OR SWAP1 JUMP JUMPDEST SWAP1 PUSH1 0x1 PUSH1 0x1 PUSH1 0x40 SHL SUB DUP3 GT PUSH3 0x499 JUMPI PUSH1 0x6 SLOAD SWAP3 PUSH1 0x1 SWAP4 DUP5 DUP2 DUP2 SHR SWAP2 AND DUP1 ISZERO PUSH3 0x934 JUMPI JUMPDEST DUP4 DUP3 LT EQ PUSH3 0x579 JUMPI PUSH1 0x1F DUP2 GT PUSH3 0x8FA JUMPI JUMPDEST POP DUP2 PUSH1 0x1F DUP5 GT PUSH1 0x1 EQ PUSH3 0x88E JUMPI POP SWAP3 DUP3 SWAP4 SWAP2 DUP4 SWAP3 PUSH1 0x0 SWAP5 PUSH3 0x882 JUMPI JUMPDEST POP POP SHL SWAP2 PUSH1 0x0 NOT SWAP1 PUSH1 0x3 SHL SHR NOT AND OR PUSH1 0x6 SSTORE PUSH1 0xFF SWAP1 JUMP JUMPDEST ADD MLOAD SWAP3 POP CODESIZE DUP1 PUSH3 0x86B JUMP JUMPDEST SWAP2 SWAP1 DUP4 PUSH1 0x1F NOT DUP2 AND PUSH1 0x6 PUSH1 0x0 MSTORE DUP5 PUSH1 0x0 KECCAK256 SWAP5 PUSH1 0x0 SWAP1 JUMPDEST DUP9 DUP4 DUP4 LT PUSH3 0x8DF JUMPI POP POP POP LT PUSH3 0x8C5 JUMPI JUMPDEST POP POP POP DUP2 SHL ADD PUSH1 0x6 SSTORE PUSH1 0xFF SWAP1 JUMP JUMPDEST ADD MLOAD PUSH1 0x0 NOT PUSH1 0xF8 DUP5 PUSH1 0x3 SHL AND SHR NOT AND SWAP1 SSTORE CODESIZE DUP1 DUP1 PUSH3 0x8B7 JUMP JUMPDEST DUP6 DUP8 ADD MLOAD DUP9 SSTORE SWAP1 SWAP7 ADD SWAP6 SWAP5 DUP6 ADD SWAP5 DUP8 SWAP4 POP SWAP1 DUP2 ADD SWAP1 PUSH3 0x8A4 JUMP JUMPDEST PUSH1 0x6 PUSH1 0x0 MSTORE DUP5 PUSH1 0x1F DUP5 PUSH1 0x0 KECCAK256 SWAP3 ADD PUSH1 0x5 SHR DUP3 ADD SWAP2 PUSH1 0x1F DUP7 ADD PUSH1 0x5 SHR ADD JUMPDEST DUP3 DUP2 LT PUSH3 0x927 JUMPI POP POP PUSH3 0x84D JUMP JUMPDEST PUSH1 0x0 DUP2 SSTORE ADD DUP6 SWAP1 PUSH3 0x917 JUMP JUMPDEST SWAP1 PUSH1 0x7F AND SWAP1 PUSH3 0x83A JUMP INVALID PUSH1 0x80 DUP1 PUSH1 0x40 MSTORE PUSH1 0x4 CALLDATASIZE LT ISZERO PUSH2 0x13 JUMPI PUSH1 0x0 DUP1 REVERT JUMPDEST PUSH1 0x0 CALLDATALOAD PUSH1 0xE0 SHR SWAP1 DUP2 PUSH4 0x6FDDE03 EQ PUSH2 0xD79 JUMPI POP DUP1 PUSH4 0x95EA7B3 EQ PUSH2 0xD53 JUMPI DUP1 PUSH4 0x18160DDD EQ PUSH2 0xD35 JUMPI DUP1 PUSH4 0x23B872DD EQ PUSH2 0xCFC JUMPI DUP1 PUSH4 0x2D0335AB EQ PUSH2 0x683 JUMPI DUP1 PUSH4 0x313CE567 EQ PUSH2 0xCE0 JUMPI DUP1 PUSH4 0x3644E515 EQ PUSH2 0x2FC JUMPI DUP1 PUSH4 0x3F4BA83A EQ PUSH2 0xC5E JUMPI DUP1 PUSH4 0x40C10F19 EQ PUSH2 0xB08 JUMPI DUP1 PUSH4 0x42966C68 EQ PUSH2 0x9C0 JUMPI DUP1 PUSH4 0x5C975ABB EQ PUSH2 0x99D JUMPI DUP1 PUSH4 0x65F74888 EQ PUSH2 0x769 JUMPI DUP1 PUSH4 0x70A08231 EQ PUSH2 0x72F JUMPI DUP1 PUSH4 0x715018A6 EQ PUSH2 0x6C3 JUMPI DUP1 PUSH4 0x7ECEBE00 EQ PUSH2 0x683 JUMPI DUP1 PUSH4 0x8456CB59 EQ PUSH2 0x629 JUMPI DUP1 PUSH4 0x84B0196E EQ PUSH2 0x4ED JUMPI DUP1 PUSH4 0x8DA5CB5B EQ PUSH2 0x4C3 JUMPI DUP1 PUSH4 0x95D89B41 EQ PUSH2 0x3DD JUMPI DUP1 PUSH4 0xA2309FF8 EQ PUSH2 0x3BF JUMPI DUP1 PUSH4 0xA9059CBB EQ PUSH2 0x38E JUMPI DUP1 PUSH4 0xD505ACCF EQ PUSH2 0x371 JUMPI DUP1 PUSH4 0xD5ABEB01 EQ PUSH2 0x353 JUMPI DUP1 PUSH4 0xDD62ED3E EQ PUSH2 0x301 JUMPI DUP1 PUSH4 0xED24911D EQ PUSH2 0x2FC JUMPI DUP1 PUSH4 0xF065895B EQ PUSH2 0x2C7 JUMPI DUP1 PUSH4 0xF103B433 EQ PUSH2 0x222 JUMPI PUSH4 0xF2FDE38B EQ PUSH2 0x153 JUMPI PUSH1 0x0 DUP1 REVERT JUMPDEST CALLVALUE PUSH2 0x21D JUMPI PUSH1 0x20 CALLDATASIZE PUSH1 0x3 NOT ADD SLT PUSH2 0x21D JUMPI PUSH2 0x16C PUSH2 0xE5C JUMP JUMPDEST PUSH2 0x174 PUSH2 0xF23 JUMP JUMPDEST PUSH1 0x1 PUSH1 0x1 PUSH1 0xA0 SHL SUB DUP1 DUP3 AND SWAP2 DUP3 ISZERO PUSH2 0x1EC JUMPI PUSH21 0xFFFFFFFFFFFFFFFFFFFFFFFFFFFFFFFFFFFFFFFF00 PUSH1 0x8 SLOAD SWAP2 PUSH1 0x8 SHL AND PUSH21 0xFFFFFFFFFFFFFFFFFFFFFFFFFFFFFFFFFFFFFFFF00 NOT DUP3 AND OR PUSH1 0x8 SSTORE PUSH1 0x8 SHR AND PUSH32 0x8BE0079C531659141344CD1FD0A4F28419497F9722A3DAAFE3B4186F6B6457E0 PUSH1 0x0 DUP1 LOG3 STOP JUMPDEST PUSH1 0x24 PUSH1 0x40 MLOAD PUSH32 0x1E4FBDF700000000000000000000000000000000000000000000000000000000 DUP2 MSTORE PUSH1 0x0 PUSH1 0x4 DUP3 ADD MSTORE REVERT JUMPDEST PUSH1 0x0 DUP1 REVERT JUMPDEST CALLVALUE PUSH2 0x21D JUMPI PUSH1 0x20 CALLDATASIZE PUSH1 0x3 NOT ADD SLT PUSH2 0x21D JUMPI PUSH1 0x4 CALLDATALOAD PUSH2 0x23E PUSH2 0xF23 JUMP JUMPDEST DUP1 ISZERO DUP1 ISZERO PUSH2 0x2BB JUMPI JUMPDEST ISZERO PUSH2 0x251 JUMPI PUSH1 0x9 SSTORE STOP JUMPDEST PUSH1 0x84 PUSH1 0x40 MLOAD PUSH3 0x461BCD PUSH1 0xE5 SHL DUP2 MSTORE PUSH1 0x20 PUSH1 0x4 DUP3 ADD MSTORE PUSH1 0x28 PUSH1 0x24 DUP3 ADD MSTORE PUSH32 0x4E6577206D617820737570706C79206D757374206265203E3D2063757272656E PUSH1 0x44 DUP3 ADD MSTORE PUSH32 0x7420737570706C79000000000000000000000000000000000000000000000000 PUSH1 0x64 DUP3 ADD MSTORE REVERT JUMPDEST POP PUSH1 0x2 SLOAD DUP2 LT ISZERO PUSH2 0x247 JUMP JUMPDEST CALLVALUE PUSH2 0x21D JUMPI PUSH2 0x2FA PUSH2 0x2F5 PUSH2 0x2DB CALLDATASIZE PUSH2 0xED4 JUMP JUMPDEST SWAP3 PUSH2 0x2ED SWAP8 SWAP5 SWAP8 SWAP7 SWAP6 SWAP7 SWAP3 SWAP2 SWAP3 PUSH2 0x1864 JUMP JUMPDEST DUP8 CALLER DUP8 PUSH2 0x1242 JUMP JUMPDEST PUSH2 0xFE2 JUMP JUMPDEST STOP JUMPDEST PUSH2 0xE88 JUMP JUMPDEST CALLVALUE PUSH2 0x21D JUMPI PUSH1 0x40 CALLDATASIZE PUSH1 0x3 NOT ADD SLT PUSH2 0x21D JUMPI PUSH2 0x31A PUSH2 0xE5C JUMP JUMPDEST PUSH2 0x322 PUSH2 0xE72 JUMP JUMPDEST SWAP1 PUSH1 0x1 PUSH1 0x1 PUSH1 0xA0 SHL SUB DUP1 SWAP2 AND PUSH1 0x0 MSTORE PUSH1 0x1 PUSH1 0x20 MSTORE PUSH1 0x40 PUSH1 0x0 KECCAK256 SWAP2 AND PUSH1 0x0 MSTORE PUSH1 0x20 MSTORE PUSH1 0x20 PUSH1 0x40 PUSH1 0x0 KECCAK256 SLOAD PUSH1 0x40 MLOAD SWAP1 DUP2 MSTORE RETURN JUMPDEST CALLVALUE PUSH2 0x21D JUMPI PUSH1 0x0 CALLDATASIZE PUSH1 0x3 NOT ADD SLT PUSH2 0x21D JUMPI PUSH1 0x20 PUSH1 0x9 SLOAD PUSH1 0x40 MLOAD SWAP1 DUP2 MSTORE RETURN JUMPDEST CALLVALUE PUSH2 0x21D JUMPI PUSH2 0x2FA PUSH2 0x382 CALLDATASIZE PUSH2 0xED4 JUMP JUMPDEST SWAP6 SWAP5 SWAP1 SWAP5 SWAP4 SWAP2 SWAP4 PUSH2 0x1242 JUMP JUMPDEST CALLVALUE PUSH2 0x21D JUMPI PUSH1 0x40 CALLDATASIZE PUSH1 0x3 NOT ADD SLT PUSH2 0x21D JUMPI PUSH2 0x3B4 PUSH2 0x3AA PUSH2 0xE5C JUMP JUMPDEST PUSH1 0x24 CALLDATALOAD SWAP1 CALLER PUSH2 0x10CC JUMP JUMPDEST PUSH1 0x20 PUSH1 0x40 MLOAD PUSH1 0x1 DUP2 MSTORE RETURN JUMPDEST CALLVALUE PUSH2 0x21D JUMPI PUSH1 0x0 CALLDATASIZE PUSH1 0x3 NOT ADD SLT PUSH2 0x21D JUMPI PUSH1 0x20 PUSH1 0xA SLOAD PUSH1 0x40 MLOAD SWAP1 DUP2 MSTORE RETURN JUMPDEST CALLVALUE PUSH2 0x21D JUMPI PUSH1 0x0 CALLDATASIZE PUSH1 0x3 NOT ADD SLT PUSH2 0x21D JUMPI PUSH1 0x40 MLOAD PUSH1 0x0 PUSH1 0x4 SLOAD PUSH2 0x3FF DUP2 PUSH2 0xF6A JUMP JUMPDEST DUP1 DUP5 MSTORE SWAP1 PUSH1 0x1 SWAP1 DUP2 DUP2 AND SWAP1 DUP2 ISZERO PUSH2 0x49C JUMPI POP PUSH1 0x1 EQ PUSH2 0x441 JUMPI JUMPDEST PUSH2 0x43D DUP5 PUSH2 0x429 DUP2 DUP7 SUB DUP3 PUSH2 0xFC0 JUMP JUMPDEST PUSH1 0x40 MLOAD SWAP2 DUP3 SWAP2 PUSH1 0x20 DUP4 MSTORE PUSH1 0x20 DUP4 ADD SWAP1 PUSH2 0xE1C JUMP JUMPDEST SUB SWAP1 RETURN JUMPDEST PUSH1 0x4 PUSH1 0x0 SWAP1 DUP2 MSTORE SWAP3 POP PUSH32 0x8A35ACFBC15FF81A39AE7D344FD709F28E8600B4AA8C65C6B64BFE7FE36BD19B JUMPDEST DUP3 DUP5 LT PUSH2 0x484 JUMPI POP POP POP DUP2 ADD PUSH1 0x20 ADD PUSH2 0x429 DUP3 PUSH2 0x419 JUMP JUMPDEST DUP1 SLOAD PUSH1 0x20 DUP6 DUP8 ADD DUP2 ADD SWAP2 SWAP1 SWAP2 MSTORE SWAP1 SWAP4 ADD SWAP3 DUP2 ADD PUSH2 0x46C JUMP JUMPDEST PUSH1 0xFF NOT AND PUSH1 0x20 DUP1 DUP8 ADD SWAP2 SWAP1 SWAP2 MSTORE SWAP3 ISZERO ISZERO PUSH1 0x5 SHL DUP6 ADD SWAP1 SWAP3 ADD SWAP3 POP PUSH2 0x429 SWAP2 POP DUP4 SWAP1 POP PUSH2 0x419 JUMP JUMPDEST CALLVALUE PUSH2 0x21D JUMPI PUSH1 0x0 CALLDATASIZE PUSH1 0x3 NOT ADD SLT PUSH2 0x21D JUMPI PUSH1 0x20 PUSH1 0x1 PUSH1 0x1 PUSH1 0xA0 SHL SUB PUSH1 0x8 SLOAD PUSH1 0x8 SHR AND PUSH1 0x40 MLOAD SWAP1 DUP2 MSTORE RETURN JUMPDEST CALLVALUE PUSH2 0x21D JUMPI PUSH1 0x0 CALLDATASIZE PUSH1 0x3 NOT ADD SLT PUSH2 0x21D JUMPI PUSH2 0x527 PUSH32 0x0 PUSH2 0x163E JUMP JUMPDEST PUSH2 0x550 PUSH32 0x0 PUSH2 0x1752 JUMP JUMPDEST PUSH1 0x40 MLOAD PUSH1 0x20 DUP1 DUP3 ADD SWAP3 DUP3 DUP5 LT PUSH8 0xFFFFFFFFFFFFFFFF DUP6 GT OR PUSH2 0x613 JUMPI SWAP2 DUP2 PUSH2 0x5C6 DUP6 SWAP5 PUSH2 0x5B8 SWAP8 SWAP7 PUSH1 0x40 MSTORE PUSH1 0x0 DUP5 MSTORE PUSH1 0x40 MLOAD SWAP8 DUP9 SWAP8 PUSH32 0xF00000000000000000000000000000000000000000000000000000000000000 DUP10 MSTORE PUSH1 0xE0 DUP6 DUP11 ADD MSTORE PUSH1 0xE0 DUP10 ADD SWAP1 PUSH2 0xE1C JUMP JUMPDEST SWAP1 DUP8 DUP3 SUB PUSH1 0x40 DUP10 ADD MSTORE PUSH2 0xE1C JUMP JUMPDEST SWAP2 CHAINID PUSH1 0x60 DUP8 ADD MSTORE ADDRESS PUSH1 0x80 DUP8 ADD MSTORE PUSH1 0x0 PUSH1 0xA0 DUP8 ADD MSTORE DUP6 DUP4 SUB PUSH1 0xC0 DUP8 ADD MSTORE MLOAD SWAP2 DUP3 DUP2 MSTORE ADD SWAP3 SWAP2 PUSH1 0x0 JUMPDEST DUP3 DUP2 LT PUSH2 0x5FC JUMPI POP POP POP POP SUB SWAP1 RETURN JUMPDEST DUP4 MLOAD DUP6 MSTORE DUP7 SWAP6 POP SWAP4 DUP2 ADD SWAP4 SWAP3 DUP2 ADD SWAP3 PUSH1 0x1 ADD PUSH2 0x5ED JUMP JUMPDEST PUSH4 0x4E487B71 PUSH1 0xE0 SHL PUSH1 0x0 MSTORE PUSH1 0x41 PUSH1 0x4 MSTORE PUSH1 0x24 PUSH1 0x0 REVERT JUMPDEST CALLVALUE PUSH2 0x21D JUMPI PUSH1 0x0 CALLDATASIZE PUSH1 0x3 NOT ADD SLT PUSH2 0x21D JUMPI PUSH2 0x642 PUSH2 0xF23 JUMP JUMPDEST PUSH2 0x64A PUSH2 0x1864 JUMP JUMPDEST PUSH1 0x1 PUSH1 0xFF NOT PUSH1 0x8 SLOAD AND OR PUSH1 0x8 SSTORE PUSH32 0x62E78CEA01BEE320CD4E420270B5EA74000D11B0C9F74754EBDBFC544B05A258 PUSH1 0x20 PUSH1 0x40 MLOAD CALLER DUP2 MSTORE LOG1 STOP JUMPDEST CALLVALUE PUSH2 0x21D JUMPI PUSH1 0x20 CALLDATASIZE PUSH1 0x3 NOT ADD SLT PUSH2 0x21D JUMPI PUSH1 0x20 PUSH2 0x6BB PUSH2 0x6A1 PUSH2 0xE5C JUMP JUMPDEST PUSH1 0x1 PUSH1 0x1 PUSH1 0xA0 SHL SUB AND PUSH1 0x0 MSTORE PUSH1 0x7 PUSH1 0x20 MSTORE PUSH1 0x40 PUSH1 0x0 KECCAK256 SLOAD SWAP1 JUMP JUMPDEST PUSH1 0x40 MLOAD SWAP1 DUP2 MSTORE RETURN JUMPDEST CALLVALUE PUSH2 0x21D JUMPI PUSH1 0x0 CALLDATASIZE PUSH1 0x3 NOT ADD SLT PUSH2 0x21D JUMPI PUSH2 0x6DC PUSH2 0xF23 JUMP JUMPDEST PUSH1 0x0 PUSH1 0x1 PUSH1 0x1 PUSH1 0xA0 SHL SUB PUSH1 0x8 SLOAD PUSH21 0xFFFFFFFFFFFFFFFFFFFFFFFFFFFFFFFFFFFFFFFF00 NOT DUP2 AND PUSH1 0x8 SSTORE PUSH1 0x8 SHR AND PUSH32 0x8BE0079C531659141344CD1FD0A4F28419497F9722A3DAAFE3B4186F6B6457E0 DUP3 DUP1 LOG3 STOP JUMPDEST CALLVALUE PUSH2 0x21D JUMPI PUSH1 0x20 CALLDATASIZE PUSH1 0x3 NOT ADD SLT PUSH2 0x21D JUMPI PUSH1 0x1 PUSH1 0x1 PUSH1 0xA0 SHL SUB PUSH2 0x750 PUSH2 0xE5C JUMP JUMPDEST AND PUSH1 0x0 MSTORE PUSH1 0x0 PUSH1 0x20 MSTORE PUSH1 0x20 PUSH1 0x40 PUSH1 0x0 KECCAK256 SLOAD PUSH1 0x40 MLOAD SWAP1 DUP2 MSTORE RETURN JUMPDEST CALLVALUE PUSH2 0x21D JUMPI PUSH1 0xE0 CALLDATASIZE PUSH1 0x3 NOT ADD SLT PUSH2 0x21D JUMPI PUSH8 0xFFFFFFFFFFFFFFFF PUSH1 0x4 CALLDATALOAD DUP2 DUP2 GT PUSH2 0x21D JUMPI PUSH2 0x79B SWAP1 CALLDATASIZE SWAP1 PUSH1 0x4 ADD PUSH2 0xEA3 JUMP JUMPDEST SWAP2 SWAP1 PUSH1 0x24 CALLDATALOAD DUP3 DUP2 GT PUSH2 0x21D JUMPI PUSH2 0x7B5 SWAP1 CALLDATASIZE SWAP1 PUSH1 0x4 ADD PUSH2 0xEA3 JUMP JUMPDEST SWAP3 SWAP1 SWAP2 PUSH1 0x44 CALLDATALOAD DUP3 DUP2 GT PUSH2 0x21D JUMPI PUSH2 0x7D0 SWAP1 CALLDATASIZE SWAP1 PUSH1 0x4 ADD PUSH2 0xEA3 JUMP JUMPDEST PUSH1 0x64 SWAP5 SWAP2 SWAP5 CALLDATALOAD DUP5 DUP2 GT PUSH2 0x21D JUMPI PUSH2 0x7EB SWAP1 CALLDATASIZE SWAP1 PUSH1 0x4 ADD PUSH2 0xEA3 JUMP JUMPDEST SWAP2 SWAP1 PUSH1 0x84 CALLDATALOAD DUP7 DUP2 GT PUSH2 0x21D JUMPI PUSH2 0x805 SWAP1 CALLDATASIZE SWAP1 PUSH1 0x4 ADD PUSH2 0xEA3 JUMP JUMPDEST SWAP5 PUSH1 0xA4 CALLDATALOAD DUP9 DUP2 GT PUSH2 0x21D JUMPI PUSH2 0x81E SWAP1 CALLDATASIZE SWAP1 PUSH1 0x4 ADD PUSH2 0xEA3 JUMP JUMPDEST SWAP4 SWAP1 SWAP8 PUSH1 0xC4 CALLDATALOAD SWAP10 DUP11 GT PUSH2 0x21D JUMPI DUP12 SWAP11 PUSH2 0x83C DUP15 SWAP12 CALLDATASIZE SWAP1 PUSH1 0x4 ADD PUSH2 0xEA3 JUMP JUMPDEST SWAP14 SWAP1 SWAP12 PUSH2 0x847 PUSH2 0x1864 JUMP JUMPDEST EQ DUP1 PUSH2 0x994 JUMPI JUMPDEST DUP1 PUSH2 0x98B JUMPI JUMPDEST DUP1 PUSH2 0x982 JUMPI JUMPDEST DUP1 PUSH2 0x979 JUMPI JUMPDEST DUP1 PUSH2 0x970 JUMPI JUMPDEST ISZERO PUSH2 0x92C JUMPI PUSH1 0x0 DUP15 JUMPDEST DUP2 LT PUSH2 0x877 JUMPI STOP JUMPDEST DUP11 DUP16 DUP16 DUP16 SWAP2 SWAP1 DUP16 SWAP2 DUP14 DUP16 SWAP2 DUP13 DUP16 SWAP2 DUP13 DUP11 DUP16 DUP2 DUP16 SWAP2 DUP16 SWAP3 PUSH2 0x89A DUP4 DUP1 SWAP9 DUP2 SWAP4 PUSH2 0x189A JUMP JUMPDEST PUSH2 0x8A3 SWAP1 PUSH2 0x18C0 JUMP JUMPDEST SWAP14 PUSH2 0x8AD SWAP3 PUSH2 0x189A JUMP JUMPDEST PUSH2 0x8B6 SWAP1 PUSH2 0x18C0 JUMP JUMPDEST SWAP7 PUSH2 0x8C0 SWAP3 PUSH2 0x189A JUMP JUMPDEST CALLDATALOAD SWAP6 PUSH2 0x8CB SWAP3 PUSH2 0x189A JUMP JUMPDEST CALLDATALOAD SWAP5 PUSH2 0x8D6 SWAP3 PUSH2 0x189A JUMP JUMPDEST CALLDATALOAD SWAP4 PUSH1 0xFF DUP6 AND DUP6 SUB PUSH2 0x21D JUMPI DUP9 DUP16 SWAP2 PUSH2 0x8F6 DUP3 PUSH2 0x8FD SWAP5 PUSH2 0x904 SWAP13 PUSH2 0x189A JUMP JUMPDEST CALLDATALOAD SWAP8 PUSH2 0x189A JUMP JUMPDEST CALLDATALOAD SWAP6 PUSH2 0x1242 JUMP JUMPDEST PUSH1 0x0 NOT DUP2 EQ PUSH2 0x916 JUMPI PUSH1 0x1 ADD DUP15 PUSH2 0x86F JUMP JUMPDEST PUSH4 0x4E487B71 PUSH1 0xE0 SHL PUSH1 0x0 MSTORE PUSH1 0x11 PUSH1 0x4 MSTORE PUSH1 0x24 PUSH1 0x0 REVERT JUMPDEST PUSH1 0x64 PUSH1 0x40 MLOAD PUSH3 0x461BCD PUSH1 0xE5 SHL DUP2 MSTORE PUSH1 0x20 PUSH1 0x4 DUP3 ADD MSTORE PUSH1 0x16 PUSH1 0x24 DUP3 ADD MSTORE PUSH32 0x417272617973206C656E677468206D69736D6174636800000000000000000000 PUSH1 0x44 DUP3 ADD MSTORE REVERT JUMPDEST POP DUP13 DUP7 EQ PUSH2 0x866 JUMP JUMPDEST POP DUP6 DUP10 EQ PUSH2 0x860 JUMP JUMPDEST POP DUP9 DUP9 EQ PUSH2 0x85A JUMP JUMPDEST POP DUP8 DUP8 EQ PUSH2 0x854 JUMP JUMPDEST POP DUP7 DUP13 EQ PUSH2 0x84E JUMP JUMPDEST CALLVALUE PUSH2 0x21D JUMPI PUSH1 0x0 CALLDATASIZE PUSH1 0x3 NOT ADD SLT PUSH2 0x21D JUMPI PUSH1 0x20 PUSH1 0xFF PUSH1 0x8 SLOAD AND PUSH1 0x40 MLOAD SWAP1 ISZERO ISZERO DUP2 MSTORE RETURN JUMPDEST CALLVALUE PUSH2 0x21D JUMPI PUSH1 0x20 DUP1 PUSH1 0x3 NOT CALLDATASIZE ADD SLT PUSH2 0x21D JUMPI PUSH1 0x4 CALLDATALOAD PUSH2 0x9DD PUSH2 0xF23 JUMP JUMPDEST PUSH2 0x9E5 PUSH2 0x1864 JUMP JUMPDEST PUSH2 0x9F0 DUP2 ISZERO ISZERO PUSH2 0x180C JUMP JUMPDEST CALLER PUSH1 0x0 MSTORE PUSH1 0x0 DUP3 MSTORE DUP1 PUSH1 0x40 PUSH1 0x0 KECCAK256 SLOAD LT PUSH2 0xAC4 JUMPI CALLER ISZERO PUSH2 0xA93 JUMPI PUSH2 0xA12 PUSH2 0x1864 JUMP JUMPDEST CALLER PUSH1 0x0 MSTORE PUSH1 0x0 DUP3 MSTORE PUSH1 0x40 PUSH1 0x0 KECCAK256 SLOAD SWAP2 DUP2 DUP4 LT PUSH2 0xA6D JUMPI PUSH32 0xDDF252AD1BE2C89B69C2B068FC378DAA952BA7F163C4A11628F55A4DF523B3EF SWAP1 DUP3 PUSH1 0x0 SWAP5 CALLER DUP7 MSTORE DUP6 DUP4 MSTORE SUB PUSH1 0x40 DUP6 KECCAK256 SSTORE DUP3 PUSH1 0x2 SLOAD SUB PUSH1 0x2 SSTORE PUSH1 0x40 MLOAD SWAP3 DUP4 MSTORE CALLER SWAP3 LOG3 STOP JUMPDEST POP PUSH1 0x40 MLOAD PUSH4 0x391434E3 PUSH1 0xE2 SHL DUP2 MSTORE CALLER PUSH1 0x4 DUP3 ADD MSTORE PUSH1 0x24 DUP2 ADD SWAP3 SWAP1 SWAP3 MSTORE PUSH1 0x44 DUP3 ADD MSTORE PUSH1 0x64 SWAP1 REVERT JUMPDEST PUSH1 0x24 PUSH1 0x40 MLOAD PUSH32 0x96C6FD1E00000000000000000000000000000000000000000000000000000000 DUP2 MSTORE PUSH1 0x0 PUSH1 0x4 DUP3 ADD MSTORE REVERT JUMPDEST PUSH1 0x64 DUP3 PUSH1 0x40 MLOAD SWAP1 PUSH3 0x461BCD PUSH1 0xE5 SHL DUP3 MSTORE PUSH1 0x4 DUP3 ADD MSTORE PUSH1 0x1C PUSH1 0x24 DUP3 ADD MSTORE PUSH32 0x496E73756666696369656E742062616C616E636520746F206275726E00000000 PUSH1 0x44 DUP3 ADD MSTORE REVERT JUMPDEST CALLVALUE PUSH2 0x21D JUMPI PUSH1 0x40 CALLDATASIZE PUSH1 0x3 NOT ADD SLT PUSH2 0x21D JUMPI PUSH2 0xB21 PUSH2 0xE5C JUMP JUMPDEST PUSH1 0x1 PUSH1 0x1 PUSH1 0xA0 SHL SUB PUSH1 0x24 CALLDATALOAD SWAP2 PUSH2 0xB35 PUSH2 0xF23 JUMP JUMPDEST PUSH2 0xB3D PUSH2 0x1864 JUMP JUMPDEST AND SWAP1 DUP2 ISZERO PUSH2 0xC1A JUMPI PUSH2 0xB50 DUP2 ISZERO ISZERO PUSH2 0x180C JUMP JUMPDEST PUSH1 0x9 SLOAD DUP1 PUSH2 0xBBF JUMPI JUMPDEST POP PUSH32 0xDDF252AD1BE2C89B69C2B068FC378DAA952BA7F163C4A11628F55A4DF523B3EF PUSH1 0x20 DUP3 PUSH2 0xB8C PUSH1 0x0 SWAP5 PUSH1 0xA SLOAD PUSH2 0x1857 JUMP JUMPDEST PUSH1 0xA SSTORE PUSH2 0xB97 PUSH2 0x1864 JUMP JUMPDEST PUSH2 0xBA3 DUP2 PUSH1 0x2 SLOAD PUSH2 0x1857 JUMP JUMPDEST PUSH1 0x2 SSTORE DUP5 DUP5 MSTORE DUP4 DUP3 MSTORE PUSH1 0x40 DUP5 KECCAK256 DUP2 DUP2 SLOAD ADD SWAP1 SSTORE PUSH1 0x40 MLOAD SWAP1 DUP2 MSTORE LOG3 STOP JUMPDEST PUSH2 0xBCB DUP3 PUSH1 0x2 SLOAD PUSH2 0x1857 JUMP JUMPDEST GT PUSH2 0xBD6 JUMPI DUP3 PUSH2 0xB59 JUMP JUMPDEST PUSH1 0x64 PUSH1 0x40 MLOAD PUSH3 0x461BCD PUSH1 0xE5 SHL DUP2 MSTORE PUSH1 0x20 PUSH1 0x4 DUP3 ADD MSTORE PUSH1 0x1F PUSH1 0x24 DUP3 ADD MSTORE PUSH32 0x4D696E74696E6720776F756C6420657863656564206D617820737570706C7900 PUSH1 0x44 DUP3 ADD MSTORE REVERT JUMPDEST PUSH1 0x64 PUSH1 0x40 MLOAD PUSH3 0x461BCD PUSH1 0xE5 SHL DUP2 MSTORE PUSH1 0x20 PUSH1 0x4 DUP3 ADD MSTORE PUSH1 0x1B PUSH1 0x24 DUP3 ADD MSTORE PUSH32 0x43616E6E6F74206D696E7420746F207A65726F20616464726573730000000000 PUSH1 0x44 DUP3 ADD MSTORE REVERT JUMPDEST CALLVALUE PUSH2 0x21D JUMPI PUSH1 0x0 CALLDATASIZE PUSH1 0x3 NOT ADD SLT PUSH2 0x21D JUMPI PUSH2 0xC77 PUSH2 0xF23 JUMP JUMPDEST PUSH1 0x8 SLOAD PUSH1 0xFF DUP2 AND ISZERO PUSH2 0xCB6 JUMPI PUSH1 0xFF NOT AND PUSH1 0x8 SSTORE PUSH32 0x5DB9EE0A495BF2E6FF9C91A7834C1BA4FDD244A5E8AA4E537BD38AEAE4B073AA PUSH1 0x20 PUSH1 0x40 MLOAD CALLER DUP2 MSTORE LOG1 STOP JUMPDEST PUSH1 0x4 PUSH1 0x40 MLOAD PUSH32 0x8DFC202B00000000000000000000000000000000000000000000000000000000 DUP2 MSTORE REVERT JUMPDEST CALLVALUE PUSH2 0x21D JUMPI PUSH1 0x0 CALLDATASIZE PUSH1 0x3 NOT ADD SLT PUSH2 0x21D JUMPI PUSH1 0x20 PUSH1 0x40 MLOAD PUSH1 0x12 DUP2 MSTORE RETURN JUMPDEST CALLVALUE PUSH2 0x21D JUMPI PUSH1 0x60 CALLDATASIZE PUSH1 0x3 NOT ADD SLT PUSH2 0x21D JUMPI PUSH1 0x20 PUSH2 0xD2B PUSH2 0xD1A PUSH2 0xE5C JUMP JUMPDEST PUSH2 0xD22 PUSH2 0xE72 JUMP JUMPDEST PUSH1 0x44 CALLDATALOAD SWAP2 PUSH2 0xFE2 JUMP JUMPDEST PUSH1 0x40 MLOAD SWAP1 ISZERO ISZERO DUP2 MSTORE RETURN JUMPDEST CALLVALUE PUSH2 0x21D JUMPI PUSH1 0x0 CALLDATASIZE PUSH1 0x3 NOT ADD SLT PUSH2 0x21D JUMPI PUSH1 0x20 PUSH1 0x2 SLOAD PUSH1 0x40 MLOAD SWAP1 DUP2 MSTORE RETURN JUMPDEST CALLVALUE PUSH2 0x21D JUMPI PUSH1 0x40 CALLDATASIZE PUSH1 0x3 NOT ADD SLT PUSH2 0x21D JUMPI PUSH2 0x3B4 PUSH2 0xD6F PUSH2 0xE5C JUMP JUMPDEST PUSH1 0x24 CALLDATALOAD SWAP1 CALLER PUSH2 0x11B1 JUMP JUMPDEST CALLVALUE PUSH2 0x21D JUMPI PUSH1 0x0 CALLDATASIZE PUSH1 0x3 NOT ADD SLT PUSH2 0x21D JUMPI PUSH1 0x0 PUSH1 0x3 SLOAD PUSH2 0xD98 DUP2 PUSH2 0xF6A JUMP JUMPDEST DUP1 DUP5 MSTORE SWAP1 PUSH1 0x1 SWAP1 DUP2 DUP2 AND SWAP1 DUP2 ISZERO PUSH2 0x49C JUMPI POP PUSH1 0x1 EQ PUSH2 0xDC1 JUMPI PUSH2 0x43D DUP5 PUSH2 0x429 DUP2 DUP7 SUB DUP3 PUSH2 0xFC0 JUMP JUMPDEST PUSH1 0x3 PUSH1 0x0 SWAP1 DUP2 MSTORE SWAP3 POP PUSH32 0xC2575A0E9E593C00F959F8C92F12DB2869C3395A3B0502D05E2516446F71F85B JUMPDEST DUP3 DUP5 LT PUSH2 0xE04 JUMPI POP POP POP DUP2 ADD PUSH1 0x20 ADD PUSH2 0x429 DUP3 PUSH2 0x419 JUMP JUMPDEST DUP1 SLOAD PUSH1 0x20 DUP6 DUP8 ADD DUP2 ADD SWAP2 SWAP1 SWAP2 MSTORE SWAP1 SWAP4 ADD SWAP3 DUP2 ADD PUSH2 0xDEC JUMP JUMPDEST SWAP2 SWAP1 DUP3 MLOAD SWAP3 DUP4 DUP3 MSTORE PUSH1 0x0 JUMPDEST DUP5 DUP2 LT PUSH2 0xE48 JUMPI POP POP DUP3 PUSH1 0x0 PUSH1 0x20 DUP1 SWAP5 SWAP6 DUP5 ADD ADD MSTORE PUSH1 0x1F DUP1 NOT SWAP2 ADD AND ADD ADD SWAP1 JUMP JUMPDEST PUSH1 0x20 DUP2 DUP4 ADD DUP2 ADD MLOAD DUP5 DUP4 ADD DUP3 ADD MSTORE ADD PUSH2 0xE27 JUMP JUMPDEST PUSH1 0x4 CALLDATALOAD SWAP1 PUSH1 0x1 PUSH1 0x1 PUSH1 0xA0 SHL SUB DUP3 AND DUP3 SUB PUSH2 0x21D JUMPI JUMP JUMPDEST PUSH1 0x24 CALLDATALOAD SWAP1 PUSH1 0x1 PUSH1 0x1 PUSH1 0xA0 SHL SUB DUP3 AND DUP3 SUB PUSH2 0x21D JUMPI JUMP JUMPDEST CALLVALUE PUSH2 0x21D JUMPI PUSH1 0x0 CALLDATASIZE PUSH1 0x3 NOT ADD SLT PUSH2 0x21D JUMPI PUSH1 0x20 PUSH2 0x6BB PUSH2 0x1513 JUMP JUMPDEST SWAP2 DUP2 PUSH1 0x1F DUP5 ADD SLT ISZERO PUSH2 0x21D JUMPI DUP3 CALLDATALOAD SWAP2 PUSH8 0xFFFFFFFFFFFFFFFF DUP4 GT PUSH2 0x21D JUMPI PUSH1 0x20 DUP1 DUP6 ADD SWAP5 DUP5 PUSH1 0x5 SHL ADD ADD GT PUSH2 0x21D JUMPI JUMP JUMPDEST PUSH1 0xE0 SWAP1 PUSH1 0x3 NOT ADD SLT PUSH2 0x21D JUMPI PUSH1 0x1 PUSH1 0x1 PUSH1 0xA0 SHL SUB SWAP1 PUSH1 0x4 CALLDATALOAD DUP3 DUP2 AND DUP2 SUB PUSH2 0x21D JUMPI SWAP2 PUSH1 0x24 CALLDATALOAD SWAP1 DUP2 AND DUP2 SUB PUSH2 0x21D JUMPI SWAP1 PUSH1 0x44 CALLDATALOAD SWAP1 PUSH1 0x64 CALLDATALOAD SWAP1 PUSH1 0x84 CALLDATALOAD PUSH1 0xFF DUP2 AND DUP2 SUB PUSH2 0x21D JUMPI SWAP1 PUSH1 0xA4 CALLDATALOAD SWAP1 PUSH1 0xC4 CALLDATALOAD SWAP1 JUMP JUMPDEST PUSH1 0x1 PUSH1 0x1 PUSH1 0xA0 SHL SUB PUSH1 0x8 SLOAD PUSH1 0x8 SHR AND CALLER SUB PUSH2 0xF3A JUMPI JUMP JUMPDEST PUSH1 0x24 PUSH1 0x40 MLOAD PUSH32 0x118CDAA700000000000000000000000000000000000000000000000000000000 DUP2 MSTORE CALLER PUSH1 0x4 DUP3 ADD MSTORE REVERT JUMPDEST SWAP1 PUSH1 0x1 DUP3 DUP2 SHR SWAP3 AND DUP1 ISZERO PUSH2 0xF9A JUMPI JUMPDEST PUSH1 0x20 DUP4 LT EQ PUSH2 0xF84 JUMPI JUMP JUMPDEST PUSH4 0x4E487B71 PUSH1 0xE0 SHL PUSH1 0x0 MSTORE PUSH1 0x22 PUSH1 0x4 MSTORE PUSH1 0x24 PUSH1 0x0 REVERT JUMPDEST SWAP2 PUSH1 0x7F AND SWAP2 PUSH2 0xF79 JUMP JUMPDEST PUSH1 0x40 DUP2 ADD SWAP1 DUP2 LT PUSH8 0xFFFFFFFFFFFFFFFF DUP3 GT OR PUSH2 0x613 JUMPI PUSH1 0x40 MSTORE JUMP JUMPDEST SWAP1 PUSH1 0x1F DUP1 NOT SWAP2 ADD AND DUP2 ADD SWAP1 DUP2 LT PUSH8 0xFFFFFFFFFFFFFFFF DUP3 GT OR PUSH2 0x613 JUMPI PUSH1 0x40 MSTORE JUMP JUMPDEST SWAP3 SWAP2 SWAP1 PUSH1 0x1 PUSH1 0x1 PUSH1 0xA0 SHL SUB DUP5 AND SWAP4 PUSH1 0x0 DUP6 DUP2 MSTORE PUSH1 0x1 PUSH1 0x20 MSTORE PUSH1 0x40 SWAP6 DUP7 DUP3 KECCAK256 CALLER DUP4 MSTORE PUSH1 0x20 MSTORE DUP7 DUP3 KECCAK256 SLOAD SWAP1 PUSH1 0x0 NOT DUP3 LT PUSH2 0x1028 JUMPI JUMPDEST POP POP POP PUSH2 0x1023 SWAP4 SWAP5 POP PUSH2 0x10CC JUMP JUMPDEST PUSH1 0x1 SWAP1 JUMP JUMPDEST DUP6 DUP3 LT PUSH2 0x108E JUMPI DUP1 ISZERO PUSH2 0x1077 JUMPI CALLER ISZERO PUSH2 0x1060 JUMPI PUSH2 0x1023 SWAP7 SWAP8 SWAP2 DUP7 SWAP2 DUP5 MSTORE PUSH1 0x1 PUSH1 0x20 MSTORE DUP3 DUP5 KECCAK256 CALLER DUP6 MSTORE PUSH1 0x20 MSTORE SUB SWAP2 KECCAK256 SSTORE DUP5 SWAP4 CODESIZE DUP1 PUSH2 0x1015 JUMP JUMPDEST PUSH1 0x24 DUP4 DUP10 MLOAD SWAP1 PUSH4 0x4A1406B1 PUSH1 0xE1 SHL DUP3 MSTORE PUSH1 0x4 DUP3 ADD MSTORE REVERT JUMPDEST PUSH1 0x24 DUP4 DUP10 MLOAD SWAP1 PUSH4 0xE602DF05 PUSH1 0xE0 SHL DUP3 MSTORE PUSH1 0x4 DUP3 ADD MSTORE REVERT JUMPDEST DUP8 MLOAD PUSH32 0xFB8F41B200000000000000000000000000000000000000000000000000000000 DUP2 MSTORE CALLER PUSH1 0x4 DUP3 ADD MSTORE PUSH1 0x24 DUP2 ADD DUP4 SWAP1 MSTORE PUSH1 0x44 DUP2 ADD DUP8 SWAP1 MSTORE PUSH1 0x64 SWAP1 REVERT JUMPDEST SWAP2 PUSH1 0x1 PUSH1 0x1 PUSH1 0xA0 SHL SUB DUP1 DUP5 AND SWAP3 DUP4 ISZERO PUSH2 0xA93 JUMPI AND SWAP3 DUP4 ISZERO PUSH2 0x1180 JUMPI PUSH2 0x10EF PUSH2 0x1864 JUMP JUMPDEST PUSH1 0x0 SWAP1 DUP4 DUP3 MSTORE DUP2 PUSH1 0x20 MSTORE PUSH1 0x40 DUP3 KECCAK256 SLOAD SWAP1 DUP4 DUP3 LT PUSH2 0x114E JUMPI POP SWAP2 PUSH1 0x40 DUP3 DUP3 PUSH32 0xDDF252AD1BE2C89B69C2B068FC378DAA952BA7F163C4A11628F55A4DF523B3EF SWAP6 DUP8 PUSH1 0x20 SWAP7 MSTORE DUP3 DUP7 MSTORE SUB DUP3 DUP3 KECCAK256 SSTORE DUP7 DUP2 MSTORE KECCAK256 DUP2 DUP2 SLOAD ADD SWAP1 SSTORE PUSH1 0x40 MLOAD SWAP1 DUP2 MSTORE LOG3 JUMP JUMPDEST PUSH1 0x40 MLOAD PUSH4 0x391434E3 PUSH1 0xE2 SHL DUP2 MSTORE PUSH1 0x1 PUSH1 0x1 PUSH1 0xA0 SHL SUB SWAP2 SWAP1 SWAP2 AND PUSH1 0x4 DUP3 ADD MSTORE PUSH1 0x24 DUP2 ADD SWAP2 SWAP1 SWAP2 MSTORE PUSH1 0x44 DUP2 ADD DUP4 SWAP1 MSTORE PUSH1 0x64 SWAP1 REVERT JUMPDEST PUSH1 0x24 PUSH1 0x40 MLOAD PUSH32 0xEC442F0500000000000000000000000000000000000000000000000000000000 DUP2 MSTORE PUSH1 0x0 PUSH1 0x4 DUP3 ADD MSTORE REVERT JUMPDEST PUSH1 0x1 PUSH1 0x1 PUSH1 0xA0 SHL SUB DUP1 SWAP2 AND SWAP2 DUP3 ISZERO PUSH2 0x122A JUMPI AND SWAP2 DUP3 ISZERO PUSH2 0x1212 JUMPI PUSH1 0x20 PUSH32 0x8C5BE1E5EBEC7D5BD14F71427D1E84F3DD0314C0F7B2291E5B200AC8C7C3B925 SWAP2 DUP4 PUSH1 0x0 MSTORE PUSH1 0x1 DUP3 MSTORE PUSH1 0x40 PUSH1 0x0 KECCAK256 DUP6 PUSH1 0x0 MSTORE DUP3 MSTORE DUP1 PUSH1 0x40 PUSH1 0x0 KECCAK256 SSTORE PUSH1 0x40 MLOAD SWAP1 DUP2 MSTORE LOG3 JUMP JUMPDEST PUSH1 0x24 PUSH1 0x40 MLOAD PUSH4 0x4A1406B1 PUSH1 0xE1 SHL DUP2 MSTORE PUSH1 0x0 PUSH1 0x4 DUP3 ADD MSTORE REVERT JUMPDEST PUSH1 0x24 PUSH1 0x40 MLOAD PUSH4 0xE602DF05 PUSH1 0xE0 SHL DUP2 MSTORE PUSH1 0x0 PUSH1 0x4 DUP3 ADD MSTORE REVERT JUMPDEST SWAP3 SWAP7 SWAP6 SWAP2 SWAP5 SWAP7 SWAP4 SWAP1 SWAP4 DUP1 TIMESTAMP GT PUSH2 0x1384 JUMPI PUSH1 0x1 PUSH1 0x1 PUSH1 0xA0 SHL SUB SWAP2 DUP3 DUP6 AND SWAP4 DUP5 PUSH1 0x0 MSTORE PUSH1 0x7 PUSH1 0x20 MSTORE PUSH1 0x40 SWAP10 DUP11 SWAP3 DUP4 PUSH1 0x0 KECCAK256 SWAP5 DUP6 SLOAD SWAP6 PUSH1 0x1 DUP8 ADD SWAP1 SSTORE DUP5 MLOAD SWAP6 DUP9 PUSH1 0x20 DUP9 ADD SWAP7 PUSH32 0x6E71EDAE12B1B97F4D1F60370FEF10105FA2FAAE0126114A169C64845D6126C9 DUP9 MSTORE DUP9 ADD MSTORE DUP8 DUP12 AND PUSH1 0x60 DUP9 ADD MSTORE DUP12 PUSH1 0x80 DUP9 ADD MSTORE PUSH1 0xA0 DUP8 ADD MSTORE PUSH1 0xC0 DUP7 ADD MSTORE PUSH1 0xC0 DUP6 MSTORE PUSH1 0xE0 DUP6 ADD SWAP5 DUP1 DUP7 LT PUSH8 0xFFFFFFFFFFFFFFFF DUP8 GT OR PUSH2 0x613 JUMPI DUP13 PUSH2 0x132D SWAP6 PUSH1 0x42 SWAP3 PUSH2 0x1336 SWAP9 DUP4 MSTORE MLOAD SWAP1 KECCAK256 PUSH2 0x12F7 PUSH2 0x1513 JUMP JUMPDEST SWAP2 MLOAD SWAP2 PUSH32 0x1901000000000000000000000000000000000000000000000000000000000000 DUP4 MSTORE PUSH1 0x2 DUP4 ADD MSTORE PUSH1 0x22 DUP3 ADD MSTORE KECCAK256 PUSH2 0x13B5 JUMP JUMPDEST SWAP1 SWAP3 SWAP2 SWAP3 PUSH2 0x1445 JUMP JUMPDEST AND SWAP1 DUP1 DUP3 SUB PUSH2 0x134E JUMPI POP POP PUSH2 0x134C SWAP4 SWAP5 POP PUSH2 0x11B1 JUMP JUMPDEST JUMP JUMPDEST PUSH1 0x44 SWAP3 POP DUP7 MLOAD SWAP2 PUSH32 0x4B800E4600000000000000000000000000000000000000000000000000000000 DUP4 MSTORE PUSH1 0x4 DUP4 ADD MSTORE PUSH1 0x24 DUP3 ADD MSTORE REVERT JUMPDEST PUSH1 0x24 SWAP1 PUSH1 0x40 MLOAD SWAP1 PUSH32 0x6279130200000000000000000000000000000000000000000000000000000000 DUP3 MSTORE PUSH1 0x4 DUP3 ADD MSTORE REVERT JUMPDEST SWAP2 SWAP1 PUSH32 0x7FFFFFFFFFFFFFFFFFFFFFFFFFFFFFFF5D576E7357A4501DDFE92F46681B20A0 DUP5 GT PUSH2 0x1439 JUMPI SWAP3 PUSH1 0x20 SWAP3 SWAP2 PUSH1 0xFF PUSH1 0x80 SWAP6 PUSH1 0x40 MLOAD SWAP5 DUP6 MSTORE AND DUP5 DUP5 ADD MSTORE PUSH1 0x40 DUP4 ADD MSTORE PUSH1 0x60 DUP3 ADD MSTORE PUSH1 0x0 SWAP3 DUP4 SWAP2 DUP3 DUP1 MSTORE PUSH1 0x1 GAS STATICCALL ISZERO PUSH2 0x142D JUMPI DUP1 MLOAD PUSH1 0x1 PUSH1 0x1 PUSH1 0xA0 SHL SUB DUP2 AND ISZERO PUSH2 0x1424 JUMPI SWAP2 DUP2 SWAP1 JUMP JUMPDEST POP DUP1 SWAP2 PUSH1 0x1 SWAP2 SWAP1 JUMP JUMPDEST PUSH1 0x40 MLOAD SWAP1 RETURNDATASIZE SWAP1 DUP3 RETURNDATACOPY RETURNDATASIZE SWAP1 REVERT JUMPDEST POP POP POP PUSH1 0x0 SWAP2 PUSH1 0x3 SWAP2 SWAP1 JUMP JUMPDEST PUSH1 0x4 DUP2 LT ISZERO PUSH2 0x14FD JUMPI DUP1 PUSH2 0x1457 JUMPI POP POP JUMP JUMPDEST PUSH1 0x1 DUP2 SUB PUSH2 0x1489 JUMPI PUSH1 0x4 PUSH1 0x40 MLOAD PUSH32 0xF645EEDF00000000000000000000000000000000000000000000000000000000 DUP2 MSTORE REVERT JUMPDEST PUSH1 0x2 DUP2 SUB PUSH2 0x14C2 JUMPI PUSH1 0x24 DUP3 PUSH1 0x40 MLOAD SWAP1 PUSH32 0xFCE698F700000000000000000000000000000000000000000000000000000000 DUP3 MSTORE PUSH1 0x4 DUP3 ADD MSTORE REVERT JUMPDEST PUSH1 0x3 EQ PUSH2 0x14CC JUMPI POP JUMP JUMPDEST PUSH1 0x24 SWAP1 PUSH1 0x40 MLOAD SWAP1 PUSH32 0xD78BCE0C00000000000000000000000000000000000000000000000000000000 DUP3 MSTORE PUSH1 0x4 DUP3 ADD MSTORE REVERT JUMPDEST PUSH4 0x4E487B71 PUSH1 0xE0 SHL PUSH1 0x0 MSTORE PUSH1 0x21 PUSH1 0x4 MSTORE PUSH1 0x24 PUSH1 0x0 REVERT JUMPDEST PUSH1 0x1 PUSH1 0x1 PUSH1 0xA0 SHL SUB PUSH32 0x0 AND ADDRESS EQ DUP1 PUSH2 0x1615 JUMPI JUMPDEST ISZERO PUSH2 0x156E JUMPI PUSH32 0x0 SWAP1 JUMP JUMPDEST PUSH1 0x40 MLOAD PUSH1 0x20 DUP2 ADD SWAP1 PUSH32 0x8B73C3C69BB8FE3D512ECC4CF759CC79239F7B179B0FFACAA9A75D522B39400F DUP3 MSTORE PUSH32 0x0 PUSH1 0x40 DUP3 ADD MSTORE PUSH32 0x0 PUSH1 0x60 DUP3 ADD MSTORE CHAINID PUSH1 0x80 DUP3 ADD MSTORE ADDRESS PUSH1 0xA0 DUP3 ADD MSTORE PUSH1 0xA0 DUP2 MSTORE PUSH1 0xC0 DUP2 ADD DUP2 DUP2 LT PUSH8 0xFFFFFFFFFFFFFFFF DUP3 GT OR PUSH2 0x613 JUMPI PUSH1 0x40 MSTORE MLOAD SWAP1 KECCAK256 SWAP1 JUMP JUMPDEST POP PUSH32 0x0 CHAINID EQ PUSH2 0x1545 JUMP JUMPDEST PUSH1 0xFF DUP2 EQ PUSH2 0x1694 JUMPI PUSH1 0xFF DUP2 AND SWAP1 PUSH1 0x1F DUP3 GT PUSH2 0x166A JUMPI PUSH1 0x40 MLOAD SWAP2 PUSH2 0x1660 DUP4 PUSH2 0xFA4 JUMP JUMPDEST DUP3 MSTORE PUSH1 0x20 DUP3 ADD MSTORE SWAP1 JUMP JUMPDEST PUSH1 0x4 PUSH1 0x40 MLOAD PUSH32 0xB3512B0C00000000000000000000000000000000000000000000000000000000 DUP2 MSTORE REVERT JUMPDEST POP PUSH1 0x40 MLOAD PUSH1 0x5 SLOAD DUP2 PUSH1 0x0 PUSH2 0x16A7 DUP4 PUSH2 0xF6A JUMP JUMPDEST DUP1 DUP4 MSTORE SWAP3 PUSH1 0x1 SWAP1 DUP2 DUP2 AND SWAP1 DUP2 ISZERO PUSH2 0x1730 JUMPI POP PUSH1 0x1 EQ PUSH2 0x16D1 JUMPI JUMPDEST POP PUSH2 0x16CE SWAP3 POP SUB DUP3 PUSH2 0xFC0 JUMP JUMPDEST SWAP1 JUMP JUMPDEST PUSH1 0x5 PUSH1 0x0 SWAP1 DUP2 MSTORE SWAP2 POP PUSH32 0x36B6384B5ECA791C62761152D0C79BB0604C104A5FB6F4EB0703F3154BB3DB0 JUMPDEST DUP5 DUP4 LT PUSH2 0x1715 JUMPI POP PUSH2 0x16CE SWAP4 POP POP DUP2 ADD PUSH1 0x20 ADD CODESIZE PUSH2 0x16C1 JUMP JUMPDEST DUP2 SWAP4 POP SWAP1 DUP2 PUSH1 0x20 SWAP3 SLOAD DUP4 DUP6 DUP10 ADD ADD MSTORE ADD SWAP2 ADD SWAP1 SWAP2 DUP5 SWAP3 PUSH2 0x16FC JUMP JUMPDEST SWAP1 POP PUSH1 0x20 SWAP3 POP PUSH2 0x16CE SWAP5 SWAP2 POP PUSH1 0xFF NOT AND DUP3 DUP5 ADD MSTORE ISZERO ISZERO PUSH1 0x5 SHL DUP3 ADD ADD CODESIZE PUSH2 0x16C1 JUMP JUMPDEST PUSH1 0xFF DUP2 EQ PUSH2 0x1774 JUMPI PUSH1 0xFF DUP2 AND SWAP1 PUSH1 0x1F DUP3 GT PUSH2 0x166A JUMPI PUSH1 0x40 MLOAD SWAP2 PUSH2 0x1660 DUP4 PUSH2 0xFA4 JUMP JUMPDEST POP PUSH1 0x40 MLOAD PUSH1 0x6 SLOAD DUP2 PUSH1 0x0 PUSH2 0x1787 DUP4 PUSH2 0xF6A JUMP JUMPDEST DUP1 DUP4 MSTORE SWAP3 PUSH1 0x1 SWAP1 DUP2 DUP2 AND SWAP1 DUP2 ISZERO PUSH2 0x1730 JUMPI POP PUSH1 0x1 EQ PUSH2 0x17AD JUMPI POP PUSH2 0x16CE SWAP3 POP SUB DUP3 PUSH2 0xFC0 JUMP JUMPDEST PUSH1 0x6 PUSH1 0x0 SWAP1 DUP2 MSTORE SWAP2 POP PUSH32 0xF652222313E28459528D920B65115C16C04F3EFC82AAEDC97BE59F3F377C0D3F JUMPDEST DUP5 DUP4 LT PUSH2 0x17F1 JUMPI POP PUSH2 0x16CE SWAP4 POP POP DUP2 ADD PUSH1 0x20 ADD CODESIZE PUSH2 0x16C1 JUMP JUMPDEST DUP2 SWAP4 POP SWAP1 DUP2 PUSH1 0x20 SWAP3 SLOAD DUP4 DUP6 DUP10 ADD ADD MSTORE ADD SWAP2 ADD SWAP1 SWAP2 DUP5 SWAP3 PUSH2 0x17D8 JUMP JUMPDEST ISZERO PUSH2 0x1813 JUMPI JUMP JUMPDEST PUSH1 0x64 PUSH1 0x40 MLOAD PUSH3 0x461BCD PUSH1 0xE5 SHL DUP2 MSTORE PUSH1 0x20 PUSH1 0x4 DUP3 ADD MSTORE PUSH1 0x20 PUSH1 0x24 DUP3 ADD MSTORE PUSH32 0x416D6F756E74206D7573742062652067726561746572207468616E207A65726F PUSH1 0x44 DUP3 ADD MSTORE REVERT JUMPDEST SWAP2 SWAP1 DUP3 ADD DUP1 SWAP3 GT PUSH2 0x916 JUMPI JUMP JUMPDEST PUSH1 0xFF PUSH1 0x8 SLOAD AND PUSH2 0x1870 JUMPI JUMP JUMPDEST PUSH1 0x4 PUSH1 0x40 MLOAD PUSH32 0xD93C066500000000000000000000000000000000000000000000000000000000 DUP2 MSTORE REVERT JUMPDEST SWAP2 SWAP1 DUP2 LT ISZERO PUSH2 0x18AA JUMPI PUSH1 0x5 SHL ADD SWAP1 JUMP JUMPDEST PUSH4 0x4E487B71 PUSH1 0xE0 SHL PUSH1 0x0 MSTORE PUSH1 0x32 PUSH1 0x4 MSTORE PUSH1 0x24 PUSH1 0x0 REVERT JUMPDEST CALLDATALOAD PUSH1 0x1 PUSH1 0x1 PUSH1 0xA0 SHL SUB DUP2 AND DUP2 SUB PUSH2 0x21D JUMPI SWAP1 JUMP INVALID LOG2 PUSH5 0x6970667358 0x22 SLT KECCAK256 0xC5 SWAP7 CALL PUSH29 0x8043034F5A831DC5D3E8E007A743020AE0BB096CD01D0EA4DDE63E4764 PUSH20 0x6F6C634300081400330000000000000000000000 "},"methodIdentifiers":{"DOMAIN_SEPARATOR()":"3644e515","allowance(address,address)":"dd62ed3e","approve(address,uint256)":"095ea7b3","balanceOf(address)":"70a08231","batchPermit(address[],address[],uint256[],uint256[],uint8[],bytes32[],bytes32[])":"65f74888","burn(uint256)":"42966c68","decimals()":"313ce567","eip712Domain()":"84b0196e","getDomainSeparator()":"ed24911d","getNonce(address)":"2d0335ab","maxSupply()":"d5abeb01","mint(address,uint256)":"40c10f19","name()":"06fdde03","nonces(address)":"7ecebe00","owner()":"8da5cb5b","pause()":"8456cb59","paused()":"5c975abb","permit(address,address,uint256,uint256,uint8,bytes32,bytes32)":"d505accf","permitTransfer(address,address,uint256,uint256,uint8,bytes32,bytes32)":"f065895b","renounceOwnership()":"715018a6","symbol()":"95d89b41","totalMinted()":"a2309ff8","totalSupply()":"18160ddd","transfer(address,uint256)":"a9059cbb","transferFrom(address,address,uint256)":"23b872dd","transferOwnership(address)":"f2fde38b","unpause()":"3f4ba83a","updateMaxSupply(uint256)":"f103b433"}}}}}