{
  "_format": "hh-sol-artifact-1",
  "contractName": "TestToken",
  "sourceName": "contracts/TestToken.sol",
  "abi": [
    {
      "inputs": [
        {
          "internalType": "string",
          "name": "name",
          "type": "string"
        },
        {
          "internalType": "string",
          "name": "symbol",
          "type": "string"
        },
        {
          "internalType": "uint256",
          "name": "initialSupply",
          "type": "uint256"
        },
        {
          "internalType": "uint256",
          "name": "_maxSupply",
          "type": "uint256"
        }
      ],
      "stateMutability": "nonpayable",
      "type": "constructor"
    },
    {
      "inputs": [
        {
          "internalType": "address",
          "name": "spender",
          "type": "address"
        },
        {
          "internalType": "uint256",
          "name": "allowance",
          "type": "uint256"
        },
        {
          "internalType": "uint256",
          "name": "needed",
          "type": "uint256"
        }
      ],
      "name": "ERC20InsufficientAllowance",
      "type": "error"
    },
    {
      "inputs": [
        {
          "internalType": "address",
          "name": "sender",
          "type": "address"
        },
        {
          "internalType": "uint256",
          "name": "balance",
          "type": "uint256"
        },
        {
          "internalType": "uint256",
          "name": "needed",
          "type": "uint256"
        }
      ],
      "name": "ERC20InsufficientBalance",
      "type": "error"
    },
    {
      "inputs": [
        {
          "internalType": "address",
          "name": "approver",
          "type": "address"
        }
      ],
      "name": "ERC20InvalidApprover",
      "type": "error"
    },
    {
      "inputs": [
        {
          "internalType": "address",
          "name": "receiver",
          "type": "address"
        }
      ],
      "name": "ERC20InvalidReceiver",
      "type": "error"
    },
    {
      "inputs": [
        {
          "internalType": "address",
          "name": "sender",
          "type": "address"
        }
      ],
      "name": "ERC20InvalidSender",
      "type": "error"
    },
    {
      "inputs": [
        {
          "internalType": "address",
          "name": "spender",
          "type": "address"
        }
      ],
      "name": "ERC20InvalidSpender",
      "type": "error"
    },
    {
      "inputs": [
        {
          "internalType": "address",
          "name": "owner",
          "type": "address"
        }
      ],
      "name": "OwnableInvalidOwner",
      "type": "error"
    },
    {
      "inputs": [
        {
          "internalType": "address",
          "name": "account",
          "type": "address"
        }
      ],
      "name": "OwnableUnauthorizedAccount",
      "type": "error"
    },
    {
      "anonymous": false,
      "inputs": [
        {
          "indexed": true,
          "internalType": "address",
          "name": "owner",
          "type": "address"
        },
        {
          "indexed": true,
          "internalType": "address",
          "name": "spender",
          "type": "address"
        },
        {
          "indexed": false,
          "internalType": "uint256",
          "name": "value",
          "type": "uint256"
        }
      ],
      "name": "Approval",
      "type": "event"
    },
    {
      "anonymous": false,
      "inputs": [
        {
          "indexed": true,
          "internalType": "address",
          "name": "previousOwner",
          "type": "address"
        },
        {
          "indexed": true,
          "internalType": "address",
          "name": "newOwner",
          "type": "address"
        }
      ],
      "name": "OwnershipTransferred",
      "type": "event"
    },
    {
      "anonymous": false,
      "inputs": [
        {
          "indexed": true,
          "internalType": "address",
          "name": "from",
          "type": "address"
        },
        {
          "indexed": true,
          "internalType": "address",
          "name": "to",
          "type": "address"
        },
        {
          "indexed": false,
          "internalType": "uint256",
          "name": "value",
          "type": "uint256"
        }
      ],
      "name": "Transfer",
      "type": "event"
    },
    {
      "inputs": [
        {
          "internalType": "address",
          "name": "owner",
          "type": "address"
        },
        {
          "internalType": "address",
          "name": "spender",
          "type": "address"
        }
      ],
      "name": "allowance",
      "outputs": [
        {
          "internalType": "uint256",
          "name": "",
          "type": "uint256"
        }
      ],
      "stateMutability": "view",
      "type": "function"
    },
    {
      "inputs": [
        {
          "internalType": "address",
          "name": "spender",
          "type": "address"
        },
        {
          "internalType": "uint256",
          "name": "value",
          "type": "uint256"
        }
      ],
      "name": "approve",
      "outputs": [
        {
          "internalType": "bool",
          "name": "",
          "type": "bool"
        }
      ],
      "stateMutability": "nonpayable",
      "type": "function"
    },
    {
      "inputs": [
        {
          "internalType": "address",
          "name": "account",
          "type": "address"
        }
      ],
      "name": "balanceOf",
      "outputs": [
        {
          "internalType": "uint256",
          "name": "",
          "type": "uint256"
        }
      ],
      "stateMutability": "view",
      "type": "function"
    },
    {
      "inputs": [
        {
          "internalType": "uint256",
          "name": "amount",
          "type": "uint256"
        }
      ],
      "name": "burn",
      "outputs": [],
      "stateMutability": "nonpayable",
      "type": "function"
    },
    {
      "inputs": [],
      "name": "decimals",
      "outputs": [
        {
          "internalType": "uint8",
          "name": "",
          "type": "uint8"
        }
      ],
      "stateMutability": "view",
      "type": "function"
    },
    {
      "inputs": [],
      "name": "maxSupply",
      "outputs": [
        {
          "internalType": "uint256",
          "name": "",
          "type": "uint256"
        }
      ],
      "stateMutability": "view",
      "type": "function"
    },
    {
      "inputs": [
        {
          "internalType": "address",
          "name": "to",
          "type": "address"
        },
        {
          "internalType": "uint256",
          "name": "amount",
          "type": "uint256"
        }
      ],
      "name": "mint",
      "outputs": [],
      "stateMutability": "nonpayable",
      "type": "function"
    },
    {
      "inputs": [],
      "name": "name",
      "outputs": [
        {
          "internalType": "string",
          "name": "",
          "type": "string"
        }
      ],
      "stateMutability": "view",
      "type": "function"
    },
    {
      "inputs": [],
      "name": "owner",
      "outputs": [
        {
          "internalType": "address",
          "name": "",
          "type": "address"
        }
      ],
      "stateMutability": "view",
      "type": "function"
    },
    {
      "inputs": [],
      "name": "renounceOwnership",
      "outputs": [],
      "stateMutability": "nonpayable",
      "type": "function"
    },
    {
      "inputs": [],
      "name": "symbol",
      "outputs": [
        {
          "internalType": "string",
          "name": "",
          "type": "string"
        }
      ],
      "stateMutability": "view",
      "type": "function"
    },
    {
      "inputs": [],
      "name": "totalMinted",
      "outputs": [
        {
          "internalType": "uint256",
          "name": "",
          "type": "uint256"
        }
      ],
      "stateMutability": "view",
      "type": "function"
    },
    {
      "inputs": [],
      "name": "totalSupply",
      "outputs": [
        {
          "internalType": "uint256",
          "name": "",
          "type": "uint256"
        }
      ],
      "stateMutability": "view",
      "type": "function"
    },
    {
      "inputs": [
        {
          "internalType": "address",
          "name": "to",
          "type": "address"
        },
        {
          "internalType": "uint256",
          "name": "value",
          "type": "uint256"
        }
      ],
      "name": "transfer",
      "outputs": [
        {
          "internalType": "bool",
          "name": "",
          "type": "bool"
        }
      ],
      "stateMutability": "nonpayable",
      "type": "function"
    },
    {
      "inputs": [
        {
          "internalType": "address",
          "name": "from",
          "type": "address"
        },
        {
          "internalType": "address",
          "name": "to",
          "type": "address"
        },
        {
          "internalType": "uint256",
          "name": "value",
          "type": "uint256"
        }
      ],
      "name": "transferFrom",
      "outputs": [
        {
          "internalType": "bool",
          "name": "",
          "type": "bool"
        }
      ],
      "stateMutability": "nonpayable",
      "type": "function"
    },
    {
      "inputs": [
        {
          "internalType": "address",
          "name": "newOwner",
          "type": "address"
        }
      ],
      "name": "transferOwnership",
      "outputs": [],
      "stateMutability": "nonpayable",
      "type": "function"
    },
    {
      "inputs": [
        {
          "internalType": "uint256",
          "name": "newMaxSupply",
          "type": "uint256"
        }
      ],
      "name": "updateMaxSupply",
      "outputs": [],
      "stateMutability": "nonpayable",
      "type": "function"
    }
  ],
  "bytecode": "0x60806040523480156200001157600080fd5b5060405162001266380380620012668339810160408190526200003491620003a1565b3384846003620000458382620004aa565b506004620000548282620004aa565b5050506001600160a01b0381166200008757604051631e4fbdf760e01b8152600060048201526024015b60405180910390fd5b620000928162000119565b508082111580620000a1575080155b620000f95760405162461bcd60e51b815260206004820152602160248201527f496e697469616c20737570706c792065786365656473206d617820737570706c6044820152607960f81b60648201526084016200007e565b600681905560078290556200010f33836200016b565b505050506200059e565b600580546001600160a01b038381166001600160a01b0319831681179093556040519116919082907f8be0079c531659141344cd1fd0a4f28419497f9722a3daafe3b4186f6b6457e090600090a35050565b6001600160a01b038216620001975760405163ec442f0560e01b8152600060048201526024016200007e565b620001a560008383620001a9565b5050565b6001600160a01b038316620001d8578060026000828254620001cc919062000576565b909155506200024c9050565b6001600160a01b038316600090815260208190526040902054818110156200022d5760405163391434e360e21b81526001600160a01b038516600482015260248101829052604481018390526064016200007e565b6001600160a01b03841660009081526020819052604090209082900390555b6001600160a01b0382166200026a5760028054829003905562000289565b6001600160a01b03821660009081526020819052604090208054820190555b816001600160a01b0316836001600160a01b03167fddf252ad1be2c89b69c2b068fc378daa952ba7f163c4a11628f55a4df523b3ef83604051620002cf91815260200190565b60405180910390a3505050565b634e487b7160e01b600052604160045260246000fd5b600082601f8301126200030457600080fd5b81516001600160401b0380821115620003215762000321620002dc565b604051601f8301601f19908116603f011681019082821181831017156200034c576200034c620002dc565b816040528381526020925086838588010111156200036957600080fd5b600091505b838210156200038d57858201830151818301840152908201906200036e565b600093810190920192909252949350505050565b60008060008060808587031215620003b857600080fd5b84516001600160401b0380821115620003d057600080fd5b620003de88838901620002f2565b95506020870151915080821115620003f557600080fd5b506200040487828801620002f2565b604087015160609097015195989097509350505050565b600181811c908216806200043057607f821691505b6020821081036200045157634e487b7160e01b600052602260045260246000fd5b50919050565b601f821115620004a557600081815260208120601f850160051c81016020861015620004805750805b601f850160051c820191505b81811015620004a1578281556001016200048c565b5050505b505050565b81516001600160401b03811115620004c657620004c6620002dc565b620004de81620004d784546200041b565b8462000457565b602080601f831160018114620005165760008415620004fd5750858301515b600019600386901b1c1916600185901b178555620004a1565b600085815260208120601f198616915b82811015620005475788860151825594840194600190910190840162000526565b5085821015620005665787850151600019600388901b60f8161c191681555b5050505050600190811b01905550565b808201808211156200059857634e487b7160e01b600052601160045260246000fd5b92915050565b610cb880620005ae6000396000f3fe608060405234801561001057600080fd5b506004361061011b5760003560e01c8063715018a6116100b2578063a9059cbb11610081578063dd62ed3e11610066578063dd62ed3e14610236578063f103b4331461026f578063f2fde38b1461028257600080fd5b8063a9059cbb1461021a578063d5abeb011461022d57600080fd5b8063715018a6146101e65780638da5cb5b146101ee57806395d89b4114610209578063a2309ff81461021157600080fd5b8063313ce567116100ee578063313ce5671461018657806340c10f191461019557806342966c68146101aa57806370a08231146101bd57600080fd5b806306fdde0314610120578063095ea7b31461013e57806318160ddd1461016157806323b872dd14610173575b600080fd5b610128610295565b6040516101359190610ae9565b60405180910390f35b61015161014c366004610b53565b610327565b6040519015158152602001610135565b6002545b604051908152602001610135565b610151610181366004610b7d565b610341565b60405160128152602001610135565b6101a86101a3366004610b53565b610365565b005b6101a86101b8366004610bb9565b6104ab565b6101656101cb366004610bd2565b6001600160a01b031660009081526020819052604090205490565b6101a8610567565b6005546040516001600160a01b039091168152602001610135565b61012861057b565b61016560075481565b610151610228366004610b53565b61058a565b61016560065481565b610165610244366004610bf4565b6001600160a01b03918216600090815260016020908152604080832093909416825291909152205490565b6101a861027d366004610bb9565b610598565b6101a8610290366004610bd2565b610626565b6060600380546102a490610c27565b80601f01602080910402602001604051908101604052809291908181526020018280546102d090610c27565b801561031d5780601f106102f25761010080835404028352916020019161031d565b820191906000526020600020905b81548152906001019060200180831161030057829003601f168201915b5050505050905090565b60003361033581858561067a565b60019150505b92915050565b60003361034f85828561068c565b61035a858585610724565b506001949350505050565b61036d610783565b6001600160a01b0382166103c85760405162461bcd60e51b815260206004820152601b60248201527f43616e6e6f74206d696e7420746f207a65726f2061646472657373000000000060448201526064015b60405180910390fd5b600081116104185760405162461bcd60e51b815260206004820181905260248201527f416d6f756e74206d7573742062652067726561746572207468616e207a65726f60448201526064016103bf565b60065415610485576006548161042d60025490565b6104379190610c61565b11156104855760405162461bcd60e51b815260206004820152601f60248201527f4d696e74696e6720776f756c6420657863656564206d617820737570706c790060448201526064016103bf565b80600760008282546104979190610c61565b909155506104a7905082826107c9565b5050565b600081116104fb5760405162461bcd60e51b815260206004820181905260248201527f416d6f756e74206d7573742062652067726561746572207468616e207a65726f60448201526064016103bf565b3360009081526020819052604090205481111561055a5760405162461bcd60e51b815260206004820152601c60248201527f496e73756666696369656e742062616c616e636520746f206275726e0000000060448201526064016103bf565b61056433826107ff565b50565b61056f610783565b6105796000610835565b565b6060600480546102a490610c27565b600033610335818585610724565b6105a0610783565b8015806105af57506002548110155b6106215760405162461bcd60e51b815260206004820152602860248201527f4e6577206d617820737570706c79206d757374206265203e3d2063757272656e60448201527f7420737570706c7900000000000000000000000000000000000000000000000060648201526084016103bf565b600655565b61062e610783565b6001600160a01b038116610671576040517f1e4fbdf7000000000000000000000000000000000000000000000000000000008152600060048201526024016103bf565b61056481610835565b610687838383600161089f565b505050565b6001600160a01b0383811660009081526001602090815260408083209386168352929052205460001981101561071e578181101561070f576040517ffb8f41b20000000000000000000000000000000000000000000000000000000081526001600160a01b038416600482015260248101829052604481018390526064016103bf565b61071e8484848403600061089f565b50505050565b6001600160a01b03831661074e57604051634b637e8f60e11b8152600060048201526024016103bf565b6001600160a01b0382166107785760405163ec442f0560e01b8152600060048201526024016103bf565b6106878383836109a6565b6005546001600160a01b03163314610579576040517f118cdaa70000000000000000000000000000000000000000000000000000000081523360048201526024016103bf565b6001600160a01b0382166107f35760405163ec442f0560e01b8152600060048201526024016103bf565b6104a7600083836109a6565b6001600160a01b03821661082957604051634b637e8f60e11b8152600060048201526024016103bf565b6104a7826000836109a6565b600580546001600160a01b038381167fffffffffffffffffffffffff0000000000000000000000000000000000000000831681179093556040519116919082907f8be0079c531659141344cd1fd0a4f28419497f9722a3daafe3b4186f6b6457e090600090a35050565b6001600160a01b0384166108e2576040517fe602df05000000000000000000000000000000000000000000000000000000008152600060048201526024016103bf565b6001600160a01b038316610925576040517f94280d62000000000000000000000000000000000000000000000000000000008152600060048201526024016103bf565b6001600160a01b038085166000908152600160209081526040808320938716835292905220829055801561071e57826001600160a01b0316846001600160a01b03167f8c5be1e5ebec7d5bd14f71427d1e84f3dd0314c0f7b2291e5b200ac8c7c3b9258460405161099891815260200190565b60405180910390a350505050565b6001600160a01b0383166109d15780600260008282546109c69190610c61565b90915550610a5c9050565b6001600160a01b03831660009081526020819052604090205481811015610a3d576040517fe450d38c0000000000000000000000000000000000000000000000000000000081526001600160a01b038516600482015260248101829052604481018390526064016103bf565b6001600160a01b03841660009081526020819052604090209082900390555b6001600160a01b038216610a7857600280548290039055610a97565b6001600160a01b03821660009081526020819052604090208054820190555b816001600160a01b0316836001600160a01b03167fddf252ad1be2c89b69c2b068fc378daa952ba7f163c4a11628f55a4df523b3ef83604051610adc91815260200190565b60405180910390a3505050565b600060208083528351808285015260005b81811015610b1657858101830151858201604001528201610afa565b506000604082860101526040601f19601f8301168501019250505092915050565b80356001600160a01b0381168114610b4e57600080fd5b919050565b60008060408385031215610b6657600080fd5b610b6f83610b37565b946020939093013593505050565b600080600060608486031215610b9257600080fd5b610b9b84610b37565b9250610ba960208501610b37565b9150604084013590509250925092565b600060208284031215610bcb57600080fd5b5035919050565b600060208284031215610be457600080fd5b610bed82610b37565b9392505050565b60008060408385031215610c0757600080fd5b610c1083610b37565b9150610c1e60208401610b37565b90509250929050565b600181811c90821680610c3b57607f821691505b602082108103610c5b57634e487b7160e01b600052602260045260246000fd5b50919050565b8082018082111561033b57634e487b7160e01b600052601160045260246000fdfea2646970667358221220162268319a769b90ca3e52b371e78446b3b411c603cfebbb2d153bec447c667c64736f6c63430008140033",
  "linkReferences": {},
  "deployedLinkReferences": {}
}