{
  "_format": "hh-sol-artifact-1",
  "contractName": "TestToken",
  "sourceName": "contracts/TestToken.sol",
  "abi": [
    {
      "inputs": [
        {
          "internalType": "string",
          "name": "name",
          "type": "string"
        },
        {
          "internalType": "string",
          "name": "symbol",
          "type": "string"
        },
        {
          "internalType": "uint256",
          "name": "initialSupply",
          "type": "uint256"
        },
        {
          "internalType": "uint256",
          "name": "_maxSupply",
          "type": "uint256"
        }
      ],
      "stateMutability": "nonpayable",
      "type": "constructor"
    },
    {
      "inputs": [],
      "name": "ECDSAInvalidSignature",
      "type": "error"
    },
    {
      "inputs": [
        {
          "internalType": "uint256",
          "name": "length",
          "type": "uint256"
        }
      ],
      "name": "ECDSAInvalidSignatureLength",
      "type": "error"
    },
    {
      "inputs": [
        {
          "internalType": "bytes32",
          "name": "s",
          "type": "bytes32"
        }
      ],
      "name": "ECDSAInvalidSignatureS",
      "type": "error"
    },
    {
      "inputs": [
        {
          "internalType": "address",
          "name": "spender",
          "type": "address"
        },
        {
          "internalType": "uint256",
          "name": "allowance",
          "type": "uint256"
        },
        {
          "internalType": "uint256",
          "name": "needed",
          "type": "uint256"
        }
      ],
      "name": "ERC20InsufficientAllowance",
      "type": "error"
    },
    {
      "inputs": [
        {
          "internalType": "address",
          "name": "sender",
          "type": "address"
        },
        {
          "internalType": "uint256",
          "name": "balance",
          "type": "uint256"
        },
        {
          "internalType": "uint256",
          "name": "needed",
          "type": "uint256"
        }
      ],
      "name": "ERC20InsufficientBalance",
      "type": "error"
    },
    {
      "inputs": [
        {
          "internalType": "address",
          "name": "approver",
          "type": "address"
        }
      ],
      "name": "ERC20InvalidApprover",
      "type": "error"
    },
    {
      "inputs": [
        {
          "internalType": "address",
          "name": "receiver",
          "type": "address"
        }
      ],
      "name": "ERC20InvalidReceiver",
      "type": "error"
    },
    {
      "inputs": [
        {
          "internalType": "address",
          "name": "sender",
          "type": "address"
        }
      ],
      "name": "ERC20InvalidSender",
      "type": "error"
    },
    {
      "inputs": [
        {
          "internalType": "address",
          "name": "spender",
          "type": "address"
        }
      ],
      "name": "ERC20InvalidSpender",
      "type": "error"
    },
    {
      "inputs": [
        {
          "internalType": "uint256",
          "name": "deadline",
          "type": "uint256"
        }
      ],
      "name": "ERC2612ExpiredSignature",
      "type": "error"
    },
    {
      "inputs": [
        {
          "internalType": "address",
          "name": "signer",
          "type": "address"
        },
        {
          "internalType": "address",
          "name": "owner",
          "type": "address"
        }
      ],
      "name": "ERC2612InvalidSigner",
      "type": "error"
    },
    {
      "inputs": [],
      "name": "EnforcedPause",
      "type": "error"
    },
    {
      "inputs": [],
      "name": "ExpectedPause",
      "type": "error"
    },
    {
      "inputs": [
        {
          "internalType": "address",
          "name": "account",
          "type": "address"
        },
        {
          "internalType": "uint256",
          "name": "currentNonce",
          "type": "uint256"
        }
      ],
      "name": "InvalidAccountNonce",
      "type": "error"
    },
    {
      "inputs": [],
      "name": "InvalidShortString",
      "type": "error"
    },
    {
      "inputs": [
        {
          "internalType": "address",
          "name": "owner",
          "type": "address"
        }
      ],
      "name": "OwnableInvalidOwner",
      "type": "error"
    },
    {
      "inputs": [
        {
          "internalType": "address",
          "name": "account",
          "type": "address"
        }
      ],
      "name": "OwnableUnauthorizedAccount",
      "type": "error"
    },
    {
      "inputs": [
        {
          "internalType": "string",
          "name": "str",
          "type": "string"
        }
      ],
      "name": "StringTooLong",
      "type": "error"
    },
    {
      "anonymous": false,
      "inputs": [
        {
          "indexed": true,
          "internalType": "address",
          "name": "owner",
          "type": "address"
        },
        {
          "indexed": true,
          "internalType": "address",
          "name": "spender",
          "type": "address"
        },
        {
          "indexed": false,
          "internalType": "uint256",
          "name": "value",
          "type": "uint256"
        }
      ],
      "name": "Approval",
      "type": "event"
    },
    {
      "anonymous": false,
      "inputs": [],
      "name": "EIP712DomainChanged",
      "type": "event"
    },
    {
      "anonymous": false,
      "inputs": [
        {
          "indexed": true,
          "internalType": "address",
          "name": "previousOwner",
          "type": "address"
        },
        {
          "indexed": true,
          "internalType": "address",
          "name": "newOwner",
          "type": "address"
        }
      ],
      "name": "OwnershipTransferred",
      "type": "event"
    },
    {
      "anonymous": false,
      "inputs": [
        {
          "indexed": false,
          "internalType": "address",
          "name": "account",
          "type": "address"
        }
      ],
      "name": "Paused",
      "type": "event"
    },
    {
      "anonymous": false,
      "inputs": [
        {
          "indexed": true,
          "internalType": "address",
          "name": "from",
          "type": "address"
        },
        {
          "indexed": true,
          "internalType": "address",
          "name": "to",
          "type": "address"
        },
        {
          "indexed": false,
          "internalType": "uint256",
          "name": "value",
          "type": "uint256"
        }
      ],
      "name": "Transfer",
      "type": "event"
    },
    {
      "anonymous": false,
      "inputs": [
        {
          "indexed": false,
          "internalType": "address",
          "name": "account",
          "type": "address"
        }
      ],
      "name": "Unpaused",
      "type": "event"
    },
    {
      "inputs": [],
      "name": "DOMAIN_SEPARATOR",
      "outputs": [
        {
          "internalType": "bytes32",
          "name": "",
          "type": "bytes32"
        }
      ],
      "stateMutability": "view",
      "type": "function"
    },
    {
      "inputs": [
        {
          "internalType": "address",
          "name": "owner",
          "type": "address"
        },
        {
          "internalType": "address",
          "name": "spender",
          "type": "address"
        }
      ],
      "name": "allowance",
      "outputs": [
        {
          "internalType": "uint256",
          "name": "",
          "type": "uint256"
        }
      ],
      "stateMutability": "view",
      "type": "function"
    },
    {
      "inputs": [
        {
          "internalType": "address",
          "name": "spender",
          "type": "address"
        },
        {
          "internalType": "uint256",
          "name": "value",
          "type": "uint256"
        }
      ],
      "name": "approve",
      "outputs": [
        {
          "internalType": "bool",
          "name": "",
          "type": "bool"
        }
      ],
      "stateMutability": "nonpayable",
      "type": "function"
    },
    {
      "inputs": [
        {
          "internalType": "address",
          "name": "account",
          "type": "address"
        }
      ],
      "name": "balanceOf",
      "outputs": [
        {
          "internalType": "uint256",
          "name": "",
          "type": "uint256"
        }
      ],
      "stateMutability": "view",
      "type": "function"
    },
    {
      "inputs": [
        {
          "internalType": "address[]",
          "name": "owners",
          "type": "address[]"
        },
        {
          "internalType": "address[]",
          "name": "spenders",
          "type": "address[]"
        },
        {
          "internalType": "uint256[]",
          "name": "amounts",
          "type": "uint256[]"
        },
        {
          "internalType": "uint256[]",
          "name": "deadlines",
          "type": "uint256[]"
        },
        {
          "internalType": "uint8[]",
          "name": "v",
          "type": "uint8[]"
        },
        {
          "internalType": "bytes32[]",
          "name": "r",
          "type": "bytes32[]"
        },
        {
          "internalType": "bytes32[]",
          "name": "s",
          "type": "bytes32[]"
        }
      ],
      "name": "batchPermit",
      "outputs": [],
      "stateMutability": "nonpayable",
      "type": "function"
    },
    {
      "inputs": [
        {
          "internalType": "uint256",
          "name": "amount",
          "type": "uint256"
        }
      ],
      "name": "burn",
      "outputs": [],
      "stateMutability": "nonpayable",
      "type": "function"
    },
    {
      "inputs": [],
      "name": "decimals",
      "outputs": [
        {
          "internalType": "uint8",
          "name": "",
          "type": "uint8"
        }
      ],
      "stateMutability": "view",
      "type": "function"
    },
    {
      "inputs": [],
      "name": "eip712Domain",
      "outputs": [
        {
          "internalType": "bytes1",
          "name": "fields",
          "type": "bytes1"
        },
        {
          "internalType": "string",
          "name": "name",
          "type": "string"
        },
        {
          "internalType": "string",
          "name": "version",
          "type": "string"
        },
        {
          "internalType": "uint256",
          "name": "chainId",
          "type": "uint256"
        },
        {
          "internalType": "address",
          "name": "verifyingContract",
          "type": "address"
        },
        {
          "internalType": "bytes32",
          "name": "salt",
          "type": "bytes32"
        },
        {
          "internalType": "uint256[]",
          "name": "extensions",
          "type": "uint256[]"
        }
      ],
      "stateMutability": "view",
      "type": "function"
    },
    {
      "inputs": [],
      "name": "getDomainSeparator",
      "outputs": [
        {
          "internalType": "bytes32",
          "name": "",
          "type": "bytes32"
        }
      ],
      "stateMutability": "view",
      "type": "function"
    },
    {
      "inputs": [
        {
          "internalType": "address",
          "name": "owner",
          "type": "address"
        }
      ],
      "name": "getNonce",
      "outputs": [
        {
          "internalType": "uint256",
          "name": "",
          "type": "uint256"
        }
      ],
      "stateMutability": "view",
      "type": "function"
    },
    {
      "inputs": [],
      "name": "maxSupply",
      "outputs": [
        {
          "internalType": "uint256",
          "name": "",
          "type": "uint256"
        }
      ],
      "stateMutability": "view",
      "type": "function"
    },
    {
      "inputs": [
        {
          "internalType": "address",
          "name": "to",
          "type": "address"
        },
        {
          "internalType": "uint256",
          "name": "amount",
          "type": "uint256"
        }
      ],
      "name": "mint",
      "outputs": [],
      "stateMutability": "nonpayable",
      "type": "function"
    },
    {
      "inputs": [],
      "name": "name",
      "outputs": [
        {
          "internalType": "string",
          "name": "",
          "type": "string"
        }
      ],
      "stateMutability": "view",
      "type": "function"
    },
    {
      "inputs": [
        {
          "internalType": "address",
          "name": "owner",
          "type": "address"
        }
      ],
      "name": "nonces",
      "outputs": [
        {
          "internalType": "uint256",
          "name": "",
          "type": "uint256"
        }
      ],
      "stateMutability": "view",
      "type": "function"
    },
    {
      "inputs": [],
      "name": "owner",
      "outputs": [
        {
          "internalType": "address",
          "name": "",
          "type": "address"
        }
      ],
      "stateMutability": "view",
      "type": "function"
    },
    {
      "inputs": [],
      "name": "pause",
      "outputs": [],
      "stateMutability": "nonpayable",
      "type": "function"
    },
    {
      "inputs": [],
      "name": "paused",
      "outputs": [
        {
          "internalType": "bool",
          "name": "",
          "type": "bool"
        }
      ],
      "stateMutability": "view",
      "type": "function"
    },
    {
      "inputs": [
        {
          "internalType": "address",
          "name": "owner",
          "type": "address"
        },
        {
          "internalType": "address",
          "name": "spender",
          "type": "address"
        },
        {
          "internalType": "uint256",
          "name": "value",
          "type": "uint256"
        },
        {
          "internalType": "uint256",
          "name": "deadline",
          "type": "uint256"
        },
        {
          "internalType": "uint8",
          "name": "v",
          "type": "uint8"
        },
        {
          "internalType": "bytes32",
          "name": "r",
          "type": "bytes32"
        },
        {
          "internalType": "bytes32",
          "name": "s",
          "type": "bytes32"
        }
      ],
      "name": "permit",
      "outputs": [],
      "stateMutability": "nonpayable",
      "type": "function"
    },
    {
      "inputs": [
        {
          "internalType": "address",
          "name": "from",
          "type": "address"
        },
        {
          "internalType": "address",
          "name": "to",
          "type": "address"
        },
        {
          "internalType": "uint256",
          "name": "amount",
          "type": "uint256"
        },
        {
          "internalType": "uint256",
          "name": "deadline",
          "type": "uint256"
        },
        {
          "internalType": "uint8",
          "name": "v",
          "type": "uint8"
        },
        {
          "internalType": "bytes32",
          "name": "r",
          "type": "bytes32"
        },
        {
          "internalType": "bytes32",
          "name": "s",
          "type": "bytes32"
        }
      ],
      "name": "permitTransfer",
      "outputs": [],
      "stateMutability": "nonpayable",
      "type": "function"
    },
    {
      "inputs": [],
      "name": "renounceOwnership",
      "outputs": [],
      "stateMutability": "nonpayable",
      "type": "function"
    },
    {
      "inputs": [],
      "name": "symbol",
      "outputs": [
        {
          "internalType": "string",
          "name": "",
          "type": "string"
        }
      ],
      "stateMutability": "view",
      "type": "function"
    },
    {
      "inputs": [],
      "name": "totalMinted",
      "outputs": [
        {
          "internalType": "uint256",
          "name": "",
          "type": "uint256"
        }
      ],
      "stateMutability": "view",
      "type": "function"
    },
    {
      "inputs": [],
      "name": "totalSupply",
      "outputs": [
        {
          "internalType": "uint256",
          "name": "",
          "type": "uint256"
        }
      ],
      "stateMutability": "view",
      "type": "function"
    },
    {
      "inputs": [
        {
          "internalType": "address",
          "name": "to",
          "type": "address"
        },
        {
          "internalType": "uint256",
          "name": "value",
          "type": "uint256"
        }
      ],
      "name": "transfer",
      "outputs": [
        {
          "internalType": "bool",
          "name": "",
          "type": "bool"
        }
      ],
      "stateMutability": "nonpayable",
      "type": "function"
    },
    {
      "inputs": [
        {
          "internalType": "address",
          "name": "from",
          "type": "address"
        },
        {
          "internalType": "address",
          "name": "to",
          "type": "address"
        },
        {
          "internalType": "uint256",
          "name": "value",
          "type": "uint256"
        }
      ],
      "name": "transferFrom",
      "outputs": [
        {
          "internalType": "bool",
          "name": "",
          "type": "bool"
        }
      ],
      "stateMutability": "nonpayable",
      "type": "function"
    },
    {
      "inputs": [
        {
          "internalType": "address",
          "name": "newOwner",
          "type": "address"
        }
      ],
      "name": "transferOwnership",
      "outputs": [],
      "stateMutability": "nonpayable",
      "type": "function"
    },
    {
      "inputs": [],
      "name": "unpause",
      "outputs": [],
      "stateMutability": "nonpayable",
      "type": "function"
    },
    {
      "inputs": [
        {
          "internalType": "uint256",
          "name": "newMaxSupply",
          "type": "uint256"
        }
      ],
      "name": "updateMaxSupply",
      "outputs": [],
      "stateMutability": "nonpayable",
      "type": "function"
    }
  ],
  "bytecode": "0x6101606040818152346200059a576200224a80380380916200002282866200059f565b84398201916080818403126200059a5780516001600160401b0392908381116200059a578462000054918401620005e8565b9160209485820151908582116200059a5762000072918301620005e8565b9460608383015192015195835196848801888110888211176200049957855260019687895283890197603160f81b89528751828111620004995760038054918383811c931680156200058f575b888410146200057957601f928381116200052e575b508088848211600114620004bb57600091620004af575b5060001982841b1c191690841b1781555b855191848311620004995760049687548581811c911680156200048e575b8a82101462000479578281116200042e575b5088918411600114620003c357938394918492600095620003b7575b50501b92600019911b1c19161783555b620001638762000643565b97610120988952620001758a620007e8565b97610140988952858151910120998a60e05251902061010099818b524660a052875191868301917f8b73c3c69bb8fe3d512ecc4cf759cc79239f7b179b0ffacaa9a75d522b39400f83528984015260608301524660808301523060a083015260a0825260c082019282841090841117620003a257828852815190206080523060c05233156200038b57505060088054610100600160a81b031981163380841b610100600160a81b0316919091178355875191939284901c6001600160a01b03167f8be0079c531659141344cd1fd0a4f28419497f9722a3daafe3b4186f6b6457e0600080a381861180159062000382575b15620003375750600955600a84905560ff166200032957600254908382018092116200031457506000917fddf252ad1be2c89b69c2b068fc378daa952ba7f163c4a11628f55a4df523b3ef9160025533835282815284832084815401905584519384523393a3519161190a93846200094085396080518461154c015260a05184611618015260c0518461151d015260e0518461159b015251836115c1015251826105030152518161052c0152f35b601190634e487b7160e01b6000525260246000fd5b835163d93c066560e01b8152fd5b62461bcd60e51b8152838101859052602160248201527f496e697469616c20737570706c792065786365656473206d617820737570706c6044820152607960f81b6064820152608490fd5b50811562000266565b631e4fbdf760e01b8252600060c490910152602490fd5b604185634e487b7160e01b6000525260246000fd5b01519350388062000148565b9190601f1984169288600052848a6000209460005b8c89838310620004165750505010620003fb575b50505050811b01835562000158565b01519060f884600019921b161c1916905538808080620003ec565b868601518955909701969485019488935001620003d8565b88600052896000208380870160051c8201928c88106200046f575b0160051c019086905b828110620004625750506200012c565b6000815501869062000452565b9250819262000449565b602289634e487b7160e01b6000525260246000fd5b90607f16906200011a565b634e487b7160e01b600052604160045260246000fd5b90508b015138620000eb565b8592508c90601f198316856000528b600020928c6000915b8383106200050c575050508311620004f3575b5050811b018155620000fc565b8d015160001983861b60f8161c191690553880620004e6565b948482949597989293960151815501940192019087949392918f8d90620004d3565b82600052886000208480840160051c8201928b85106200056f575b0160051c019085905b82811062000562575050620000d4565b6000815501859062000552565b9250819262000549565b634e487b7160e01b600052602260045260246000fd5b92607f1692620000bf565b600080fd5b601f909101601f19168101906001600160401b038211908210176200049957604052565b60005b838110620005d75750506000910152565b8181015183820152602001620005c6565b81601f820112156200059a5780516001600160401b0381116200049957604051926200061f601f8301601f1916602001856200059f565b818452602082840101116200059a57620006409160208085019101620005c3565b90565b80516020919082811015620006c3575090601f8251116200068157808251920151908083106200067257501790565b82600019910360031b1b161790565b604490620006b59260405193849263305a27a960e01b845280600485015282519283918260248701528686019101620005c3565b601f01601f19168101030190fd5b6001600160401b03811162000499576005928354926001938481811c91168015620007dd575b838210146200057957601f8111620007a6575b5081601f84116001146200073c575092829391839260009462000730575b50501b916000199060031b1c191617905560ff90565b0151925038806200071a565b919083601f1981168760005284600020946000905b888383106200078b575050501062000771575b505050811b01905560ff90565b015160001960f88460031b161c1916905538808062000764565b85870151885590960195948501948793509081019062000751565b8560005284601f846000209201871c820191601f8601881c015b828110620007d0575050620006fc565b60008155018590620007c0565b90607f1690620006e9565b805160209081811015620008155750601f8251116200068157808251920151908083106200067257501790565b906001600160401b0382116200049957600654926001938481811c9116801562000934575b838210146200057957601f8111620008fa575b5081601f84116001146200088e575092829391839260009462000882575b50501b916000199060031b1c19161760065560ff90565b0151925038806200086b565b919083601f198116600660005284600020946000905b88838310620008df5750505010620008c5575b505050811b0160065560ff90565b015160001960f88460031b161c19169055388080620008b7565b858701518855909601959485019487935090810190620008a4565b600660005284601f84600020920160051c820191601f860160051c015b828110620009275750506200084d565b6000815501859062000917565b90607f16906200083a56fe608080604052600436101561001357600080fd5b60003560e01c90816306fdde0314610d7957508063095ea7b314610d5357806318160ddd14610d3557806323b872dd14610cfc5780632d0335ab14610683578063313ce56714610ce05780633644e515146102fc5780633f4ba83a14610c5e57806340c10f1914610b0857806342966c68146109c05780635c975abb1461099d57806365f748881461076957806370a082311461072f578063715018a6146106c35780637ecebe00146106835780638456cb591461062957806384b0196e146104ed5780638da5cb5b146104c357806395d89b41146103dd578063a2309ff8146103bf578063a9059cbb1461038e578063d505accf14610371578063d5abeb0114610353578063dd62ed3e14610301578063ed24911d146102fc578063f065895b146102c7578063f103b433146102225763f2fde38b1461015357600080fd5b3461021d57602036600319011261021d5761016c610e5c565b610174610f23565b6001600160a01b038082169182156101ec5774ffffffffffffffffffffffffffffffffffffffff006008549160081b1674ffffffffffffffffffffffffffffffffffffffff001982161760085560081c167f8be0079c531659141344cd1fd0a4f28419497f9722a3daafe3b4186f6b6457e0600080a3005b60246040517f1e4fbdf700000000000000000000000000000000000000000000000000000000815260006004820152fd5b600080fd5b3461021d57602036600319011261021d5760043561023e610f23565b801580156102bb575b1561025157600955005b608460405162461bcd60e51b815260206004820152602860248201527f4e6577206d617820737570706c79206d757374206265203e3d2063757272656e60448201527f7420737570706c790000000000000000000000000000000000000000000000006064820152fd5b50600254811015610247565b3461021d576102fa6102f56102db36610ed4565b926102ed979497969596929192611864565b873387611242565b610fe2565b005b610e88565b3461021d57604036600319011261021d5761031a610e5c565b610322610e72565b906001600160a01b038091166000526001602052604060002091166000526020526020604060002054604051908152f35b3461021d57600036600319011261021d576020600954604051908152f35b3461021d576102fa61038236610ed4565b95949094939193611242565b3461021d57604036600319011261021d576103b46103aa610e5c565b60243590336110cc565b602060405160018152f35b3461021d57600036600319011261021d576020600a54604051908152f35b3461021d57600036600319011261021d5760405160006004546103ff81610f6a565b8084529060019081811690811561049c5750600114610441575b61043d8461042981860382610fc0565b604051918291602083526020830190610e1c565b0390f35b6004600090815292507f8a35acfbc15ff81a39ae7d344fd709f28e8600b4aa8c65c6b64bfe7fe36bd19b5b82841061048457505050810160200161042982610419565b8054602085870181019190915290930192810161046c565b60ff191660208087019190915292151560051b850190920192506104299150839050610419565b3461021d57600036600319011261021d5760206001600160a01b0360085460081c16604051908152f35b3461021d57600036600319011261021d576105277f000000000000000000000000000000000000000000000000000000000000000061163e565b6105507f0000000000000000000000000000000000000000000000000000000000000000611752565b60405160208082019282841067ffffffffffffffff8511176106135791816105c685946105b89796604052600084526040519788977f0f00000000000000000000000000000000000000000000000000000000000000895260e0858a015260e0890190610e1c565b908782036040890152610e1c565b91466060870152306080870152600060a087015285830360c0870152519182815201929160005b8281106105fc57505050500390f35b8351855286955093810193928101926001016105ed565b634e487b7160e01b600052604160045260246000fd5b3461021d57600036600319011261021d57610642610f23565b61064a611864565b600160ff1960085416176008557f62e78cea01bee320cd4e420270b5ea74000d11b0c9f74754ebdbfc544b05a2586020604051338152a1005b3461021d57602036600319011261021d5760206106bb6106a1610e5c565b6001600160a01b0316600052600760205260406000205490565b604051908152f35b3461021d57600036600319011261021d576106dc610f23565b60006001600160a01b0360085474ffffffffffffffffffffffffffffffffffffffff0019811660085560081c167f8be0079c531659141344cd1fd0a4f28419497f9722a3daafe3b4186f6b6457e08280a3005b3461021d57602036600319011261021d576001600160a01b03610750610e5c565b1660005260006020526020604060002054604051908152f35b3461021d5760e036600319011261021d5767ffffffffffffffff60043581811161021d5761079b903690600401610ea3565b919060243582811161021d576107b5903690600401610ea3565b92909160443582811161021d576107d0903690600401610ea3565b60649491943584811161021d576107eb903690600401610ea3565b919060843586811161021d57610805903690600401610ea3565b9460a43588811161021d5761081e903690600401610ea3565b93909760c435998a1161021d578b9a61083c8e9b3690600401610ea3565b9d909b610847611864565b1480610994575b8061098b575b80610982575b80610979575b80610970575b1561092c5760008e5b811061087757005b8a8f8f8f91908f918d8f918c8f918c8a8f818f918f9261089a838098819361189a565b6108a3906118c0565b9d6108ad9261189a565b6108b6906118c0565b966108c09261189a565b35956108cb9261189a565b35946108d69261189a565b359360ff8516850361021d57888f916108f6826108fd946109049c61189a565b359761189a565b3595611242565b6000198114610916576001018e61086f565b634e487b7160e01b600052601160045260246000fd5b606460405162461bcd60e51b815260206004820152601660248201527f417272617973206c656e677468206d69736d61746368000000000000000000006044820152fd5b508c8614610866565b50858914610860565b5088881461085a565b50878714610854565b50868c1461084e565b3461021d57600036600319011261021d57602060ff600854166040519015158152f35b3461021d5760208060031936011261021d576004356109dd610f23565b6109e5611864565b6109f081151561180c565b33600052600082528060406000205410610ac4573315610a9357610a12611864565b336000526000825260406000205491818310610a6d577fddf252ad1be2c89b69c2b068fc378daa952ba7f163c4a11628f55a4df523b3ef908260009433865285835203604085205582600254036002556040519283523392a3005b5060405163391434e360e21b815233600482015260248101929092526044820152606490fd5b60246040517f96c6fd1e00000000000000000000000000000000000000000000000000000000815260006004820152fd5b6064826040519062461bcd60e51b82526004820152601c60248201527f496e73756666696369656e742062616c616e636520746f206275726e000000006044820152fd5b3461021d57604036600319011261021d57610b21610e5c565b6001600160a01b0360243591610b35610f23565b610b3d611864565b16908115610c1a57610b5081151561180c565b60095480610bbf575b507fddf252ad1be2c89b69c2b068fc378daa952ba7f163c4a11628f55a4df523b3ef602082610b8c600094600a54611857565b600a55610b97611864565b610ba381600254611857565b60025584845283825260408420818154019055604051908152a3005b610bcb82600254611857565b11610bd65782610b59565b606460405162461bcd60e51b815260206004820152601f60248201527f4d696e74696e6720776f756c6420657863656564206d617820737570706c79006044820152fd5b606460405162461bcd60e51b815260206004820152601b60248201527f43616e6e6f74206d696e7420746f207a65726f206164647265737300000000006044820152fd5b3461021d57600036600319011261021d57610c77610f23565b60085460ff811615610cb65760ff19166008557f5db9ee0a495bf2e6ff9c91a7834c1ba4fdd244a5e8aa4e537bd38aeae4b073aa6020604051338152a1005b60046040517f8dfc202b000000000000000000000000000000000000000000000000000000008152fd5b3461021d57600036600319011261021d57602060405160128152f35b3461021d57606036600319011261021d576020610d2b610d1a610e5c565b610d22610e72565b60443591610fe2565b6040519015158152f35b3461021d57600036600319011261021d576020600254604051908152f35b3461021d57604036600319011261021d576103b4610d6f610e5c565b60243590336111b1565b3461021d57600036600319011261021d576000600354610d9881610f6a565b8084529060019081811690811561049c5750600114610dc15761043d8461042981860382610fc0565b6003600090815292507fc2575a0e9e593c00f959f8c92f12db2869c3395a3b0502d05e2516446f71f85b5b828410610e0457505050810160200161042982610419565b80546020858701810191909152909301928101610dec565b919082519283825260005b848110610e48575050826000602080949584010152601f8019910116010190565b602081830181015184830182015201610e27565b600435906001600160a01b038216820361021d57565b602435906001600160a01b038216820361021d57565b3461021d57600036600319011261021d5760206106bb611513565b9181601f8401121561021d5782359167ffffffffffffffff831161021d576020808501948460051b01011161021d57565b60e090600319011261021d576001600160a01b0390600435828116810361021d5791602435908116810361021d5790604435906064359060843560ff8116810361021d579060a4359060c43590565b6001600160a01b0360085460081c163303610f3a57565b60246040517f118cdaa7000000000000000000000000000000000000000000000000000000008152336004820152fd5b90600182811c92168015610f9a575b6020831014610f8457565b634e487b7160e01b600052602260045260246000fd5b91607f1691610f79565b6040810190811067ffffffffffffffff82111761061357604052565b90601f8019910116810190811067ffffffffffffffff82111761061357604052565b9291906001600160a01b038416936000858152600160205260409586822033835260205286822054906000198210611028575b5050506110239394506110cc565b600190565b85821061108e578015611077573315611060576110239697918691845260016020528284203385526020520391205584933880611015565b602483895190634a1406b160e11b82526004820152fd5b60248389519063e602df0560e01b82526004820152fd5b87517ffb8f41b20000000000000000000000000000000000000000000000000000000081523360048201526024810183905260448101879052606490fd5b916001600160a01b03808416928315610a935716928315611180576110ef611864565b6000908382528160205260408220549083821061114e575091604082827fddf252ad1be2c89b69c2b068fc378daa952ba7f163c4a11628f55a4df523b3ef958760209652828652038282205586815220818154019055604051908152a3565b60405163391434e360e21b81526001600160a01b03919091166004820152602481019190915260448101839052606490fd5b60246040517fec442f0500000000000000000000000000000000000000000000000000000000815260006004820152fd5b6001600160a01b0380911691821561122a57169182156112125760207f8c5be1e5ebec7d5bd14f71427d1e84f3dd0314c0f7b2291e5b200ac8c7c3b925918360005260018252604060002085600052825280604060002055604051908152a3565b6024604051634a1406b160e11b815260006004820152fd5b602460405163e602df0560e01b815260006004820152fd5b929695919496939093804211611384576001600160a01b0391828516938460005260076020526040998a9283600020948554956001870190558451958860208801967f6e71edae12b1b97f4d1f60370fef10105fa2faae0126114a169c64845d6126c98852880152878b1660608801528b608088015260a087015260c086015260c0855260e085019480861067ffffffffffffffff871117610613578c61132d956042926113369883525190206112f7611513565b9151917f1901000000000000000000000000000000000000000000000000000000000000835260028301526022820152206113b5565b90929192611445565b169080820361134e57505061134c9394506111b1565b565b604492508651917f4b800e4600000000000000000000000000000000000000000000000000000000835260048301526024820152fd5b602490604051907f627913020000000000000000000000000000000000000000000000000000000082526004820152fd5b91907f7fffffffffffffffffffffffffffffff5d576e7357a4501ddfe92f46681b20a0841161143957926020929160ff608095604051948552168484015260408301526060820152600092839182805260015afa1561142d5780516001600160a01b0381161561142457918190565b50809160019190565b604051903d90823e3d90fd5b50505060009160039190565b60048110156114fd5780611457575050565b600181036114895760046040517ff645eedf000000000000000000000000000000000000000000000000000000008152fd5b600281036114c257602482604051907ffce698f70000000000000000000000000000000000000000000000000000000082526004820152fd5b6003146114cc5750565b602490604051907fd78bce0c0000000000000000000000000000000000000000000000000000000082526004820152fd5b634e487b7160e01b600052602160045260246000fd5b6001600160a01b037f000000000000000000000000000000000000000000000000000000000000000016301480611615575b1561156e577f000000000000000000000000000000000000000000000000000000000000000090565b60405160208101907f8b73c3c69bb8fe3d512ecc4cf759cc79239f7b179b0ffacaa9a75d522b39400f82527f000000000000000000000000000000000000000000000000000000000000000060408201527f000000000000000000000000000000000000000000000000000000000000000060608201524660808201523060a082015260a0815260c0810181811067ffffffffffffffff8211176106135760405251902090565b507f00000000000000000000000000000000000000000000000000000000000000004614611545565b60ff81146116945760ff811690601f821161166a576040519161166083610fa4565b8252602082015290565b60046040517fb3512b0c000000000000000000000000000000000000000000000000000000008152fd5b506040516005548160006116a783610f6a565b8083529260019081811690811561173057506001146116d1575b506116ce92500382610fc0565b90565b6005600090815291507f036b6384b5eca791c62761152d0c79bb0604c104a5fb6f4eb0703f3154bb3db05b84831061171557506116ce9350508101602001386116c1565b819350908160209254838589010152019101909184926116fc565b9050602092506116ce94915060ff191682840152151560051b820101386116c1565b60ff81146117745760ff811690601f821161166a576040519161166083610fa4565b5060405160065481600061178783610f6a565b8083529260019081811690811561173057506001146117ad57506116ce92500382610fc0565b6006600090815291507ff652222313e28459528d920b65115c16c04f3efc82aaedc97be59f3f377c0d3f5b8483106117f157506116ce9350508101602001386116c1565b819350908160209254838589010152019101909184926117d8565b1561181357565b606460405162461bcd60e51b815260206004820152602060248201527f416d6f756e74206d7573742062652067726561746572207468616e207a65726f6044820152fd5b9190820180921161091657565b60ff6008541661187057565b60046040517fd93c0665000000000000000000000000000000000000000000000000000000008152fd5b91908110156118aa5760051b0190565b634e487b7160e01b600052603260045260246000fd5b356001600160a01b038116810361021d579056fea2646970667358221220c596f17c8043034f5a831dc5d3e8e007a743020ae0bb096cd01d0ea4dde63e4764736f6c63430008140033",
  "linkReferences": {},
  "deployedLinkReferences": {}
}