{
  "_format": "hh-sol-artifact-1",
  "contractName": "TestToken",
  "sourceName": "contracts/TestToken.sol",
  "abi": [
    {
      "inputs": [],
      "name": "ECDSAInvalidSignature",
      "type": "error"
    },
    {
      "inputs": [
        {
          "internalType": "uint256",
          "name": "length",
          "type": "uint256"
        }
      ],
      "name": "ECDSAInvalidSignatureLength",
      "type": "error"
    },
    {
      "inputs": [
        {
          "internalType": "bytes32",
          "name": "s",
          "type": "bytes32"
        }
      ],
      "name": "ECDSAInvalidSignatureS",
      "type": "error"
    },
    {
      "inputs": [
        {
          "internalType": "address",
          "name": "spender",
          "type": "address"
        },
        {
          "internalType": "uint256",
          "name": "allowance",
          "type": "uint256"
        },
        {
          "internalType": "uint256",
          "name": "needed",
          "type": "uint256"
        }
      ],
      "name": "ERC20InsufficientAllowance",
      "type": "error"
    },
    {
      "inputs": [
        {
          "internalType": "address",
          "name": "sender",
          "type": "address"
        },
        {
          "internalType": "uint256",
          "name": "balance",
          "type": "uint256"
        },
        {
          "internalType": "uint256",
          "name": "needed",
          "type": "uint256"
        }
      ],
      "name": "ERC20InsufficientBalance",
      "type": "error"
    },
    {
      "inputs": [
        {
          "internalType": "address",
          "name": "approver",
          "type": "address"
        }
      ],
      "name": "ERC20InvalidApprover",
      "type": "error"
    },
    {
      "inputs": [
        {
          "internalType": "address",
          "name": "receiver",
          "type": "address"
        }
      ],
      "name": "ERC20InvalidReceiver",
      "type": "error"
    },
    {
      "inputs": [
        {
          "internalType": "address",
          "name": "sender",
          "type": "address"
        }
      ],
      "name": "ERC20InvalidSender",
      "type": "error"
    },
    {
      "inputs": [
        {
          "internalType": "address",
          "name": "spender",
          "type": "address"
        }
      ],
      "name": "ERC20InvalidSpender",
      "type": "error"
    },
    {
      "inputs": [
        {
          "internalType": "uint256",
          "name": "deadline",
          "type": "uint256"
        }
      ],
      "name": "ERC2612ExpiredSignature",
      "type": "error"
    },
    {
      "inputs": [
        {
          "internalType": "address",
          "name": "signer",
          "type": "address"
        },
        {
          "internalType": "address",
          "name": "owner",
          "type": "address"
        }
      ],
      "name": "ERC2612InvalidSigner",
      "type": "error"
    },
    {
      "inputs": [],
      "name": "EnforcedPause",
      "type": "error"
    },
    {
      "inputs": [],
      "name": "ExpectedPause",
      "type": "error"
    },
    {
      "inputs": [
        {
          "internalType": "address",
          "name": "account",
          "type": "address"
        },
        {
          "internalType": "uint256",
          "name": "currentNonce",
          "type": "uint256"
        }
      ],
      "name": "InvalidAccountNonce",
      "type": "error"
    },
    {
      "inputs": [],
      "name": "InvalidInitialization",
      "type": "error"
    },
    {
      "inputs": [],
      "name": "NotInitializing",
      "type": "error"
    },
    {
      "inputs": [
        {
          "internalType": "address",
          "name": "owner",
          "type": "address"
        }
      ],
      "name": "OwnableInvalidOwner",
      "type": "error"
    },
    {
      "inputs": [
        {
          "internalType": "address",
          "name": "account",
          "type": "address"
        }
      ],
      "name": "OwnableUnauthorizedAccount",
      "type": "error"
    },
    {
      "anonymous": false,
      "inputs": [
        {
          "indexed": true,
          "internalType": "address",
          "name": "owner",
          "type": "address"
        },
        {
          "indexed": true,
          "internalType": "address",
          "name": "spender",
          "type": "address"
        },
        {
          "indexed": false,
          "internalType": "uint256",
          "name": "value",
          "type": "uint256"
        }
      ],
      "name": "Approval",
      "type": "event"
    },
    {
      "anonymous": false,
      "inputs": [],
      "name": "EIP712DomainChanged",
      "type": "event"
    },
    {
      "anonymous": false,
      "inputs": [
        {
          "indexed": false,
          "internalType": "uint64",
          "name": "version",
          "type": "uint64"
        }
      ],
      "name": "Initialized",
      "type": "event"
    },
    {
      "anonymous": false,
      "inputs": [
        {
          "indexed": true,
          "internalType": "address",
          "name": "previousOwner",
          "type": "address"
        },
        {
          "indexed": true,
          "internalType": "address",
          "name": "newOwner",
          "type": "address"
        }
      ],
      "name": "OwnershipTransferred",
      "type": "event"
    },
    {
      "anonymous": false,
      "inputs": [
        {
          "indexed": false,
          "internalType": "address",
          "name": "account",
          "type": "address"
        }
      ],
      "name": "Paused",
      "type": "event"
    },
    {
      "anonymous": false,
      "inputs": [
        {
          "indexed": true,
          "internalType": "address",
          "name": "from",
          "type": "address"
        },
        {
          "indexed": true,
          "internalType": "address",
          "name": "to",
          "type": "address"
        },
        {
          "indexed": false,
          "internalType": "uint256",
          "name": "value",
          "type": "uint256"
        }
      ],
      "name": "Transfer",
      "type": "event"
    },
    {
      "anonymous": false,
      "inputs": [
        {
          "indexed": false,
          "internalType": "address",
          "name": "account",
          "type": "address"
        }
      ],
      "name": "Unpaused",
      "type": "event"
    },
    {
      "inputs": [],
      "name": "DOMAIN_SEPARATOR",
      "outputs": [
        {
          "internalType": "bytes32",
          "name": "",
          "type": "bytes32"
        }
      ],
      "stateMutability": "view",
      "type": "function"
    },
    {
      "inputs": [
        {
          "internalType": "address",
          "name": "owner",
          "type": "address"
        },
        {
          "internalType": "address",
          "name": "spender",
          "type": "address"
        }
      ],
      "name": "allowance",
      "outputs": [
        {
          "internalType": "uint256",
          "name": "",
          "type": "uint256"
        }
      ],
      "stateMutability": "view",
      "type": "function"
    },
    {
      "inputs": [
        {
          "internalType": "address",
          "name": "spender",
          "type": "address"
        },
        {
          "internalType": "uint256",
          "name": "value",
          "type": "uint256"
        }
      ],
      "name": "approve",
      "outputs": [
        {
          "internalType": "bool",
          "name": "",
          "type": "bool"
        }
      ],
      "stateMutability": "nonpayable",
      "type": "function"
    },
    {
      "inputs": [
        {
          "internalType": "address",
          "name": "account",
          "type": "address"
        }
      ],
      "name": "balanceOf",
      "outputs": [
        {
          "internalType": "uint256",
          "name": "",
          "type": "uint256"
        }
      ],
      "stateMutability": "view",
      "type": "function"
    },
    {
      "inputs": [
        {
          "internalType": "address[]",
          "name": "owners",
          "type": "address[]"
        },
        {
          "internalType": "address[]",
          "name": "spenders",
          "type": "address[]"
        },
        {
          "internalType": "uint256[]",
          "name": "amounts",
          "type": "uint256[]"
        },
        {
          "internalType": "uint256[]",
          "name": "deadlines",
          "type": "uint256[]"
        },
        {
          "internalType": "uint8[]",
          "name": "v",
          "type": "uint8[]"
        },
        {
          "internalType": "bytes32[]",
          "name": "r",
          "type": "bytes32[]"
        },
        {
          "internalType": "bytes32[]",
          "name": "s",
          "type": "bytes32[]"
        }
      ],
      "name": "batchPermit",
      "outputs": [],
      "stateMutability": "nonpayable",
      "type": "function"
    },
    {
      "inputs": [
        {
          "internalType": "uint256",
          "name": "amount",
          "type": "uint256"
        }
      ],
      "name": "burn",
      "outputs": [],
      "stateMutability": "nonpayable",
      "type": "function"
    },
    {
      "inputs": [],
      "name": "decimals",
      "outputs": [
        {
          "internalType": "uint8",
          "name": "",
          "type": "uint8"
        }
      ],
      "stateMutability": "view",
      "type": "function"
    },
    {
      "inputs": [],
      "name": "eip712Domain",
      "outputs": [
        {
          "internalType": "bytes1",
          "name": "fields",
          "type": "bytes1"
        },
        {
          "internalType": "string",
          "name": "name",
          "type": "string"
        },
        {
          "internalType": "string",
          "name": "version",
          "type": "string"
        },
        {
          "internalType": "uint256",
          "name": "chainId",
          "type": "uint256"
        },
        {
          "internalType": "address",
          "name": "verifyingContract",
          "type": "address"
        },
        {
          "internalType": "bytes32",
          "name": "salt",
          "type": "bytes32"
        },
        {
          "internalType": "uint256[]",
          "name": "extensions",
          "type": "uint256[]"
        }
      ],
      "stateMutability": "view",
      "type": "function"
    },
    {
      "inputs": [],
      "name": "getDomainSeparator",
      "outputs": [
        {
          "internalType": "bytes32",
          "name": "",
          "type": "bytes32"
        }
      ],
      "stateMutability": "view",
      "type": "function"
    },
    {
      "inputs": [
        {
          "internalType": "address",
          "name": "owner",
          "type": "address"
        }
      ],
      "name": "getNonce",
      "outputs": [
        {
          "internalType": "uint256",
          "name": "",
          "type": "uint256"
        }
      ],
      "stateMutability": "view",
      "type": "function"
    },
    {
      "inputs": [
        {
          "internalType": "string",
          "name": "name",
          "type": "string"
        },
        {
          "internalType": "string",
          "name": "symbol",
          "type": "string"
        },
        {
          "internalType": "uint256",
          "name": "initialSupply",
          "type": "uint256"
        },
        {
          "internalType": "uint256",
          "name": "_maxSupply",
          "type": "uint256"
        },
        {
          "internalType": "address",
          "name": "initialOwner",
          "type": "address"
        }
      ],
      "name": "initialize",
      "outputs": [],
      "stateMutability": "nonpayable",
      "type": "function"
    },
    {
      "inputs": [],
      "name": "maxSupply",
      "outputs": [
        {
          "internalType": "uint256",
          "name": "",
          "type": "uint256"
        }
      ],
      "stateMutability": "view",
      "type": "function"
    },
    {
      "inputs": [
        {
          "internalType": "address",
          "name": "to",
          "type": "address"
        },
        {
          "internalType": "uint256",
          "name": "amount",
          "type": "uint256"
        }
      ],
      "name": "mint",
      "outputs": [],
      "stateMutability": "nonpayable",
      "type": "function"
    },
    {
      "inputs": [],
      "name": "name",
      "outputs": [
        {
          "internalType": "string",
          "name": "",
          "type": "string"
        }
      ],
      "stateMutability": "view",
      "type": "function"
    },
    {
      "inputs": [
        {
          "internalType": "address",
          "name": "owner",
          "type": "address"
        }
      ],
      "name": "nonces",
      "outputs": [
        {
          "internalType": "uint256",
          "name": "",
          "type": "uint256"
        }
      ],
      "stateMutability": "view",
      "type": "function"
    },
    {
      "inputs": [],
      "name": "owner",
      "outputs": [
        {
          "internalType": "address",
          "name": "",
          "type": "address"
        }
      ],
      "stateMutability": "view",
      "type": "function"
    },
    {
      "inputs": [],
      "name": "pause",
      "outputs": [],
      "stateMutability": "nonpayable",
      "type": "function"
    },
    {
      "inputs": [],
      "name": "paused",
      "outputs": [
        {
          "internalType": "bool",
          "name": "",
          "type": "bool"
        }
      ],
      "stateMutability": "view",
      "type": "function"
    },
    {
      "inputs": [
        {
          "internalType": "address",
          "name": "owner",
          "type": "address"
        },
        {
          "internalType": "address",
          "name": "spender",
          "type": "address"
        },
        {
          "internalType": "uint256",
          "name": "value",
          "type": "uint256"
        },
        {
          "internalType": "uint256",
          "name": "deadline",
          "type": "uint256"
        },
        {
          "internalType": "uint8",
          "name": "v",
          "type": "uint8"
        },
        {
          "internalType": "bytes32",
          "name": "r",
          "type": "bytes32"
        },
        {
          "internalType": "bytes32",
          "name": "s",
          "type": "bytes32"
        }
      ],
      "name": "permit",
      "outputs": [],
      "stateMutability": "nonpayable",
      "type": "function"
    },
    {
      "inputs": [
        {
          "internalType": "address",
          "name": "from",
          "type": "address"
        },
        {
          "internalType": "address",
          "name": "to",
          "type": "address"
        },
        {
          "internalType": "uint256",
          "name": "amount",
          "type": "uint256"
        },
        {
          "internalType": "uint256",
          "name": "deadline",
          "type": "uint256"
        },
        {
          "internalType": "uint8",
          "name": "v",
          "type": "uint8"
        },
        {
          "internalType": "bytes32",
          "name": "r",
          "type": "bytes32"
        },
        {
          "internalType": "bytes32",
          "name": "s",
          "type": "bytes32"
        }
      ],
      "name": "permitTransfer",
      "outputs": [],
      "stateMutability": "nonpayable",
      "type": "function"
    },
    {
      "inputs": [],
      "name": "renounceOwnership",
      "outputs": [],
      "stateMutability": "nonpayable",
      "type": "function"
    },
    {
      "inputs": [],
      "name": "symbol",
      "outputs": [
        {
          "internalType": "string",
          "name": "",
          "type": "string"
        }
      ],
      "stateMutability": "view",
      "type": "function"
    },
    {
      "inputs": [],
      "name": "totalMinted",
      "outputs": [
        {
          "internalType": "uint256",
          "name": "",
          "type": "uint256"
        }
      ],
      "stateMutability": "view",
      "type": "function"
    },
    {
      "inputs": [],
      "name": "totalSupply",
      "outputs": [
        {
          "internalType": "uint256",
          "name": "",
          "type": "uint256"
        }
      ],
      "stateMutability": "view",
      "type": "function"
    },
    {
      "inputs": [
        {
          "internalType": "address",
          "name": "to",
          "type": "address"
        },
        {
          "internalType": "uint256",
          "name": "value",
          "type": "uint256"
        }
      ],
      "name": "transfer",
      "outputs": [
        {
          "internalType": "bool",
          "name": "",
          "type": "bool"
        }
      ],
      "stateMutability": "nonpayable",
      "type": "function"
    },
    {
      "inputs": [
        {
          "internalType": "address",
          "name": "from",
          "type": "address"
        },
        {
          "internalType": "address",
          "name": "to",
          "type": "address"
        },
        {
          "internalType": "uint256",
          "name": "value",
          "type": "uint256"
        }
      ],
      "name": "transferFrom",
      "outputs": [
        {
          "internalType": "bool",
          "name": "",
          "type": "bool"
        }
      ],
      "stateMutability": "nonpayable",
      "type": "function"
    },
    {
      "inputs": [
        {
          "internalType": "address",
          "name": "newOwner",
          "type": "address"
        }
      ],
      "name": "transferOwnership",
      "outputs": [],
      "stateMutability": "nonpayable",
      "type": "function"
    },
    {
      "inputs": [],
      "name": "unpause",
      "outputs": [],
      "stateMutability": "nonpayable",
      "type": "function"
    },
    {
      "inputs": [
        {
          "internalType": "uint256",
          "name": "newMaxSupply",
          "type": "uint256"
        }
      ],
      "name": "updateMaxSupply",
      "outputs": [],
      "stateMutability": "nonpayable",
      "type": "function"
    }
  ],
  "bytecode": "0x60808060405234610016576128d9908161001c8239f35b600080fdfe608080604052600436101561001357600080fd5b60003560e01c90816306fdde0314611a3c57508063095ea7b314611a1657806318160ddd146119d957806323b872dd146119a05780632d0335ab146106ef578063313ce5671461198457806333eea18114610dd05780633644e515146102855780633f4ba83a14610d2f57806340c10f1914610c0957806342966c6814610a825780635c975abb14610a4057806365f748881461082957806370a08231146107d0578063715018a6146107485780637ecebe00146106ef5780638456cb591461067657806384b0196e146104e05780638da5cb5b1461049a57806395d89b4114610391578063a2309ff814610373578063a9059cbb14610342578063d505accf14610325578063d5abeb0114610307578063dd62ed3e1461028a578063ed24911d14610285578063f065895b14610252578063f103b4331461018e5763f2fde38b1461015e57600080fd5b346101895760203660031901126101895761018761017a611b47565b61018261244e565b6121f7565b005b600080fd5b34610189576020366003190112610189576004356101aa61244e565b80158015610227575b156101bd57600055005b608460405162461bcd60e51b815260206004820152602860248201527f4e6577206d617820737570706c79206d757374206265203e3d2063757272656e60448201527f7420737570706c790000000000000000000000000000000000000000000000006064820152fd5b507f52c63247e1f47db19d5ce0460030c497f067ca4cebf71ba98eeadabe20bace02548110156101b3565b346101895761018761028061026636611c40565b926102789794979695969291926124b1565b873387612067565b611e74565b611bec565b34610189576040366003190112610189576102a3611b47565b6001600160a01b036102ef6102b6611b5d565b926001600160a01b03166000527f52c63247e1f47db19d5ce0460030c497f067ca4cebf71ba98eeadabe20bace01602052604060002090565b91166000526020526020604060002054604051908152f35b34610189576000366003190112610189576020600054604051908152f35b346101895761018761033636611c40565b95949094939193612067565b346101895760403660031901126101895761036861035e611b47565b60243590336122a2565b602060405160018152f35b34610189576000366003190112610189576020600154604051908152f35b34610189576000366003190112610189576040517f52c63247e1f47db19d5ce0460030c497f067ca4cebf71ba98eeadabe20bace0480548260006103d483611c8f565b928383526020946001918660018216918260001461047857505060011461041c575b505061040492500383611b73565b610418604051928284938452830190611b07565b0390f35b8592506000527f46a2803e59a4de4e7a4c574b1243f25977ac4c77d5a1a4a609b5394cebb4a2aa906000915b858310610460575050610404935082010185806103f6565b80548389018501528794508693909201918101610448565b925093505061040494915060ff191682840152151560051b82010185806103f6565b346101895760003660031901126101895760206001600160a01b037f9016d09d72d40fdae2fd8ceac6b6234c7706214fd39c1cd1e609a0528c1993005416604051908152f35b34610189576000366003190112610189577fa16a46d94261c7517cc8ff89f61c0ce93598e3c849801011dee649a6a557d10054158061064d575b1561060957610527611cc9565b61052f611db3565b60405160208082019282841067ffffffffffffffff8511176105f3579160206105a685946105989796604052600084526040519788977f0f00000000000000000000000000000000000000000000000000000000000000895260e0858a015260e0890190611b07565b908782036040890152611b07565b91466060870152306080870152600060a087015285830360c0870152519182815201929160005b8281106105dc57505050500390f35b8351855286955093810193928101926001016105cd565b634e487b7160e01b600052604160045260246000fd5b606460405162461bcd60e51b815260206004820152601560248201527f4549503731323a20556e696e697469616c697a656400000000000000000000006044820152fd5b507fa16a46d94261c7517cc8ff89f61c0ce93598e3c849801011dee649a6a557d101541561051a565b346101895760003660031901126101895761068f61244e565b6106976124b1565b7fcd5ed15c6e187e77e9aee88184c21f4f2182ab5827cb3b7e07fbedcd63f03300600160ff198254161790557f62e78cea01bee320cd4e420270b5ea74000d11b0c9f74754ebdbfc544b05a2586020604051338152a1005b34610189576020366003190112610189576001600160a01b03610710611b47565b166000527f5ab42ced628888259c08ac98db1eb0cf702fc1501344311d8b100cd1bfe4bb006020526020604060002054604051908152f35b346101895760003660031901126101895761076161244e565b60006001600160a01b037f9016d09d72d40fdae2fd8ceac6b6234c7706214fd39c1cd1e609a0528c19930080549073ffffffffffffffffffffffffffffffffffffffff1982169055167f8be0079c531659141344cd1fd0a4f28419497f9722a3daafe3b4186f6b6457e08280a3005b34610189576020366003190112610189576001600160a01b036107f1611b47565b166000527f52c63247e1f47db19d5ce0460030c497f067ca4cebf71ba98eeadabe20bace006020526020604060002054604051908152f35b346101895760e03660031901126101895767ffffffffffffffff6004358181116101895761085b903690600401611c0f565b9060243583811161018957610874903690600401611c0f565b906044358581116101895761088d903690600401611c0f565b9091606435878111610189576108a7903690600401611c0f565b9092608435898111610189576108c1903690600401611c0f565b9360a4358b8111610189576108da903690600401611c0f565b96909b60c435908111610189576108f5903690600401611c0f565b9a90986109006124b1565b8a8d1480610a37575b80610a2e575b80610a25575b80610a1c575b80610a13575b156109cf5760005b8d811061093257005b8e818f928f908f908f908f908f908f908f908f908f8f908f8f908f928561095c818096819561202d565b61096590612053565b9d61096f9261202d565b61097890612053565b966109829261202d565b359561098d9261202d565b35946109989261202d565b359360ff8516850361018957886109c7986109b9826109c09460019e61202d565b359761202d565b3595612067565b019050610929565b606460405162461bcd60e51b815260206004820152601660248201527f417272617973206c656e677468206d69736d61746368000000000000000000006044820152fd5b508b8914610921565b5088881461091b565b50878714610915565b5086861461090f565b50858b14610909565b3461018957600036600319011261018957602060ff7fcd5ed15c6e187e77e9aee88184c21f4f2182ab5827cb3b7e07fbedcd63f0330054166040519015158152f35b346101895760208060031936011261018957600435610a9f61244e565b610aa76124b1565b610ab2811515611fbf565b336000527f52c63247e1f47db19d5ce0460030c497f067ca4cebf71ba98eeadabe20bace00918281528160406000205410610bc5573315610b9457610af56124b1565b3360005282815260406000205492828410610b6e5790826000947fddf252ad1be2c89b69c2b068fc378daa952ba7f163c4a11628f55a4df523b3ef9333875283520360408520557f52c63247e1f47db19d5ce0460030c497f067ca4cebf71ba98eeadabe20bace028381540390556040519283523392a3005b60405163391434e360e21b81523360048201526024810185905260448101849052606490fd5b60246040517f96c6fd1e00000000000000000000000000000000000000000000000000000000815260006004820152fd5b6064906040519062461bcd60e51b82526004820152601c60248201527f496e73756666696369656e742062616c616e636520746f206275726e000000006044820152fd5b3461018957604036600319011261018957610c22611b47565b602435610c2d61244e565b610c356124b1565b6001600160a01b03821615610ceb57610c4f811515611fbf565b60005480610c71575b5061018791610c698260015461200a565b6001556123a9565b610c9c827f52c63247e1f47db19d5ce0460030c497f067ca4cebf71ba98eeadabe20bace025461200a565b11610ca75782610c58565b606460405162461bcd60e51b815260206004820152601f60248201527f4d696e74696e6720776f756c6420657863656564206d617820737570706c79006044820152fd5b606460405162461bcd60e51b815260206004820152601b60248201527f43616e6e6f74206d696e7420746f207a65726f206164647265737300000000006044820152fd5b3461018957600036600319011261018957610d4861244e565b7fcd5ed15c6e187e77e9aee88184c21f4f2182ab5827cb3b7e07fbedcd63f03300805460ff811615610da65760ff191690557f5db9ee0a495bf2e6ff9c91a7834c1ba4fdd244a5e8aa4e537bd38aeae4b073aa6020604051338152a1005b60046040517f8dfc202b000000000000000000000000000000000000000000000000000000008152fd5b346101895760a03660031901126101895760043567ffffffffffffffff811161018957610e01903690600401611b95565b60243567ffffffffffffffff811161018957610e21903690600401611b95565b6001600160a01b0360843516918260843503610189577ff0c57e16840df040f15088dc2f81fe391c3923bec73e23a9662efc9c229c6a00549267ffffffffffffffff841680159081611974575b600114908161196a575b159081611961575b5061193757600167ffffffffffffffff198516177ff0c57e16840df040f15088dc2f81fe391c3923bec73e23a9662efc9c229c6a005560ff8460401c16156118f8575b606435604435118015906118ee575b15611884571561181b57610ee46125c7565b610eec6125c7565b80519267ffffffffffffffff84116105f357610f287f52c63247e1f47db19d5ce0460030c497f067ca4cebf71ba98eeadabe20bace0354611c8f565b601f811161175d575b50602093601f811160011461169a57809192939460009161168f575b508160011b916000199060031b1c1916177f52c63247e1f47db19d5ce0460030c497f067ca4cebf71ba98eeadabe20bace03555b825167ffffffffffffffff81116105f357610fbc7f52c63247e1f47db19d5ce0460030c497f067ca4cebf71ba98eeadabe20bace0454611c8f565b601f81116115d1575b506020601f821160011461150f5781929394600092611504575b50508160011b916000199060031b1c1916177f52c63247e1f47db19d5ce0460030c497f067ca4cebf71ba98eeadabe20bace04555b61101c6125c7565b604051906040820182811067ffffffffffffffff8211176105f357604052600182527f3100000000000000000000000000000000000000000000000000000000000000602083015261106c6125c7565b825167ffffffffffffffff81116105f3576110a77fa16a46d94261c7517cc8ff89f61c0ce93598e3c849801011dee649a6a557d10254611c8f565b601f8111611446575b506020601f82116001146113845781929394600092611379575b50508160011b916000199060031b1c1916177fa16a46d94261c7517cc8ff89f61c0ce93598e3c849801011dee649a6a557d102555b81519167ffffffffffffffff83116105f3577fa16a46d94261c7517cc8ff89f61c0ce93598e3c849801011dee649a6a557d1039061113d8254611c8f565b601f8111611315575b50602090601f851160011461128f5760ff949160009183611284575b50508160011b916000199060031b1c19161790555b60007fa16a46d94261c7517cc8ff89f61c0ce93598e3c849801011dee649a6a557d1005560007fa16a46d94261c7517cc8ff89f61c0ce93598e3c849801011dee649a6a557d101556111c76125c7565b6111cf6125c7565b6111da6084356121f7565b6111e26125c7565b6064356000556044356001556111fc6044356084356123a9565b60401c161561120757005b68ff0000000000000000197ff0c57e16840df040f15088dc2f81fe391c3923bec73e23a9662efc9c229c6a0054167ff0c57e16840df040f15088dc2f81fe391c3923bec73e23a9662efc9c229c6a00557fc7f505b2f371ae2175ee4913f4499e1f2633a7b5936321eed1cdaeb6115181d2602060405160018152a1005b015190508580611162565b90601f19851691836000527f5f9ce34815f8e11431c7bb75a8e6886a91478f7ffc1dbb0a98dc240fddd76b759260005b8181106112fd575091600193918760ff9894106112e4575b505050811b019055611177565b015160001960f88460031b161c191690558580806112d7565b929360206001819287860151815501950193016112bf565b826000527f5f9ce34815f8e11431c7bb75a8e6886a91478f7ffc1dbb0a98dc240fddd76b75601f860160051c8101916020871061136f575b601f0160051c01905b8181106113635750611146565b60008155600101611356565b909150819061134d565b0151905084806110ca565b601f198216907fa16a46d94261c7517cc8ff89f61c0ce93598e3c849801011dee649a6a557d1026000527f42ad5d3e1f2e6e70edcf6d991b8a3023d3fca8047a131592f9edb9fd9b89d57d9160005b81811061142e57509583600195969710611415575b505050811b017fa16a46d94261c7517cc8ff89f61c0ce93598e3c849801011dee649a6a557d102556110ff565b015160001960f88460031b161c191690558480806113e8565b9192602060018192868b0151815501940192016113d3565b7fa16a46d94261c7517cc8ff89f61c0ce93598e3c849801011dee649a6a557d102600052601f820160051c7f42ad5d3e1f2e6e70edcf6d991b8a3023d3fca8047a131592f9edb9fd9b89d57d01602083106114dd575b601f820160051c7f42ad5d3e1f2e6e70edcf6d991b8a3023d3fca8047a131592f9edb9fd9b89d57d0181106114d157506110b0565b6000815560010161149c565b507f42ad5d3e1f2e6e70edcf6d991b8a3023d3fca8047a131592f9edb9fd9b89d57d61149c565b015190508480610fdf565b601f198216907f52c63247e1f47db19d5ce0460030c497f067ca4cebf71ba98eeadabe20bace046000527f46a2803e59a4de4e7a4c574b1243f25977ac4c77d5a1a4a609b5394cebb4a2aa9160005b8181106115b9575095836001959697106115a0575b505050811b017f52c63247e1f47db19d5ce0460030c497f067ca4cebf71ba98eeadabe20bace0455611014565b015160001960f88460031b161c19169055848080611573565b9192602060018192868b01518155019401920161155e565b7f52c63247e1f47db19d5ce0460030c497f067ca4cebf71ba98eeadabe20bace04600052601f820160051c7f46a2803e59a4de4e7a4c574b1243f25977ac4c77d5a1a4a609b5394cebb4a2aa0160208310611668575b601f820160051c7f46a2803e59a4de4e7a4c574b1243f25977ac4c77d5a1a4a609b5394cebb4a2aa01811061165c5750610fc5565b60008155600101611627565b507f46a2803e59a4de4e7a4c574b1243f25977ac4c77d5a1a4a609b5394cebb4a2aa611627565b905083015185610f4d565b7f52c63247e1f47db19d5ce0460030c497f067ca4cebf71ba98eeadabe20bace036000527f2ae08a8e29253f69ac5d979a101956ab8f8d9d7ded63fa7a83b16fc47648eab060005b601f1983168110611745575060019293949582601f1981161061172c575b5050811b017f52c63247e1f47db19d5ce0460030c497f067ca4cebf71ba98eeadabe20bace0355610f81565b85015160001960f88460031b161c191690558580611700565b848701518255602096870196600190920191016116e2565b7f52c63247e1f47db19d5ce0460030c497f067ca4cebf71ba98eeadabe20bace03600052601f850160051c7f2ae08a8e29253f69ac5d979a101956ab8f8d9d7ded63fa7a83b16fc47648eab001602086106117f4575b601f820160051c7f2ae08a8e29253f69ac5d979a101956ab8f8d9d7ded63fa7a83b16fc47648eab00181106117e85750610f31565b600081556001016117b3565b507f2ae08a8e29253f69ac5d979a101956ab8f8d9d7ded63fa7a83b16fc47648eab06117b3565b608460405162461bcd60e51b8152602060048201526024808201527f496e697469616c206f776e65722063616e6e6f74206265207a65726f2061646460448201527f72657373000000000000000000000000000000000000000000000000000000006064820152fd5b608460405162461bcd60e51b815260206004820152602160248201527f496e697469616c20737570706c792065786365656473206d617820737570706c60448201527f79000000000000000000000000000000000000000000000000000000000000006064820152fd5b5060643515610ed2565b68ffffffffffffffffff19841668010000000000000001177ff0c57e16840df040f15088dc2f81fe391c3923bec73e23a9662efc9c229c6a0055610ec3565b60046040517ff92ee8a9000000000000000000000000000000000000000000000000000000008152fd5b90501585610e80565b303b159150610e78565b604086901c60ff16159150610e6e565b3461018957600036600319011261018957602060405160128152f35b346101895760603660031901126101895760206119cf6119be611b47565b6119c6611b5d565b60443591611e74565b6040519015158152f35b346101895760003660031901126101895760207f52c63247e1f47db19d5ce0460030c497f067ca4cebf71ba98eeadabe20bace0254604051908152f35b3461018957604036600319011261018957610368611a32611b47565b6024359033612506565b34610189576000366003190112610189577f52c63247e1f47db19d5ce0460030c497f067ca4cebf71ba98eeadabe20bace038054826000611a7c83611c8f565b9283835260209460019186600182169182600014610478575050600114611aab57505061040492500383611b73565b8592506000527f2ae08a8e29253f69ac5d979a101956ab8f8d9d7ded63fa7a83b16fc47648eab0906000915b858310611aef575050610404935082010185806103f6565b80548389018501528794508693909201918101611ad7565b919082519283825260005b848110611b33575050826000602080949584010152601f8019910116010190565b602081830181015184830182015201611b12565b600435906001600160a01b038216820361018957565b602435906001600160a01b038216820361018957565b90601f8019910116810190811067ffffffffffffffff8211176105f357604052565b81601f820112156101895780359067ffffffffffffffff82116105f35760405192611bca601f8401601f191660200185611b73565b8284526020838301011161018957816000926020809301838601378301015290565b34610189576000366003190112610189576020611c07612620565b604051908152f35b9181601f840112156101895782359167ffffffffffffffff8311610189576020808501948460051b01011161018957565b60e0906003190112610189576001600160a01b03906004358281168103610189579160243590811681036101895790604435906064359060843560ff81168103610189579060a4359060c43590565b90600182811c92168015611cbf575b6020831014611ca957565b634e487b7160e01b600052602260045260246000fd5b91607f1691611c9e565b604051906000827fa16a46d94261c7517cc8ff89f61c0ce93598e3c849801011dee649a6a557d10291825492611cfe84611c8f565b80845293602091600191828116908115611d8d5750600114611d2c575b505050611d2a92500383611b73565b565b60009081527f42ad5d3e1f2e6e70edcf6d991b8a3023d3fca8047a131592f9edb9fd9b89d57d9590935091905b828410611d755750611d2a945050508101602001388080611d1b565b85548885018301529485019487945092810192611d59565b9250505060209250611d2a94915060ff191682840152151560051b820101388080611d1b565b604051906000827fa16a46d94261c7517cc8ff89f61c0ce93598e3c849801011dee649a6a557d10391825492611de884611c8f565b80845293602091600191828116908115611d8d5750600114611e1357505050611d2a92500383611b73565b60009081527f5f9ce34815f8e11431c7bb75a8e6886a91478f7ffc1dbb0a98dc240fddd76b759590935091905b828410611e5c5750611d2a945050508101602001388080611d1b565b85548885018301529485019487945092810192611e40565b929190611eb3846001600160a01b03166000527f52c63247e1f47db19d5ce0460030c497f067ca4cebf71ba98eeadabe20bace01602052604060002090565b9360009433865260205260408520546000198110611edd575b50611ed89394506122a2565b600190565b838110611f7f576001600160a01b03821615611f67573315611f4f5794604084611ed89697611f3e856001600160a01b03166000527f52c63247e1f47db19d5ce0460030c497f067ca4cebf71ba98eeadabe20bace01602052604060002090565b338552602052039120558493611ecc565b60248660405190634a1406b160e11b82526004820152fd5b6024866040519063e602df0560e01b82526004820152fd5b6040517ffb8f41b2000000000000000000000000000000000000000000000000000000008152336004820152602481019190915260448101849052606490fd5b15611fc657565b606460405162461bcd60e51b815260206004820152602060248201527f416d6f756e74206d7573742062652067726561746572207468616e207a65726f6044820152fd5b9190820180921161201757565b634e487b7160e01b600052601160045260246000fd5b919081101561203d5760051b0190565b634e487b7160e01b600052603260045260246000fd5b356001600160a01b03811681036101895790565b9296959194969390938042116121c6576001600160a01b039182851693846000527f5ab42ced628888259c08ac98db1eb0cf702fc1501344311d8b100cd1bfe4bb006020526040998a9283600020948554956001870190558451958860208801967f6e71edae12b1b97f4d1f60370fef10105fa2faae0126114a169c64845d6126c98852880152878b1660608801528b608088015260a087015260c086015260c0855260e085019480861067ffffffffffffffff8711176105f3578c6121719560429261217a98835251902061213b612620565b9151917f190100000000000000000000000000000000000000000000000000000000000083526002830152602282015220612696565b90929192612726565b1690808203612190575050611d2a939450612506565b604492508651917f4b800e4600000000000000000000000000000000000000000000000000000000835260048301526024820152fd5b602490604051907f627913020000000000000000000000000000000000000000000000000000000082526004820152fd5b6001600160a01b03809116908115612271577f9016d09d72d40fdae2fd8ceac6b6234c7706214fd39c1cd1e609a0528c1993008054908373ffffffffffffffffffffffffffffffffffffffff198316179055167f8be0079c531659141344cd1fd0a4f28419497f9722a3daafe3b4186f6b6457e0600080a3565b60246040517f1e4fbdf700000000000000000000000000000000000000000000000000000000815260006004820152fd5b916001600160a01b03808416928315610b945716928315612378576122c56124b1565b6000908382527f52c63247e1f47db19d5ce0460030c497f067ca4cebf71ba98eeadabe20bace0080602052604083205491848310612345575082847fddf252ad1be2c89b69c2b068fc378daa952ba7f163c4a11628f55a4df523b3ef959360409388602097528652038282205586815220818154019055604051908152a3565b60405163391434e360e21b81526001600160a01b0391909116600482015260248101929092525060448101839052606490fd5b60246040517fec442f0500000000000000000000000000000000000000000000000000000000815260006004820152fd5b6001600160a01b0316908115612378577fddf252ad1be2c89b69c2b068fc378daa952ba7f163c4a11628f55a4df523b3ef60206000926123e76124b1565b7f52c63247e1f47db19d5ce0460030c497f067ca4cebf71ba98eeadabe20bace0261241382825461200a565b90558484527f52c63247e1f47db19d5ce0460030c497f067ca4cebf71ba98eeadabe20bace00825260408420818154019055604051908152a3565b6001600160a01b037f9016d09d72d40fdae2fd8ceac6b6234c7706214fd39c1cd1e609a0528c1993005416330361248157565b60246040517f118cdaa7000000000000000000000000000000000000000000000000000000008152336004820152fd5b60ff7fcd5ed15c6e187e77e9aee88184c21f4f2182ab5827cb3b7e07fbedcd63f0330054166124dc57565b60046040517fd93c0665000000000000000000000000000000000000000000000000000000008152fd5b916001600160a01b038084169283156125af5716928315612597577f8c5be1e5ebec7d5bd14f71427d1e84f3dd0314c0f7b2291e5b200ac8c7c3b925916125816020926001600160a01b03166000527f52c63247e1f47db19d5ce0460030c497f067ca4cebf71ba98eeadabe20bace01602052604060002090565b85600052825280604060002055604051908152a3565b6024604051634a1406b160e11b815260006004820152fd5b602460405163e602df0560e01b815260006004820152fd5b60ff7ff0c57e16840df040f15088dc2f81fe391c3923bec73e23a9662efc9c229c6a005460401c16156125f657565b60046040517fd7e6bcf8000000000000000000000000000000000000000000000000000000008152fd5b6126286127f4565b61263061285e565b6040519060208201927f8b73c3c69bb8fe3d512ecc4cf759cc79239f7b179b0ffacaa9a75d522b39400f8452604083015260608201524660808201523060a082015260a0815260c0810181811067ffffffffffffffff8211176105f35760405251902090565b91907f7fffffffffffffffffffffffffffffff5d576e7357a4501ddfe92f46681b20a0841161271a57926020929160ff608095604051948552168484015260408301526060820152600092839182805260015afa1561270e5780516001600160a01b0381161561270557918190565b50809160019190565b604051903d90823e3d90fd5b50505060009160039190565b60048110156127de5780612738575050565b6001810361276a5760046040517ff645eedf000000000000000000000000000000000000000000000000000000008152fd5b600281036127a357602482604051907ffce698f70000000000000000000000000000000000000000000000000000000082526004820152fd5b6003146127ad5750565b602490604051907fd78bce0c0000000000000000000000000000000000000000000000000000000082526004820152fd5b634e487b7160e01b600052602160045260246000fd5b6127fc611cc9565b805190811561280c576020012090565b50507fa16a46d94261c7517cc8ff89f61c0ce93598e3c849801011dee649a6a557d1005480156128395790565b507fc5d2460186f7233c927e7db2dcc703c0e500b653ca82273b7bfad8045d85a47090565b612866611db3565b8051908115612876576020012090565b50507fa16a46d94261c7517cc8ff89f61c0ce93598e3c849801011dee649a6a557d101548015612839579056fea26469706673582212206c2724dc9674711569a1323617333bb9a12ff95dcd59d80b6992132a5ee539eb64736f6c63430008160033",
  "linkReferences": {},
  "deployedLinkReferences": {}
}