{
  "_format": "hh-sol-artifact-1",
  "contractName": "TestToken",
  "sourceName": "contracts/TestToken.sol",
  "abi": [
    {
      "inputs": [
        {
          "internalType": "string",
          "name": "name",
          "type": "string"
        },
        {
          "internalType": "string",
          "name": "symbol",
          "type": "string"
        },
        {
          "internalType": "uint256",
          "name": "initialSupply",
          "type": "uint256"
        }
      ],
      "stateMutability": "nonpayable",
      "type": "constructor"
    },
    {
      "inputs": [],
      "name": "ECDSAInvalidSignature",
      "type": "error"
    },
    {
      "inputs": [
        {
          "internalType": "uint256",
          "name": "length",
          "type": "uint256"
        }
      ],
      "name": "ECDSAInvalidSignatureLength",
      "type": "error"
    },
    {
      "inputs": [
        {
          "internalType": "bytes32",
          "name": "s",
          "type": "bytes32"
        }
      ],
      "name": "ECDSAInvalidSignatureS",
      "type": "error"
    },
    {
      "inputs": [
        {
          "internalType": "address",
          "name": "spender",
          "type": "address"
        },
        {
          "internalType": "uint256",
          "name": "allowance",
          "type": "uint256"
        },
        {
          "internalType": "uint256",
          "name": "needed",
          "type": "uint256"
        }
      ],
      "name": "ERC20InsufficientAllowance",
      "type": "error"
    },
    {
      "inputs": [
        {
          "internalType": "address",
          "name": "sender",
          "type": "address"
        },
        {
          "internalType": "uint256",
          "name": "balance",
          "type": "uint256"
        },
        {
          "internalType": "uint256",
          "name": "needed",
          "type": "uint256"
        }
      ],
      "name": "ERC20InsufficientBalance",
      "type": "error"
    },
    {
      "inputs": [
        {
          "internalType": "address",
          "name": "approver",
          "type": "address"
        }
      ],
      "name": "ERC20InvalidApprover",
      "type": "error"
    },
    {
      "inputs": [
        {
          "internalType": "address",
          "name": "receiver",
          "type": "address"
        }
      ],
      "name": "ERC20InvalidReceiver",
      "type": "error"
    },
    {
      "inputs": [
        {
          "internalType": "address",
          "name": "sender",
          "type": "address"
        }
      ],
      "name": "ERC20InvalidSender",
      "type": "error"
    },
    {
      "inputs": [
        {
          "internalType": "address",
          "name": "spender",
          "type": "address"
        }
      ],
      "name": "ERC20InvalidSpender",
      "type": "error"
    },
    {
      "inputs": [
        {
          "internalType": "uint256",
          "name": "deadline",
          "type": "uint256"
        }
      ],
      "name": "ERC2612ExpiredSignature",
      "type": "error"
    },
    {
      "inputs": [
        {
          "internalType": "address",
          "name": "signer",
          "type": "address"
        },
        {
          "internalType": "address",
          "name": "owner",
          "type": "address"
        }
      ],
      "name": "ERC2612InvalidSigner",
      "type": "error"
    },
    {
      "inputs": [],
      "name": "EnforcedPause",
      "type": "error"
    },
    {
      "inputs": [],
      "name": "ExpectedPause",
      "type": "error"
    },
    {
      "inputs": [
        {
          "internalType": "address",
          "name": "account",
          "type": "address"
        },
        {
          "internalType": "uint256",
          "name": "currentNonce",
          "type": "uint256"
        }
      ],
      "name": "InvalidAccountNonce",
      "type": "error"
    },
    {
      "inputs": [],
      "name": "InvalidShortString",
      "type": "error"
    },
    {
      "inputs": [
        {
          "internalType": "address",
          "name": "owner",
          "type": "address"
        }
      ],
      "name": "OwnableInvalidOwner",
      "type": "error"
    },
    {
      "inputs": [
        {
          "internalType": "address",
          "name": "account",
          "type": "address"
        }
      ],
      "name": "OwnableUnauthorizedAccount",
      "type": "error"
    },
    {
      "inputs": [
        {
          "internalType": "string",
          "name": "str",
          "type": "string"
        }
      ],
      "name": "StringTooLong",
      "type": "error"
    },
    {
      "anonymous": false,
      "inputs": [
        {
          "indexed": true,
          "internalType": "address",
          "name": "owner",
          "type": "address"
        },
        {
          "indexed": true,
          "internalType": "address",
          "name": "spender",
          "type": "address"
        },
        {
          "indexed": false,
          "internalType": "uint256",
          "name": "value",
          "type": "uint256"
        }
      ],
      "name": "Approval",
      "type": "event"
    },
    {
      "anonymous": false,
      "inputs": [],
      "name": "EIP712DomainChanged",
      "type": "event"
    },
    {
      "anonymous": false,
      "inputs": [
        {
          "indexed": true,
          "internalType": "address",
          "name": "previousOwner",
          "type": "address"
        },
        {
          "indexed": true,
          "internalType": "address",
          "name": "newOwner",
          "type": "address"
        }
      ],
      "name": "OwnershipTransferred",
      "type": "event"
    },
    {
      "anonymous": false,
      "inputs": [
        {
          "indexed": false,
          "internalType": "address",
          "name": "account",
          "type": "address"
        }
      ],
      "name": "Paused",
      "type": "event"
    },
    {
      "anonymous": false,
      "inputs": [
        {
          "indexed": true,
          "internalType": "address",
          "name": "from",
          "type": "address"
        },
        {
          "indexed": true,
          "internalType": "address",
          "name": "to",
          "type": "address"
        },
        {
          "indexed": false,
          "internalType": "uint256",
          "name": "value",
          "type": "uint256"
        }
      ],
      "name": "Transfer",
      "type": "event"
    },
    {
      "anonymous": false,
      "inputs": [
        {
          "indexed": false,
          "internalType": "address",
          "name": "account",
          "type": "address"
        }
      ],
      "name": "Unpaused",
      "type": "event"
    },
    {
      "inputs": [],
      "name": "DOMAIN_SEPARATOR",
      "outputs": [
        {
          "internalType": "bytes32",
          "name": "",
          "type": "bytes32"
        }
      ],
      "stateMutability": "view",
      "type": "function"
    },
    {
      "inputs": [
        {
          "internalType": "address",
          "name": "owner",
          "type": "address"
        },
        {
          "internalType": "address",
          "name": "spender",
          "type": "address"
        }
      ],
      "name": "allowance",
      "outputs": [
        {
          "internalType": "uint256",
          "name": "",
          "type": "uint256"
        }
      ],
      "stateMutability": "view",
      "type": "function"
    },
    {
      "inputs": [
        {
          "internalType": "address",
          "name": "spender",
          "type": "address"
        },
        {
          "internalType": "uint256",
          "name": "value",
          "type": "uint256"
        }
      ],
      "name": "approve",
      "outputs": [
        {
          "internalType": "bool",
          "name": "",
          "type": "bool"
        }
      ],
      "stateMutability": "nonpayable",
      "type": "function"
    },
    {
      "inputs": [
        {
          "internalType": "address",
          "name": "account",
          "type": "address"
        }
      ],
      "name": "balanceOf",
      "outputs": [
        {
          "internalType": "uint256",
          "name": "",
          "type": "uint256"
        }
      ],
      "stateMutability": "view",
      "type": "function"
    },
    {
      "inputs": [
        {
          "internalType": "address[]",
          "name": "owners",
          "type": "address[]"
        },
        {
          "internalType": "address[]",
          "name": "spenders",
          "type": "address[]"
        },
        {
          "internalType": "uint256[]",
          "name": "amounts",
          "type": "uint256[]"
        },
        {
          "internalType": "uint256[]",
          "name": "deadlines",
          "type": "uint256[]"
        },
        {
          "internalType": "uint8[]",
          "name": "v",
          "type": "uint8[]"
        },
        {
          "internalType": "bytes32[]",
          "name": "r",
          "type": "bytes32[]"
        },
        {
          "internalType": "bytes32[]",
          "name": "s",
          "type": "bytes32[]"
        }
      ],
      "name": "batchPermit",
      "outputs": [],
      "stateMutability": "nonpayable",
      "type": "function"
    },
    {
      "inputs": [
        {
          "internalType": "uint256",
          "name": "amount",
          "type": "uint256"
        }
      ],
      "name": "burn",
      "outputs": [],
      "stateMutability": "nonpayable",
      "type": "function"
    },
    {
      "inputs": [],
      "name": "decimals",
      "outputs": [
        {
          "internalType": "uint8",
          "name": "",
          "type": "uint8"
        }
      ],
      "stateMutability": "view",
      "type": "function"
    },
    {
      "inputs": [],
      "name": "eip712Domain",
      "outputs": [
        {
          "internalType": "bytes1",
          "name": "fields",
          "type": "bytes1"
        },
        {
          "internalType": "string",
          "name": "name",
          "type": "string"
        },
        {
          "internalType": "string",
          "name": "version",
          "type": "string"
        },
        {
          "internalType": "uint256",
          "name": "chainId",
          "type": "uint256"
        },
        {
          "internalType": "address",
          "name": "verifyingContract",
          "type": "address"
        },
        {
          "internalType": "bytes32",
          "name": "salt",
          "type": "bytes32"
        },
        {
          "internalType": "uint256[]",
          "name": "extensions",
          "type": "uint256[]"
        }
      ],
      "stateMutability": "view",
      "type": "function"
    },
    {
      "inputs": [],
      "name": "getDomainSeparator",
      "outputs": [
        {
          "internalType": "bytes32",
          "name": "",
          "type": "bytes32"
        }
      ],
      "stateMutability": "view",
      "type": "function"
    },
    {
      "inputs": [
        {
          "internalType": "address",
          "name": "owner",
          "type": "address"
        }
      ],
      "name": "getNonce",
      "outputs": [
        {
          "internalType": "uint256",
          "name": "",
          "type": "uint256"
        }
      ],
      "stateMutability": "view",
      "type": "function"
    },
    {
      "inputs": [
        {
          "internalType": "address",
          "name": "to",
          "type": "address"
        },
        {
          "internalType": "uint256",
          "name": "amount",
          "type": "uint256"
        }
      ],
      "name": "mint",
      "outputs": [],
      "stateMutability": "nonpayable",
      "type": "function"
    },
    {
      "inputs": [],
      "name": "name",
      "outputs": [
        {
          "internalType": "string",
          "name": "",
          "type": "string"
        }
      ],
      "stateMutability": "view",
      "type": "function"
    },
    {
      "inputs": [
        {
          "internalType": "address",
          "name": "owner",
          "type": "address"
        }
      ],
      "name": "nonces",
      "outputs": [
        {
          "internalType": "uint256",
          "name": "",
          "type": "uint256"
        }
      ],
      "stateMutability": "view",
      "type": "function"
    },
    {
      "inputs": [],
      "name": "owner",
      "outputs": [
        {
          "internalType": "address",
          "name": "",
          "type": "address"
        }
      ],
      "stateMutability": "view",
      "type": "function"
    },
    {
      "inputs": [],
      "name": "pause",
      "outputs": [],
      "stateMutability": "nonpayable",
      "type": "function"
    },
    {
      "inputs": [],
      "name": "paused",
      "outputs": [
        {
          "internalType": "bool",
          "name": "",
          "type": "bool"
        }
      ],
      "stateMutability": "view",
      "type": "function"
    },
    {
      "inputs": [
        {
          "internalType": "address",
          "name": "owner",
          "type": "address"
        },
        {
          "internalType": "address",
          "name": "spender",
          "type": "address"
        },
        {
          "internalType": "uint256",
          "name": "value",
          "type": "uint256"
        },
        {
          "internalType": "uint256",
          "name": "deadline",
          "type": "uint256"
        },
        {
          "internalType": "uint8",
          "name": "v",
          "type": "uint8"
        },
        {
          "internalType": "bytes32",
          "name": "r",
          "type": "bytes32"
        },
        {
          "internalType": "bytes32",
          "name": "s",
          "type": "bytes32"
        }
      ],
      "name": "permit",
      "outputs": [],
      "stateMutability": "nonpayable",
      "type": "function"
    },
    {
      "inputs": [
        {
          "internalType": "address",
          "name": "from",
          "type": "address"
        },
        {
          "internalType": "address",
          "name": "to",
          "type": "address"
        },
        {
          "internalType": "uint256",
          "name": "amount",
          "type": "uint256"
        },
        {
          "internalType": "uint256",
          "name": "deadline",
          "type": "uint256"
        },
        {
          "internalType": "uint8",
          "name": "v",
          "type": "uint8"
        },
        {
          "internalType": "bytes32",
          "name": "r",
          "type": "bytes32"
        },
        {
          "internalType": "bytes32",
          "name": "s",
          "type": "bytes32"
        }
      ],
      "name": "permitTransfer",
      "outputs": [],
      "stateMutability": "nonpayable",
      "type": "function"
    },
    {
      "inputs": [],
      "name": "renounceOwnership",
      "outputs": [],
      "stateMutability": "nonpayable",
      "type": "function"
    },
    {
      "inputs": [],
      "name": "symbol",
      "outputs": [
        {
          "internalType": "string",
          "name": "",
          "type": "string"
        }
      ],
      "stateMutability": "view",
      "type": "function"
    },
    {
      "inputs": [],
      "name": "totalSupply",
      "outputs": [
        {
          "internalType": "uint256",
          "name": "",
          "type": "uint256"
        }
      ],
      "stateMutability": "view",
      "type": "function"
    },
    {
      "inputs": [
        {
          "internalType": "address",
          "name": "to",
          "type": "address"
        },
        {
          "internalType": "uint256",
          "name": "value",
          "type": "uint256"
        }
      ],
      "name": "transfer",
      "outputs": [
        {
          "internalType": "bool",
          "name": "",
          "type": "bool"
        }
      ],
      "stateMutability": "nonpayable",
      "type": "function"
    },
    {
      "inputs": [
        {
          "internalType": "address",
          "name": "from",
          "type": "address"
        },
        {
          "internalType": "address",
          "name": "to",
          "type": "address"
        },
        {
          "internalType": "uint256",
          "name": "value",
          "type": "uint256"
        }
      ],
      "name": "transferFrom",
      "outputs": [
        {
          "internalType": "bool",
          "name": "",
          "type": "bool"
        }
      ],
      "stateMutability": "nonpayable",
      "type": "function"
    },
    {
      "inputs": [
        {
          "internalType": "address",
          "name": "newOwner",
          "type": "address"
        }
      ],
      "name": "transferOwnership",
      "outputs": [],
      "stateMutability": "nonpayable",
      "type": "function"
    },
    {
      "inputs": [],
      "name": "unpause",
      "outputs": [],
      "stateMutability": "nonpayable",
      "type": "function"
    }
  ],
  "bytecode": "0x61016060408181523462000514576200203c803803809162000022828662000519565b84398201606083820312620005145782516001600160401b0392908381116200051457826200005391860162000562565b9160209081860151858111620005145783916200007291880162000562565b95015190825195838701878110878211176200041f57845260019586885282880196603160f81b885286518281116200041f5760038054918383811c9316801562000509575b87841014620004f357601f92838111620004a8575b508087848211600114620004415760009162000435575b5060001982841b1c191690841b1781555b8451918483116200041f5760049586548581811c9116801562000414575b89821014620003ff57828111620003b4575b508791841160011462000349579383949184926000956200033d575b50501b92600019911b1c19161782555b6200015c86620005bd565b966101209788526200016e8962000762565b96610140978852848151910120988960e05251902061010098818a524660a052865191858301917f8b73c3c69bb8fe3d512ecc4cf759cc79239f7b179b0ffacaa9a75d522b39400f83528884015260608301524660808301523060a083015260a0825260c0820192828410908411176200032857828752815190206080523060c05233156200031157505060088054610100600160a81b031981163380841b610100600160a81b031691909117835560ff9282901c6001600160a01b03167f8be0079c531659141344cd1fd0a4f28419497f9722a3daafe3b4186f6b6457e0600080a316620003035760025490838201809211620002ee57506000917fddf252ad1be2c89b69c2b068fc378daa952ba7f163c4a11628f55a4df523b3ef9160025533835282815284832084815401905584519384523393a351916117829384620008ba8539608051846113d1015260a0518461149d015260c051846113a2015260e0518461142001525183611446015251826104010152518161042a0152f35b601190634e487b7160e01b6000525260246000fd5b835163d93c066560e01b8152fd5b631e4fbdf760e01b8252600060c490910152602490fd5b604184634e487b7160e01b6000525260246000fd5b01519350388062000141565b9190601f198416928760005284896000209460005b8b898383106200039c575050501062000381575b50505050811b01825562000151565b01519060f884600019921b161c191690553880808062000372565b8686015189559097019694850194889350016200035e565b87600052886000208380870160051c8201928b8810620003f5575b0160051c019086905b828110620003e857505062000125565b60008155018690620003d8565b92508192620003cf565b602288634e487b7160e01b6000525260246000fd5b90607f169062000113565b634e487b7160e01b600052604160045260246000fd5b90508a015138620000e4565b60008481528981208794509190601f198416908b8f5b8383106200049057505050831162000477575b5050811b018155620000f5565b8c015160001983861b60f8161c1916905538806200046a565b840151855589969094019392830192018b8f62000457565b82600052876000208480840160051c8201928a8510620004e9575b0160051c019085905b828110620004dc575050620000cd565b60008155018590620004cc565b92508192620004c3565b634e487b7160e01b600052602260045260246000fd5b92607f1692620000b8565b600080fd5b601f909101601f19168101906001600160401b038211908210176200041f57604052565b60005b838110620005515750506000910152565b818101518382015260200162000540565b81601f82011215620005145780516001600160401b0381116200041f576040519262000599601f8301601f19166020018562000519565b818452602082840101116200051457620005ba91602080850191016200053d565b90565b805160209190828110156200063d575090601f825111620005fb5780825192015190808310620005ec57501790565b82600019910360031b1b161790565b6044906200062f9260405193849263305a27a960e01b8452806004850152825192839182602487015286860191016200053d565b601f01601f19168101030190fd5b6001600160401b0381116200041f576005928354926001938481811c9116801562000757575b83821014620004f357601f811162000720575b5081601f8411600114620006b65750928293918392600094620006aa575b50501b916000199060031b1c191617905560ff90565b01519250388062000694565b919083601f1981168760005284600020946000905b88838310620007055750505010620006eb575b505050811b01905560ff90565b015160001960f88460031b161c19169055388080620006de565b858701518855909601959485019487935090810190620006cb565b8560005284601f846000209201871c820191601f8601881c015b8281106200074a57505062000676565b600081550185906200073a565b90607f169062000663565b8051602090818110156200078f5750601f825111620005fb5780825192015190808310620005ec57501790565b906001600160401b0382116200041f57600654926001938481811c91168015620008ae575b83821014620004f357601f811162000874575b5081601f8411600114620008085750928293918392600094620007fc575b50501b916000199060031b1c19161760065560ff90565b015192503880620007e5565b919083601f198116600660005284600020946000905b888383106200085957505050106200083f575b505050811b0160065560ff90565b015160001960f88460031b161c1916905538808062000831565b8587015188559096019594850194879350908101906200081e565b600660005284601f84600020920160051c820191601f860160051c015b828110620008a1575050620007c7565b6000815501859062000891565b90607f1690620007b456fe608080604052600436101561001357600080fd5b60003560e01c90816306fdde0314610bfe57508063095ea7b314610bd857806318160ddd14610bba57806323b872dd14610b815780632d0335ab14610581578063313ce56714610b655780633644e515146102365780633f4ba83a14610ae357806340c10f1914610a0657806342966c68146108be5780635c975abb1461089b57806365f748881461066757806370a082311461062d578063715018a6146105c15780637ecebe00146105815780638456cb591461052757806384b0196e146103eb5780638da5cb5b146103c157806395d89b41146102db578063a9059cbb146102aa578063d505accf1461028d578063dd62ed3e1461023b578063ed24911d14610236578063f065895b146102015763f2fde38b1461013257600080fd5b346101fc5760203660031901126101fc5761014b610ce1565b610153610da8565b6001600160a01b038082169182156101cb5774ffffffffffffffffffffffffffffffffffffffff006008549160081b1674ffffffffffffffffffffffffffffffffffffffff001982161760085560081c167f8be0079c531659141344cd1fd0a4f28419497f9722a3daafe3b4186f6b6457e0600080a3005b60246040517f1e4fbdf700000000000000000000000000000000000000000000000000000000815260006004820152fd5b600080fd5b346101fc5761023461022f61021536610d59565b926102279794979695969291926116dc565b8733876110c7565b610e67565b005b610d0d565b346101fc5760403660031901126101fc57610254610ce1565b61025c610cf7565b906001600160a01b038091166000526001602052604060002091166000526020526020604060002054604051908152f35b346101fc5761023461029e36610d59565b959490949391936110c7565b346101fc5760403660031901126101fc576102d06102c6610ce1565b6024359033610f51565b602060405160018152f35b346101fc5760003660031901126101fc5760405160006004546102fd81610def565b8084529060019081811690811561039a575060011461033f575b61033b8461032781860382610e45565b604051918291602083526020830190610ca1565b0390f35b6004600090815292507f8a35acfbc15ff81a39ae7d344fd709f28e8600b4aa8c65c6b64bfe7fe36bd19b5b82841061038257505050810160200161032782610317565b8054602085870181019190915290930192810161036a565b60ff191660208087019190915292151560051b850190920192506103279150839050610317565b346101fc5760003660031901126101fc5760206001600160a01b0360085460081c16604051908152f35b346101fc5760003660031901126101fc576104257f00000000000000000000000000000000000000000000000000000000000000006114c3565b61044e7f00000000000000000000000000000000000000000000000000000000000000006115d7565b60405160208082019282841067ffffffffffffffff8511176105115791816104c485946104b69796604052600084526040519788977f0f00000000000000000000000000000000000000000000000000000000000000895260e0858a015260e0890190610ca1565b908782036040890152610ca1565b91466060870152306080870152600060a087015285830360c0870152519182815201929160005b8281106104fa57505050500390f35b8351855286955093810193928101926001016104eb565b634e487b7160e01b600052604160045260246000fd5b346101fc5760003660031901126101fc57610540610da8565b6105486116dc565b600160ff1960085416176008557f62e78cea01bee320cd4e420270b5ea74000d11b0c9f74754ebdbfc544b05a2586020604051338152a1005b346101fc5760203660031901126101fc5760206105b961059f610ce1565b6001600160a01b0316600052600760205260406000205490565b604051908152f35b346101fc5760003660031901126101fc576105da610da8565b60006001600160a01b0360085474ffffffffffffffffffffffffffffffffffffffff0019811660085560081c167f8be0079c531659141344cd1fd0a4f28419497f9722a3daafe3b4186f6b6457e08280a3005b346101fc5760203660031901126101fc576001600160a01b0361064e610ce1565b1660005260006020526020604060002054604051908152f35b346101fc5760e03660031901126101fc5767ffffffffffffffff6004358181116101fc57610699903690600401610d28565b91906024358281116101fc576106b3903690600401610d28565b9290916044358281116101fc576106ce903690600401610d28565b6064949194358481116101fc576106e9903690600401610d28565b91906084358681116101fc57610703903690600401610d28565b9460a4358881116101fc5761071c903690600401610d28565b93909760c435998a116101fc578b9a61073a8e9b3690600401610d28565b9d909b6107456116dc565b1480610892575b80610889575b80610880575b80610877575b8061086e575b1561082a5760008e5b811061077557005b8a8f8f8f91908f918d8f918c8f918c8a8f818f918f926107988380988193611712565b6107a190611738565b9d6107ab92611712565b6107b490611738565b966107be92611712565b35956107c992611712565b35946107d492611712565b359360ff851685036101fc57888f916107f4826107fb946108029c611712565b3597611712565b35956110c7565b6000198114610814576001018e61076d565b634e487b7160e01b600052601160045260246000fd5b606460405162461bcd60e51b815260206004820152601660248201527f417272617973206c656e677468206d69736d61746368000000000000000000006044820152fd5b508c8614610764565b5085891461075e565b50888814610758565b50878714610752565b50868c1461074c565b346101fc5760003660031901126101fc57602060ff600854166040519015158152f35b346101fc576020806003193601126101fc576004356108db610da8565b6108e36116dc565b6108ee811515611691565b336000526000825280604060002054106109c2573315610991576109106116dc565b33600052600082526040600020549181831061096b577fddf252ad1be2c89b69c2b068fc378daa952ba7f163c4a11628f55a4df523b3ef908260009433865285835203604085205582600254036002556040519283523392a3005b5060405163391434e360e21b815233600482015260248101929092526044820152606490fd5b60246040517f96c6fd1e00000000000000000000000000000000000000000000000000000000815260006004820152fd5b6064826040519062461bcd60e51b82526004820152601c60248201527f496e73756666696369656e742062616c616e636520746f206275726e000000006044820152fd5b346101fc5760403660031901126101fc57610a1f610ce1565b6001600160a01b0360243591610a336116dc565b16908115610a9f57610a46811515611691565b610a4e6116dc565b600254908082018092116108145760207fddf252ad1be2c89b69c2b068fc378daa952ba7f163c4a11628f55a4df523b3ef9160009360025584845283825260408420818154019055604051908152a3005b606460405162461bcd60e51b815260206004820152601b60248201527f43616e6e6f74206d696e7420746f207a65726f206164647265737300000000006044820152fd5b346101fc5760003660031901126101fc57610afc610da8565b60085460ff811615610b3b5760ff19166008557f5db9ee0a495bf2e6ff9c91a7834c1ba4fdd244a5e8aa4e537bd38aeae4b073aa6020604051338152a1005b60046040517f8dfc202b000000000000000000000000000000000000000000000000000000008152fd5b346101fc5760003660031901126101fc57602060405160128152f35b346101fc5760603660031901126101fc576020610bb0610b9f610ce1565b610ba7610cf7565b60443591610e67565b6040519015158152f35b346101fc5760003660031901126101fc576020600254604051908152f35b346101fc5760403660031901126101fc576102d0610bf4610ce1565b6024359033611036565b346101fc5760003660031901126101fc576000600354610c1d81610def565b8084529060019081811690811561039a5750600114610c465761033b8461032781860382610e45565b6003600090815292507fc2575a0e9e593c00f959f8c92f12db2869c3395a3b0502d05e2516446f71f85b5b828410610c8957505050810160200161032782610317565b80546020858701810191909152909301928101610c71565b919082519283825260005b848110610ccd575050826000602080949584010152601f8019910116010190565b602081830181015184830182015201610cac565b600435906001600160a01b03821682036101fc57565b602435906001600160a01b03821682036101fc57565b346101fc5760003660031901126101fc5760206105b9611398565b9181601f840112156101fc5782359167ffffffffffffffff83116101fc576020808501948460051b0101116101fc57565b60e09060031901126101fc576001600160a01b039060043582811681036101fc579160243590811681036101fc5790604435906064359060843560ff811681036101fc579060a4359060c43590565b6001600160a01b0360085460081c163303610dbf57565b60246040517f118cdaa7000000000000000000000000000000000000000000000000000000008152336004820152fd5b90600182811c92168015610e1f575b6020831014610e0957565b634e487b7160e01b600052602260045260246000fd5b91607f1691610dfe565b6040810190811067ffffffffffffffff82111761051157604052565b90601f8019910116810190811067ffffffffffffffff82111761051157604052565b9291906001600160a01b038416936000858152600160205260409586822033835260205286822054906000198210610ead575b505050610ea8939450610f51565b600190565b858210610f13578015610efc573315610ee557610ea89697918691845260016020528284203385526020520391205584933880610e9a565b602483895190634a1406b160e11b82526004820152fd5b60248389519063e602df0560e01b82526004820152fd5b87517ffb8f41b20000000000000000000000000000000000000000000000000000000081523360048201526024810183905260448101879052606490fd5b916001600160a01b03808416928315610991571692831561100557610f746116dc565b60009083825281602052604082205490838210610fd3575091604082827fddf252ad1be2c89b69c2b068fc378daa952ba7f163c4a11628f55a4df523b3ef958760209652828652038282205586815220818154019055604051908152a3565b60405163391434e360e21b81526001600160a01b03919091166004820152602481019190915260448101839052606490fd5b60246040517fec442f0500000000000000000000000000000000000000000000000000000000815260006004820152fd5b6001600160a01b038091169182156110af57169182156110975760207f8c5be1e5ebec7d5bd14f71427d1e84f3dd0314c0f7b2291e5b200ac8c7c3b925918360005260018252604060002085600052825280604060002055604051908152a3565b6024604051634a1406b160e11b815260006004820152fd5b602460405163e602df0560e01b815260006004820152fd5b929695919496939093804211611209576001600160a01b0391828516938460005260076020526040998a9283600020948554956001870190558451958860208801967f6e71edae12b1b97f4d1f60370fef10105fa2faae0126114a169c64845d6126c98852880152878b1660608801528b608088015260a087015260c086015260c0855260e085019480861067ffffffffffffffff871117610511578c6111b2956042926111bb98835251902061117c611398565b9151917f19010000000000000000000000000000000000000000000000000000000000008352600283015260228201522061123a565b909291926112ca565b16908082036111d35750506111d1939450611036565b565b604492508651917f4b800e4600000000000000000000000000000000000000000000000000000000835260048301526024820152fd5b602490604051907f627913020000000000000000000000000000000000000000000000000000000082526004820152fd5b91907f7fffffffffffffffffffffffffffffff5d576e7357a4501ddfe92f46681b20a084116112be57926020929160ff608095604051948552168484015260408301526060820152600092839182805260015afa156112b25780516001600160a01b038116156112a957918190565b50809160019190565b604051903d90823e3d90fd5b50505060009160039190565b600481101561138257806112dc575050565b6001810361130e5760046040517ff645eedf000000000000000000000000000000000000000000000000000000008152fd5b6002810361134757602482604051907ffce698f70000000000000000000000000000000000000000000000000000000082526004820152fd5b6003146113515750565b602490604051907fd78bce0c0000000000000000000000000000000000000000000000000000000082526004820152fd5b634e487b7160e01b600052602160045260246000fd5b6001600160a01b037f00000000000000000000000000000000000000000000000000000000000000001630148061149a575b156113f3577f000000000000000000000000000000000000000000000000000000000000000090565b60405160208101907f8b73c3c69bb8fe3d512ecc4cf759cc79239f7b179b0ffacaa9a75d522b39400f82527f000000000000000000000000000000000000000000000000000000000000000060408201527f000000000000000000000000000000000000000000000000000000000000000060608201524660808201523060a082015260a0815260c0810181811067ffffffffffffffff8211176105115760405251902090565b507f000000000000000000000000000000000000000000000000000000000000000046146113ca565b60ff81146115195760ff811690601f82116114ef57604051916114e583610e29565b8252602082015290565b60046040517fb3512b0c000000000000000000000000000000000000000000000000000000008152fd5b5060405160055481600061152c83610def565b808352926001908181169081156115b55750600114611556575b5061155392500382610e45565b90565b6005600090815291507f036b6384b5eca791c62761152d0c79bb0604c104a5fb6f4eb0703f3154bb3db05b84831061159a5750611553935050810160200138611546565b81935090816020925483858901015201910190918492611581565b90506020925061155394915060ff191682840152151560051b82010138611546565b60ff81146115f95760ff811690601f82116114ef57604051916114e583610e29565b5060405160065481600061160c83610def565b808352926001908181169081156115b55750600114611632575061155392500382610e45565b6006600090815291507ff652222313e28459528d920b65115c16c04f3efc82aaedc97be59f3f377c0d3f5b8483106116765750611553935050810160200138611546565b8193509081602092548385890101520191019091849261165d565b1561169857565b606460405162461bcd60e51b815260206004820152602060248201527f416d6f756e74206d7573742062652067726561746572207468616e207a65726f6044820152fd5b60ff600854166116e857565b60046040517fd93c0665000000000000000000000000000000000000000000000000000000008152fd5b91908110156117225760051b0190565b634e487b7160e01b600052603260045260246000fd5b356001600160a01b03811681036101fc579056fea2646970667358221220c6b8609581bf219210d7a9a57dfd290032d199751dab53aab66d0b97322c945564736f6c63430008140033",
  "linkReferences": {},
  "deployedLinkReferences": {}
}