{
  "_format": "hh-sol-artifact-1",
  "contractName": "TestToken",
  "sourceName": "contracts/TestToken.sol",
  "abi": [
    {
      "inputs": [
        {
          "internalType": "string",
          "name": "name",
          "type": "string"
        },
        {
          "internalType": "string",
          "name": "symbol",
          "type": "string"
        },
        {
          "internalType": "uint256",
          "name": "initialSupply",
          "type": "uint256"
        },
        {
          "internalType": "uint256",
          "name": "_maxSupply",
          "type": "uint256"
        }
      ],
      "stateMutability": "nonpayable",
      "type": "constructor"
    },
    {
      "inputs": [],
      "name": "ECDSAInvalidSignature",
      "type": "error"
    },
    {
      "inputs": [
        {
          "internalType": "uint256",
          "name": "length",
          "type": "uint256"
        }
      ],
      "name": "ECDSAInvalidSignatureLength",
      "type": "error"
    },
    {
      "inputs": [
        {
          "internalType": "bytes32",
          "name": "s",
          "type": "bytes32"
        }
      ],
      "name": "ECDSAInvalidSignatureS",
      "type": "error"
    },
    {
      "inputs": [
        {
          "internalType": "address",
          "name": "spender",
          "type": "address"
        },
        {
          "internalType": "uint256",
          "name": "allowance",
          "type": "uint256"
        },
        {
          "internalType": "uint256",
          "name": "needed",
          "type": "uint256"
        }
      ],
      "name": "ERC20InsufficientAllowance",
      "type": "error"
    },
    {
      "inputs": [
        {
          "internalType": "address",
          "name": "sender",
          "type": "address"
        },
        {
          "internalType": "uint256",
          "name": "balance",
          "type": "uint256"
        },
        {
          "internalType": "uint256",
          "name": "needed",
          "type": "uint256"
        }
      ],
      "name": "ERC20InsufficientBalance",
      "type": "error"
    },
    {
      "inputs": [
        {
          "internalType": "address",
          "name": "approver",
          "type": "address"
        }
      ],
      "name": "ERC20InvalidApprover",
      "type": "error"
    },
    {
      "inputs": [
        {
          "internalType": "address",
          "name": "receiver",
          "type": "address"
        }
      ],
      "name": "ERC20InvalidReceiver",
      "type": "error"
    },
    {
      "inputs": [
        {
          "internalType": "address",
          "name": "sender",
          "type": "address"
        }
      ],
      "name": "ERC20InvalidSender",
      "type": "error"
    },
    {
      "inputs": [
        {
          "internalType": "address",
          "name": "spender",
          "type": "address"
        }
      ],
      "name": "ERC20InvalidSpender",
      "type": "error"
    },
    {
      "inputs": [
        {
          "internalType": "uint256",
          "name": "deadline",
          "type": "uint256"
        }
      ],
      "name": "ERC2612ExpiredSignature",
      "type": "error"
    },
    {
      "inputs": [
        {
          "internalType": "address",
          "name": "signer",
          "type": "address"
        },
        {
          "internalType": "address",
          "name": "owner",
          "type": "address"
        }
      ],
      "name": "ERC2612InvalidSigner",
      "type": "error"
    },
    {
      "inputs": [
        {
          "internalType": "address",
          "name": "account",
          "type": "address"
        },
        {
          "internalType": "uint256",
          "name": "currentNonce",
          "type": "uint256"
        }
      ],
      "name": "InvalidAccountNonce",
      "type": "error"
    },
    {
      "inputs": [],
      "name": "InvalidShortString",
      "type": "error"
    },
    {
      "inputs": [
        {
          "internalType": "address",
          "name": "owner",
          "type": "address"
        }
      ],
      "name": "OwnableInvalidOwner",
      "type": "error"
    },
    {
      "inputs": [
        {
          "internalType": "address",
          "name": "account",
          "type": "address"
        }
      ],
      "name": "OwnableUnauthorizedAccount",
      "type": "error"
    },
    {
      "inputs": [
        {
          "internalType": "string",
          "name": "str",
          "type": "string"
        }
      ],
      "name": "StringTooLong",
      "type": "error"
    },
    {
      "anonymous": false,
      "inputs": [
        {
          "indexed": true,
          "internalType": "address",
          "name": "owner",
          "type": "address"
        },
        {
          "indexed": true,
          "internalType": "address",
          "name": "spender",
          "type": "address"
        },
        {
          "indexed": false,
          "internalType": "uint256",
          "name": "value",
          "type": "uint256"
        }
      ],
      "name": "Approval",
      "type": "event"
    },
    {
      "anonymous": false,
      "inputs": [],
      "name": "EIP712DomainChanged",
      "type": "event"
    },
    {
      "anonymous": false,
      "inputs": [
        {
          "indexed": true,
          "internalType": "address",
          "name": "previousOwner",
          "type": "address"
        },
        {
          "indexed": true,
          "internalType": "address",
          "name": "newOwner",
          "type": "address"
        }
      ],
      "name": "OwnershipTransferred",
      "type": "event"
    },
    {
      "anonymous": false,
      "inputs": [
        {
          "indexed": true,
          "internalType": "address",
          "name": "from",
          "type": "address"
        },
        {
          "indexed": true,
          "internalType": "address",
          "name": "to",
          "type": "address"
        },
        {
          "indexed": false,
          "internalType": "uint256",
          "name": "value",
          "type": "uint256"
        }
      ],
      "name": "Transfer",
      "type": "event"
    },
    {
      "inputs": [],
      "name": "DOMAIN_SEPARATOR",
      "outputs": [
        {
          "internalType": "bytes32",
          "name": "",
          "type": "bytes32"
        }
      ],
      "stateMutability": "view",
      "type": "function"
    },
    {
      "inputs": [
        {
          "internalType": "address",
          "name": "owner",
          "type": "address"
        },
        {
          "internalType": "address",
          "name": "spender",
          "type": "address"
        }
      ],
      "name": "allowance",
      "outputs": [
        {
          "internalType": "uint256",
          "name": "",
          "type": "uint256"
        }
      ],
      "stateMutability": "view",
      "type": "function"
    },
    {
      "inputs": [
        {
          "internalType": "address",
          "name": "spender",
          "type": "address"
        },
        {
          "internalType": "uint256",
          "name": "value",
          "type": "uint256"
        }
      ],
      "name": "approve",
      "outputs": [
        {
          "internalType": "bool",
          "name": "",
          "type": "bool"
        }
      ],
      "stateMutability": "nonpayable",
      "type": "function"
    },
    {
      "inputs": [
        {
          "internalType": "address",
          "name": "account",
          "type": "address"
        }
      ],
      "name": "balanceOf",
      "outputs": [
        {
          "internalType": "uint256",
          "name": "",
          "type": "uint256"
        }
      ],
      "stateMutability": "view",
      "type": "function"
    },
    {
      "inputs": [
        {
          "internalType": "address[]",
          "name": "owners",
          "type": "address[]"
        },
        {
          "internalType": "address[]",
          "name": "spenders",
          "type": "address[]"
        },
        {
          "internalType": "uint256[]",
          "name": "amounts",
          "type": "uint256[]"
        },
        {
          "internalType": "uint256[]",
          "name": "deadlines",
          "type": "uint256[]"
        },
        {
          "internalType": "uint8[]",
          "name": "v",
          "type": "uint8[]"
        },
        {
          "internalType": "bytes32[]",
          "name": "r",
          "type": "bytes32[]"
        },
        {
          "internalType": "bytes32[]",
          "name": "s",
          "type": "bytes32[]"
        }
      ],
      "name": "batchPermit",
      "outputs": [],
      "stateMutability": "nonpayable",
      "type": "function"
    },
    {
      "inputs": [
        {
          "internalType": "uint256",
          "name": "amount",
          "type": "uint256"
        }
      ],
      "name": "burn",
      "outputs": [],
      "stateMutability": "nonpayable",
      "type": "function"
    },
    {
      "inputs": [],
      "name": "decimals",
      "outputs": [
        {
          "internalType": "uint8",
          "name": "",
          "type": "uint8"
        }
      ],
      "stateMutability": "view",
      "type": "function"
    },
    {
      "inputs": [],
      "name": "eip712Domain",
      "outputs": [
        {
          "internalType": "bytes1",
          "name": "fields",
          "type": "bytes1"
        },
        {
          "internalType": "string",
          "name": "name",
          "type": "string"
        },
        {
          "internalType": "string",
          "name": "version",
          "type": "string"
        },
        {
          "internalType": "uint256",
          "name": "chainId",
          "type": "uint256"
        },
        {
          "internalType": "address",
          "name": "verifyingContract",
          "type": "address"
        },
        {
          "internalType": "bytes32",
          "name": "salt",
          "type": "bytes32"
        },
        {
          "internalType": "uint256[]",
          "name": "extensions",
          "type": "uint256[]"
        }
      ],
      "stateMutability": "view",
      "type": "function"
    },
    {
      "inputs": [],
      "name": "getDomainSeparator",
      "outputs": [
        {
          "internalType": "bytes32",
          "name": "",
          "type": "bytes32"
        }
      ],
      "stateMutability": "view",
      "type": "function"
    },
    {
      "inputs": [
        {
          "internalType": "address",
          "name": "owner",
          "type": "address"
        }
      ],
      "name": "getNonce",
      "outputs": [
        {
          "internalType": "uint256",
          "name": "",
          "type": "uint256"
        }
      ],
      "stateMutability": "view",
      "type": "function"
    },
    {
      "inputs": [],
      "name": "maxSupply",
      "outputs": [
        {
          "internalType": "uint256",
          "name": "",
          "type": "uint256"
        }
      ],
      "stateMutability": "view",
      "type": "function"
    },
    {
      "inputs": [
        {
          "internalType": "address",
          "name": "to",
          "type": "address"
        },
        {
          "internalType": "uint256",
          "name": "amount",
          "type": "uint256"
        }
      ],
      "name": "mint",
      "outputs": [],
      "stateMutability": "nonpayable",
      "type": "function"
    },
    {
      "inputs": [],
      "name": "name",
      "outputs": [
        {
          "internalType": "string",
          "name": "",
          "type": "string"
        }
      ],
      "stateMutability": "view",
      "type": "function"
    },
    {
      "inputs": [
        {
          "internalType": "address",
          "name": "owner",
          "type": "address"
        }
      ],
      "name": "nonces",
      "outputs": [
        {
          "internalType": "uint256",
          "name": "",
          "type": "uint256"
        }
      ],
      "stateMutability": "view",
      "type": "function"
    },
    {
      "inputs": [],
      "name": "owner",
      "outputs": [
        {
          "internalType": "address",
          "name": "",
          "type": "address"
        }
      ],
      "stateMutability": "view",
      "type": "function"
    },
    {
      "inputs": [
        {
          "internalType": "address",
          "name": "owner",
          "type": "address"
        },
        {
          "internalType": "address",
          "name": "spender",
          "type": "address"
        },
        {
          "internalType": "uint256",
          "name": "value",
          "type": "uint256"
        },
        {
          "internalType": "uint256",
          "name": "deadline",
          "type": "uint256"
        },
        {
          "internalType": "uint8",
          "name": "v",
          "type": "uint8"
        },
        {
          "internalType": "bytes32",
          "name": "r",
          "type": "bytes32"
        },
        {
          "internalType": "bytes32",
          "name": "s",
          "type": "bytes32"
        }
      ],
      "name": "permit",
      "outputs": [],
      "stateMutability": "nonpayable",
      "type": "function"
    },
    {
      "inputs": [
        {
          "internalType": "address",
          "name": "from",
          "type": "address"
        },
        {
          "internalType": "address",
          "name": "to",
          "type": "address"
        },
        {
          "internalType": "uint256",
          "name": "amount",
          "type": "uint256"
        },
        {
          "internalType": "uint256",
          "name": "deadline",
          "type": "uint256"
        },
        {
          "internalType": "uint8",
          "name": "v",
          "type": "uint8"
        },
        {
          "internalType": "bytes32",
          "name": "r",
          "type": "bytes32"
        },
        {
          "internalType": "bytes32",
          "name": "s",
          "type": "bytes32"
        }
      ],
      "name": "permitTransfer",
      "outputs": [],
      "stateMutability": "nonpayable",
      "type": "function"
    },
    {
      "inputs": [],
      "name": "renounceOwnership",
      "outputs": [],
      "stateMutability": "nonpayable",
      "type": "function"
    },
    {
      "inputs": [],
      "name": "symbol",
      "outputs": [
        {
          "internalType": "string",
          "name": "",
          "type": "string"
        }
      ],
      "stateMutability": "view",
      "type": "function"
    },
    {
      "inputs": [],
      "name": "totalMinted",
      "outputs": [
        {
          "internalType": "uint256",
          "name": "",
          "type": "uint256"
        }
      ],
      "stateMutability": "view",
      "type": "function"
    },
    {
      "inputs": [],
      "name": "totalSupply",
      "outputs": [
        {
          "internalType": "uint256",
          "name": "",
          "type": "uint256"
        }
      ],
      "stateMutability": "view",
      "type": "function"
    },
    {
      "inputs": [
        {
          "internalType": "address",
          "name": "to",
          "type": "address"
        },
        {
          "internalType": "uint256",
          "name": "value",
          "type": "uint256"
        }
      ],
      "name": "transfer",
      "outputs": [
        {
          "internalType": "bool",
          "name": "",
          "type": "bool"
        }
      ],
      "stateMutability": "nonpayable",
      "type": "function"
    },
    {
      "inputs": [
        {
          "internalType": "address",
          "name": "from",
          "type": "address"
        },
        {
          "internalType": "address",
          "name": "to",
          "type": "address"
        },
        {
          "internalType": "uint256",
          "name": "value",
          "type": "uint256"
        }
      ],
      "name": "transferFrom",
      "outputs": [
        {
          "internalType": "bool",
          "name": "",
          "type": "bool"
        }
      ],
      "stateMutability": "nonpayable",
      "type": "function"
    },
    {
      "inputs": [
        {
          "internalType": "address",
          "name": "newOwner",
          "type": "address"
        }
      ],
      "name": "transferOwnership",
      "outputs": [],
      "stateMutability": "nonpayable",
      "type": "function"
    },
    {
      "inputs": [
        {
          "internalType": "uint256",
          "name": "newMaxSupply",
          "type": "uint256"
        }
      ],
      "name": "updateMaxSupply",
      "outputs": [],
      "stateMutability": "nonpayable",
      "type": "function"
    }
  ],
  "bytecode": "0x610160604081815234620005705762002069803803809162000022828662000575565b8439820191608081840312620005705780516001600160401b03929083811162000570578462000054918401620005be565b916020948582015190858211620005705762000072918301620005be565b9460608383015192015195835196848801888110888211176200046f57855260019687895283890197603160f81b895287518281116200046f5760038054918383811c9316801562000565575b888410146200054f57601f9283811162000504575b508088848211600114620004915760009162000485575b5060001982841b1c191690841b1781555b8551918483116200046f5760049687548581811c9116801562000464575b8a8210146200044f5782811162000404575b508891841160011462000399579383949184926000956200038d575b50501b92600019911b1c19161783555b620001638762000619565b97610120988952620001758a620007be565b97610140988952858151910120998a60e05251902061010099818b524660a052875191868301917f8b73c3c69bb8fe3d512ecc4cf759cc79239f7b179b0ffacaa9a75d522b39400f83528984015260608301524660808301523060a083015260a0825260c0820192828410908411176200037857828852815190206080523060c05233156200036157505060088054336001600160a01b031982168117909255865191906001600160a01b03167f8be0079c531659141344cd1fd0a4f28419497f9722a3daafe3b4186f6b6457e0600080a381851180159062000358575b156200030d575060095582600a5560025490838201809211620002f857506000917fddf252ad1be2c89b69c2b068fc378daa952ba7f163c4a11628f55a4df523b3ef9160025533835282815284832084815401905584519384523393a351916117539384620009168539608051846113d8015260a051846114a4015260c051846113a9015260e051846114270152518361144d015251826104b8015251816104e10152f35b601190634e487b7160e01b6000525260246000fd5b62461bcd60e51b8152828101849052602160248201527f496e697469616c20737570706c792065786365656473206d617820737570706c6044820152607960f81b6064820152608490fd5b50811562000253565b631e4fbdf760e01b8252600060c490910152602490fd5b604185634e487b7160e01b6000525260246000fd5b01519350388062000148565b9190601f1984169288600052848a6000209460005b8c89838310620003ec5750505010620003d1575b50505050811b01835562000158565b01519060f884600019921b161c1916905538808080620003c2565b868601518955909701969485019488935001620003ae565b88600052896000208380870160051c8201928c881062000445575b0160051c019086905b828110620004385750506200012c565b6000815501869062000428565b925081926200041f565b602289634e487b7160e01b6000525260246000fd5b90607f16906200011a565b634e487b7160e01b600052604160045260246000fd5b90508b015138620000eb565b8592508c90601f198316856000528b600020928c6000915b838310620004e2575050508311620004c9575b5050811b018155620000fc565b8d015160001983861b60f8161c191690553880620004bc565b948482949597989293960151815501940192019087949392918f8d90620004a9565b82600052886000208480840160051c8201928b851062000545575b0160051c019085905b82811062000538575050620000d4565b6000815501859062000528565b925081926200051f565b634e487b7160e01b600052602260045260246000fd5b92607f1692620000bf565b600080fd5b601f909101601f19168101906001600160401b038211908210176200046f57604052565b60005b838110620005ad5750506000910152565b81810151838201526020016200059c565b81601f82011215620005705780516001600160401b0381116200046f5760405192620005f5601f8301601f19166020018562000575565b81845260208284010111620005705762000616916020808501910162000599565b90565b8051602091908281101562000699575090601f8251116200065757808251920151908083106200064857501790565b82600019910360031b1b161790565b6044906200068b9260405193849263305a27a960e01b84528060048501528251928391826024870152868601910162000599565b601f01601f19168101030190fd5b6001600160401b0381116200046f576005928354926001938481811c91168015620007b3575b838210146200054f57601f81116200077c575b5081601f841160011462000712575092829391839260009462000706575b50501b916000199060031b1c191617905560ff90565b015192503880620006f0565b919083601f1981168760005284600020946000905b8883831062000761575050501062000747575b505050811b01905560ff90565b015160001960f88460031b161c191690553880806200073a565b85870151885590960195948501948793509081019062000727565b8560005284601f846000209201871c820191601f8601881c015b828110620007a6575050620006d2565b6000815501859062000796565b90607f1690620006bf565b805160209081811015620007eb5750601f8251116200065757808251920151908083106200064857501790565b906001600160401b0382116200046f57600654926001938481811c911680156200090a575b838210146200054f57601f8111620008d0575b5081601f841160011462000864575092829391839260009462000858575b50501b916000199060031b1c19161760065560ff90565b01519250388062000841565b919083601f198116600660005284600020946000905b88838310620008b557505050106200089b575b505050811b0160065560ff90565b015160001960f88460031b161c191690553880806200088d565b8587015188559096019594850194879350908101906200087a565b600660005284601f84600020920160051c820191601f860160051c015b828110620008fd57505062000823565b60008155018590620008ed565b90607f16906200081056fe608080604052600436101561001357600080fd5b60003560e01c90816306fdde0314610c0357508063095ea7b314610bdd57806318160ddd14610bbf57806323b872dd14610b865780632d0335ab146105de578063313ce56714610b6a5780633644e515146102b457806340c10f1914610a2457806342966c68146108ec57806365f74888146106c057806370a0823114610686578063715018a61461061e5780637ecebe00146105de57806384b0196e146104a25780638da5cb5b1461047b57806395d89b4114610395578063a2309ff814610377578063a9059cbb14610346578063d505accf14610329578063d5abeb011461030b578063dd62ed3e146102b9578063ed24911d146102b4578063f065895b14610288578063f103b433146101e35763f2fde38b1461013257600080fd5b346101de5760203660031901126101de5761014b610ce6565b610153610dad565b6001600160a01b038091169081156101ad576008548273ffffffffffffffffffffffffffffffffffffffff19821617600855167f8be0079c531659141344cd1fd0a4f28419497f9722a3daafe3b4186f6b6457e0600080a3005b60246040517f1e4fbdf700000000000000000000000000000000000000000000000000000000815260006004820152fd5b600080fd5b346101de5760203660031901126101de576004356101ff610dad565b8015801561027c575b1561021257600955005b608460405162461bcd60e51b815260206004820152602860248201527f4e6577206d617820737570706c79206d757374206265203e3d2063757272656e60448201527f7420737570706c790000000000000000000000000000000000000000000000006064820152fd5b50600254811015610208565b346101de576102b26102ad61029c36610d5e565b9284979496959692919233876110ce565b610e69565b005b610d12565b346101de5760403660031901126101de576102d2610ce6565b6102da610cfc565b906001600160a01b038091166000526001602052604060002091166000526020526020604060002054604051908152f35b346101de5760003660031901126101de576020600954604051908152f35b346101de576102b261033a36610d5e565b959490949391936110ce565b346101de5760403660031901126101de5761036c610362610ce6565b6024359033610f53565b602060405160018152f35b346101de5760003660031901126101de576020600a54604051908152f35b346101de5760003660031901126101de5760405160006004546103b781610df1565b8084529060019081811690811561045457506001146103f9575b6103f5846103e181860382610e47565b604051918291602083526020830190610ca6565b0390f35b6004600090815292507f8a35acfbc15ff81a39ae7d344fd709f28e8600b4aa8c65c6b64bfe7fe36bd19b5b82841061043c5750505081016020016103e1826103d1565b80546020858701810191909152909301928101610424565b60ff191660208087019190915292151560051b850190920192506103e191508390506103d1565b346101de5760003660031901126101de5760206001600160a01b0360085416604051908152f35b346101de5760003660031901126101de576104dc7f00000000000000000000000000000000000000000000000000000000000000006114ca565b6105057f00000000000000000000000000000000000000000000000000000000000000006115de565b60405160208082019282841067ffffffffffffffff8511176105c857918161057b859461056d9796604052600084526040519788977f0f00000000000000000000000000000000000000000000000000000000000000895260e0858a015260e0890190610ca6565b908782036040890152610ca6565b91466060870152306080870152600060a087015285830360c0870152519182815201929160005b8281106105b157505050500390f35b8351855286955093810193928101926001016105a2565b634e487b7160e01b600052604160045260246000fd5b346101de5760203660031901126101de5760206106166105fc610ce6565b6001600160a01b0316600052600760205260406000205490565b604051908152f35b346101de5760003660031901126101de57610637610dad565b60006001600160a01b0360085473ffffffffffffffffffffffffffffffffffffffff198116600855167f8be0079c531659141344cd1fd0a4f28419497f9722a3daafe3b4186f6b6457e08280a3005b346101de5760203660031901126101de576001600160a01b036106a7610ce6565b1660005260006020526020604060002054604051908152f35b346101de5760e03660031901126101de5767ffffffffffffffff6004358181116101de576106f2903690600401610d2d565b91906024358281116101de5761070c903690600401610d2d565b9290916044358281116101de57610727903690600401610d2d565b6064949194358481116101de57610742903690600401610d2d565b91906084358681116101de5761075c903690600401610d2d565b9460a4358881116101de57610775903690600401610d2d565b93909760c435998a116101de578b9a6107938e9b3690600401610d2d565b9d909b14806108e3575b806108da575b806108d1575b806108c8575b806108bf575b1561087b5760008e5b81106107c657005b8a8f8f8f91908f918d8f918c8f918c8a8f818f918f926107e983809881936116e3565b6107f290611709565b9d6107fc926116e3565b61080590611709565b9661080f926116e3565b359561081a926116e3565b3594610825926116e3565b359360ff851685036101de57888f916108458261084c946108539c6116e3565b35976116e3565b35956110ce565b6000198114610865576001018e6107be565b634e487b7160e01b600052601160045260246000fd5b606460405162461bcd60e51b815260206004820152601660248201527f417272617973206c656e677468206d69736d61746368000000000000000000006044820152fd5b508c86146107b5565b508589146107af565b508888146107a9565b508787146107a3565b50868c1461079d565b346101de576020806003193601126101de57600435610909610dad565b610914811515611698565b336000526000825280604060002054106109e05733156109af57336000526000825260406000205491818310610989577fddf252ad1be2c89b69c2b068fc378daa952ba7f163c4a11628f55a4df523b3ef908260009433865285835203604085205582600254036002556040519283523392a3005b5060405163391434e360e21b815233600482015260248101929092526044820152606490fd5b60246040517f96c6fd1e00000000000000000000000000000000000000000000000000000000815260006004820152fd5b6064826040519062461bcd60e51b82526004820152601c60248201527f496e73756666696369656e742062616c616e636520746f206275726e000000006044820152fd5b346101de5760403660031901126101de57610a3d610ce6565b6001600160a01b0360243591610a51610dad565b16908115610b2657610a64811515611698565b60095480610acb575b507fddf252ad1be2c89b69c2b068fc378daa952ba7f163c4a11628f55a4df523b3ef602082610aa0600094600a54611030565b600a55610aaf81600254611030565b60025584845283825260408420818154019055604051908152a3005b610ad782600254611030565b11610ae25782610a6d565b606460405162461bcd60e51b815260206004820152601f60248201527f4d696e74696e6720776f756c6420657863656564206d617820737570706c79006044820152fd5b606460405162461bcd60e51b815260206004820152601b60248201527f43616e6e6f74206d696e7420746f207a65726f206164647265737300000000006044820152fd5b346101de5760003660031901126101de57602060405160128152f35b346101de5760603660031901126101de576020610bb5610ba4610ce6565b610bac610cfc565b60443591610e69565b6040519015158152f35b346101de5760003660031901126101de576020600254604051908152f35b346101de5760403660031901126101de5761036c610bf9610ce6565b602435903361103d565b346101de5760003660031901126101de576000600354610c2281610df1565b808452906001908181169081156104545750600114610c4b576103f5846103e181860382610e47565b6003600090815292507fc2575a0e9e593c00f959f8c92f12db2869c3395a3b0502d05e2516446f71f85b5b828410610c8e5750505081016020016103e1826103d1565b80546020858701810191909152909301928101610c76565b919082519283825260005b848110610cd2575050826000602080949584010152601f8019910116010190565b602081830181015184830182015201610cb1565b600435906001600160a01b03821682036101de57565b602435906001600160a01b03821682036101de57565b346101de5760003660031901126101de57602061061661139f565b9181601f840112156101de5782359167ffffffffffffffff83116101de576020808501948460051b0101116101de57565b60e09060031901126101de576001600160a01b039060043582811681036101de579160243590811681036101de5790604435906064359060843560ff811681036101de579060a4359060c43590565b6001600160a01b03600854163303610dc157565b60246040517f118cdaa7000000000000000000000000000000000000000000000000000000008152336004820152fd5b90600182811c92168015610e21575b6020831014610e0b57565b634e487b7160e01b600052602260045260246000fd5b91607f1691610e00565b6040810190811067ffffffffffffffff8211176105c857604052565b90601f8019910116810190811067ffffffffffffffff8211176105c857604052565b9291906001600160a01b038416936000858152600160205260409586822033835260205286822054906000198210610eaf575b505050610eaa939450610f53565b600190565b858210610f15578015610efe573315610ee757610eaa9697918691845260016020528284203385526020520391205584933880610e9c565b602483895190634a1406b160e11b82526004820152fd5b60248389519063e602df0560e01b82526004820152fd5b87517ffb8f41b20000000000000000000000000000000000000000000000000000000081523360048201526024810183905260448101879052606490fd5b916001600160a01b038084169283156109af5716928315610fff5760009083825281602052604082205490838210610fcd575091604082827fddf252ad1be2c89b69c2b068fc378daa952ba7f163c4a11628f55a4df523b3ef958760209652828652038282205586815220818154019055604051908152a3565b60405163391434e360e21b81526001600160a01b03919091166004820152602481019190915260448101839052606490fd5b60246040517fec442f0500000000000000000000000000000000000000000000000000000000815260006004820152fd5b9190820180921161086557565b6001600160a01b038091169182156110b6571691821561109e5760207f8c5be1e5ebec7d5bd14f71427d1e84f3dd0314c0f7b2291e5b200ac8c7c3b925918360005260018252604060002085600052825280604060002055604051908152a3565b6024604051634a1406b160e11b815260006004820152fd5b602460405163e602df0560e01b815260006004820152fd5b929695919496939093804211611210576001600160a01b0391828516938460005260076020526040998a9283600020948554956001870190558451958860208801967f6e71edae12b1b97f4d1f60370fef10105fa2faae0126114a169c64845d6126c98852880152878b1660608801528b608088015260a087015260c086015260c0855260e085019480861067ffffffffffffffff8711176105c8578c6111b9956042926111c298835251902061118361139f565b9151917f190100000000000000000000000000000000000000000000000000000000000083526002830152602282015220611241565b909291926112d1565b16908082036111da5750506111d893945061103d565b565b604492508651917f4b800e4600000000000000000000000000000000000000000000000000000000835260048301526024820152fd5b602490604051907f627913020000000000000000000000000000000000000000000000000000000082526004820152fd5b91907f7fffffffffffffffffffffffffffffff5d576e7357a4501ddfe92f46681b20a084116112c557926020929160ff608095604051948552168484015260408301526060820152600092839182805260015afa156112b95780516001600160a01b038116156112b057918190565b50809160019190565b604051903d90823e3d90fd5b50505060009160039190565b600481101561138957806112e3575050565b600181036113155760046040517ff645eedf000000000000000000000000000000000000000000000000000000008152fd5b6002810361134e57602482604051907ffce698f70000000000000000000000000000000000000000000000000000000082526004820152fd5b6003146113585750565b602490604051907fd78bce0c0000000000000000000000000000000000000000000000000000000082526004820152fd5b634e487b7160e01b600052602160045260246000fd5b6001600160a01b037f0000000000000000000000000000000000000000000000000000000000000000163014806114a1575b156113fa577f000000000000000000000000000000000000000000000000000000000000000090565b60405160208101907f8b73c3c69bb8fe3d512ecc4cf759cc79239f7b179b0ffacaa9a75d522b39400f82527f000000000000000000000000000000000000000000000000000000000000000060408201527f000000000000000000000000000000000000000000000000000000000000000060608201524660808201523060a082015260a0815260c0810181811067ffffffffffffffff8211176105c85760405251902090565b507f000000000000000000000000000000000000000000000000000000000000000046146113d1565b60ff81146115205760ff811690601f82116114f657604051916114ec83610e2b565b8252602082015290565b60046040517fb3512b0c000000000000000000000000000000000000000000000000000000008152fd5b5060405160055481600061153383610df1565b808352926001908181169081156115bc575060011461155d575b5061155a92500382610e47565b90565b6005600090815291507f036b6384b5eca791c62761152d0c79bb0604c104a5fb6f4eb0703f3154bb3db05b8483106115a1575061155a93505081016020013861154d565b81935090816020925483858901015201910190918492611588565b90506020925061155a94915060ff191682840152151560051b8201013861154d565b60ff81146116005760ff811690601f82116114f657604051916114ec83610e2b565b5060405160065481600061161383610df1565b808352926001908181169081156115bc5750600114611639575061155a92500382610e47565b6006600090815291507ff652222313e28459528d920b65115c16c04f3efc82aaedc97be59f3f377c0d3f5b84831061167d575061155a93505081016020013861154d565b81935090816020925483858901015201910190918492611664565b1561169f57565b606460405162461bcd60e51b815260206004820152602060248201527f416d6f756e74206d7573742062652067726561746572207468616e207a65726f6044820152fd5b91908110156116f35760051b0190565b634e487b7160e01b600052603260045260246000fd5b356001600160a01b03811681036101de579056fea2646970667358221220278ca43edeadb3a4fc9c353a605685f931cb143e15abd77877c16139b33a572864736f6c63430008140033",
  "linkReferences": {},
  "deployedLinkReferences": {}
}