{
  "_format": "hh-sol-artifact-1",
  "contractName": "TestTokenV2",
  "sourceName": "contracts/TestTokenV2.sol",
  "abi": [
    {
      "inputs": [],
      "name": "ECDSAInvalidSignature",
      "type": "error"
    },
    {
      "inputs": [
        {
          "internalType": "uint256",
          "name": "length",
          "type": "uint256"
        }
      ],
      "name": "ECDSAInvalidSignatureLength",
      "type": "error"
    },
    {
      "inputs": [
        {
          "internalType": "bytes32",
          "name": "s",
          "type": "bytes32"
        }
      ],
      "name": "ECDSAInvalidSignatureS",
      "type": "error"
    },
    {
      "inputs": [
        {
          "internalType": "address",
          "name": "spender",
          "type": "address"
        },
        {
          "internalType": "uint256",
          "name": "allowance",
          "type": "uint256"
        },
        {
          "internalType": "uint256",
          "name": "needed",
          "type": "uint256"
        }
      ],
      "name": "ERC20InsufficientAllowance",
      "type": "error"
    },
    {
      "inputs": [
        {
          "internalType": "address",
          "name": "sender",
          "type": "address"
        },
        {
          "internalType": "uint256",
          "name": "balance",
          "type": "uint256"
        },
        {
          "internalType": "uint256",
          "name": "needed",
          "type": "uint256"
        }
      ],
      "name": "ERC20InsufficientBalance",
      "type": "error"
    },
    {
      "inputs": [
        {
          "internalType": "address",
          "name": "approver",
          "type": "address"
        }
      ],
      "name": "ERC20InvalidApprover",
      "type": "error"
    },
    {
      "inputs": [
        {
          "internalType": "address",
          "name": "receiver",
          "type": "address"
        }
      ],
      "name": "ERC20InvalidReceiver",
      "type": "error"
    },
    {
      "inputs": [
        {
          "internalType": "address",
          "name": "sender",
          "type": "address"
        }
      ],
      "name": "ERC20InvalidSender",
      "type": "error"
    },
    {
      "inputs": [
        {
          "internalType": "address",
          "name": "spender",
          "type": "address"
        }
      ],
      "name": "ERC20InvalidSpender",
      "type": "error"
    },
    {
      "inputs": [
        {
          "internalType": "uint256",
          "name": "deadline",
          "type": "uint256"
        }
      ],
      "name": "ERC2612ExpiredSignature",
      "type": "error"
    },
    {
      "inputs": [
        {
          "internalType": "address",
          "name": "signer",
          "type": "address"
        },
        {
          "internalType": "address",
          "name": "owner",
          "type": "address"
        }
      ],
      "name": "ERC2612InvalidSigner",
      "type": "error"
    },
    {
      "inputs": [],
      "name": "EnforcedPause",
      "type": "error"
    },
    {
      "inputs": [],
      "name": "ExpectedPause",
      "type": "error"
    },
    {
      "inputs": [
        {
          "internalType": "address",
          "name": "account",
          "type": "address"
        },
        {
          "internalType": "uint256",
          "name": "currentNonce",
          "type": "uint256"
        }
      ],
      "name": "InvalidAccountNonce",
      "type": "error"
    },
    {
      "inputs": [],
      "name": "InvalidInitialization",
      "type": "error"
    },
    {
      "inputs": [],
      "name": "NotInitializing",
      "type": "error"
    },
    {
      "inputs": [
        {
          "internalType": "address",
          "name": "owner",
          "type": "address"
        }
      ],
      "name": "OwnableInvalidOwner",
      "type": "error"
    },
    {
      "inputs": [
        {
          "internalType": "address",
          "name": "account",
          "type": "address"
        }
      ],
      "name": "OwnableUnauthorizedAccount",
      "type": "error"
    },
    {
      "anonymous": false,
      "inputs": [
        {
          "indexed": true,
          "internalType": "address",
          "name": "account",
          "type": "address"
        },
        {
          "indexed": false,
          "internalType": "bool",
          "name": "blacklisted",
          "type": "bool"
        }
      ],
      "name": "AddressBlacklisted",
      "type": "event"
    },
    {
      "anonymous": false,
      "inputs": [
        {
          "indexed": true,
          "internalType": "address",
          "name": "account",
          "type": "address"
        },
        {
          "indexed": false,
          "internalType": "bool",
          "name": "whitelisted",
          "type": "bool"
        }
      ],
      "name": "AddressWhitelisted",
      "type": "event"
    },
    {
      "anonymous": false,
      "inputs": [
        {
          "indexed": true,
          "internalType": "address",
          "name": "owner",
          "type": "address"
        },
        {
          "indexed": true,
          "internalType": "address",
          "name": "spender",
          "type": "address"
        },
        {
          "indexed": false,
          "internalType": "uint256",
          "name": "value",
          "type": "uint256"
        }
      ],
      "name": "Approval",
      "type": "event"
    },
    {
      "anonymous": false,
      "inputs": [],
      "name": "EIP712DomainChanged",
      "type": "event"
    },
    {
      "anonymous": false,
      "inputs": [
        {
          "indexed": false,
          "internalType": "uint64",
          "name": "version",
          "type": "uint64"
        }
      ],
      "name": "Initialized",
      "type": "event"
    },
    {
      "anonymous": false,
      "inputs": [
        {
          "indexed": true,
          "internalType": "address",
          "name": "previousOwner",
          "type": "address"
        },
        {
          "indexed": true,
          "internalType": "address",
          "name": "newOwner",
          "type": "address"
        }
      ],
      "name": "OwnershipTransferred",
      "type": "event"
    },
    {
      "anonymous": false,
      "inputs": [
        {
          "indexed": false,
          "internalType": "address",
          "name": "account",
          "type": "address"
        }
      ],
      "name": "Paused",
      "type": "event"
    },
    {
      "anonymous": false,
      "inputs": [
        {
          "indexed": true,
          "internalType": "address",
          "name": "from",
          "type": "address"
        },
        {
          "indexed": true,
          "internalType": "address",
          "name": "to",
          "type": "address"
        },
        {
          "indexed": false,
          "internalType": "uint256",
          "name": "value",
          "type": "uint256"
        }
      ],
      "name": "Transfer",
      "type": "event"
    },
    {
      "anonymous": false,
      "inputs": [
        {
          "indexed": false,
          "internalType": "address",
          "name": "account",
          "type": "address"
        }
      ],
      "name": "Unpaused",
      "type": "event"
    },
    {
      "anonymous": false,
      "inputs": [
        {
          "indexed": false,
          "internalType": "bool",
          "name": "enabled",
          "type": "bool"
        }
      ],
      "name": "WhitelistToggled",
      "type": "event"
    },
    {
      "inputs": [],
      "name": "DOMAIN_SEPARATOR",
      "outputs": [
        {
          "internalType": "bytes32",
          "name": "",
          "type": "bytes32"
        }
      ],
      "stateMutability": "view",
      "type": "function"
    },
    {
      "inputs": [
        {
          "internalType": "address",
          "name": "owner",
          "type": "address"
        },
        {
          "internalType": "address",
          "name": "spender",
          "type": "address"
        }
      ],
      "name": "allowance",
      "outputs": [
        {
          "internalType": "uint256",
          "name": "",
          "type": "uint256"
        }
      ],
      "stateMutability": "view",
      "type": "function"
    },
    {
      "inputs": [
        {
          "internalType": "address",
          "name": "spender",
          "type": "address"
        },
        {
          "internalType": "uint256",
          "name": "value",
          "type": "uint256"
        }
      ],
      "name": "approve",
      "outputs": [
        {
          "internalType": "bool",
          "name": "",
          "type": "bool"
        }
      ],
      "stateMutability": "nonpayable",
      "type": "function"
    },
    {
      "inputs": [
        {
          "internalType": "address",
          "name": "account",
          "type": "address"
        }
      ],
      "name": "balanceOf",
      "outputs": [
        {
          "internalType": "uint256",
          "name": "",
          "type": "uint256"
        }
      ],
      "stateMutability": "view",
      "type": "function"
    },
    {
      "inputs": [
        {
          "internalType": "address[]",
          "name": "owners",
          "type": "address[]"
        },
        {
          "internalType": "address[]",
          "name": "spenders",
          "type": "address[]"
        },
        {
          "internalType": "uint256[]",
          "name": "amounts",
          "type": "uint256[]"
        },
        {
          "internalType": "uint256[]",
          "name": "deadlines",
          "type": "uint256[]"
        },
        {
          "internalType": "uint8[]",
          "name": "v",
          "type": "uint8[]"
        },
        {
          "internalType": "bytes32[]",
          "name": "r",
          "type": "bytes32[]"
        },
        {
          "internalType": "bytes32[]",
          "name": "s",
          "type": "bytes32[]"
        }
      ],
      "name": "batchPermit",
      "outputs": [],
      "stateMutability": "nonpayable",
      "type": "function"
    },
    {
      "inputs": [
        {
          "internalType": "address[]",
          "name": "accounts",
          "type": "address[]"
        },
        {
          "internalType": "bool",
          "name": "blacklistStatus",
          "type": "bool"
        }
      ],
      "name": "batchSetBlacklisted",
      "outputs": [],
      "stateMutability": "nonpayable",
      "type": "function"
    },
    {
      "inputs": [
        {
          "internalType": "address[]",
          "name": "accounts",
          "type": "address[]"
        },
        {
          "internalType": "bool",
          "name": "whitelistStatus",
          "type": "bool"
        }
      ],
      "name": "batchSetWhitelisted",
      "outputs": [],
      "stateMutability": "nonpayable",
      "type": "function"
    },
    {
      "inputs": [
        {
          "internalType": "address",
          "name": "",
          "type": "address"
        }
      ],
      "name": "blacklisted",
      "outputs": [
        {
          "internalType": "bool",
          "name": "",
          "type": "bool"
        }
      ],
      "stateMutability": "view",
      "type": "function"
    },
    {
      "inputs": [
        {
          "internalType": "uint256",
          "name": "amount",
          "type": "uint256"
        }
      ],
      "name": "burn",
      "outputs": [],
      "stateMutability": "nonpayable",
      "type": "function"
    },
    {
      "inputs": [],
      "name": "decimals",
      "outputs": [
        {
          "internalType": "uint8",
          "name": "",
          "type": "uint8"
        }
      ],
      "stateMutability": "view",
      "type": "function"
    },
    {
      "inputs": [],
      "name": "eip712Domain",
      "outputs": [
        {
          "internalType": "bytes1",
          "name": "fields",
          "type": "bytes1"
        },
        {
          "internalType": "string",
          "name": "name",
          "type": "string"
        },
        {
          "internalType": "string",
          "name": "version",
          "type": "string"
        },
        {
          "internalType": "uint256",
          "name": "chainId",
          "type": "uint256"
        },
        {
          "internalType": "address",
          "name": "verifyingContract",
          "type": "address"
        },
        {
          "internalType": "bytes32",
          "name": "salt",
          "type": "bytes32"
        },
        {
          "internalType": "uint256[]",
          "name": "extensions",
          "type": "uint256[]"
        }
      ],
      "stateMutability": "view",
      "type": "function"
    },
    {
      "inputs": [],
      "name": "getDomainSeparator",
      "outputs": [
        {
          "internalType": "bytes32",
          "name": "",
          "type": "bytes32"
        }
      ],
      "stateMutability": "view",
      "type": "function"
    },
    {
      "inputs": [
        {
          "internalType": "address",
          "name": "owner",
          "type": "address"
        }
      ],
      "name": "getNonce",
      "outputs": [
        {
          "internalType": "uint256",
          "name": "",
          "type": "uint256"
        }
      ],
      "stateMutability": "view",
      "type": "function"
    },
    {
      "inputs": [
        {
          "internalType": "string",
          "name": "name",
          "type": "string"
        },
        {
          "internalType": "string",
          "name": "symbol",
          "type": "string"
        },
        {
          "internalType": "uint256",
          "name": "initialSupply",
          "type": "uint256"
        },
        {
          "internalType": "uint256",
          "name": "_maxSupply",
          "type": "uint256"
        },
        {
          "internalType": "address",
          "name": "initialOwner",
          "type": "address"
        }
      ],
      "name": "initialize",
      "outputs": [],
      "stateMutability": "nonpayable",
      "type": "function"
    },
    {
      "inputs": [
        {
          "internalType": "uint256",
          "name": "_newSupply",
          "type": "uint256"
        }
      ],
      "name": "initializeV2",
      "outputs": [],
      "stateMutability": "nonpayable",
      "type": "function"
    },
    {
      "inputs": [
        {
          "internalType": "address",
          "name": "account",
          "type": "address"
        }
      ],
      "name": "isBlacklisted",
      "outputs": [
        {
          "internalType": "bool",
          "name": "",
          "type": "bool"
        }
      ],
      "stateMutability": "view",
      "type": "function"
    },
    {
      "inputs": [],
      "name": "isWhitelistEnabled",
      "outputs": [
        {
          "internalType": "bool",
          "name": "",
          "type": "bool"
        }
      ],
      "stateMutability": "view",
      "type": "function"
    },
    {
      "inputs": [
        {
          "internalType": "address",
          "name": "account",
          "type": "address"
        }
      ],
      "name": "isWhitelisted",
      "outputs": [
        {
          "internalType": "bool",
          "name": "",
          "type": "bool"
        }
      ],
      "stateMutability": "view",
      "type": "function"
    },
    {
      "inputs": [],
      "name": "maxSupply",
      "outputs": [
        {
          "internalType": "uint256",
          "name": "",
          "type": "uint256"
        }
      ],
      "stateMutability": "view",
      "type": "function"
    },
    {
      "inputs": [
        {
          "internalType": "address",
          "name": "to",
          "type": "address"
        },
        {
          "internalType": "uint256",
          "name": "amount",
          "type": "uint256"
        }
      ],
      "name": "mint",
      "outputs": [],
      "stateMutability": "nonpayable",
      "type": "function"
    },
    {
      "inputs": [],
      "name": "name",
      "outputs": [
        {
          "internalType": "string",
          "name": "",
          "type": "string"
        }
      ],
      "stateMutability": "view",
      "type": "function"
    },
    {
      "inputs": [
        {
          "internalType": "address",
          "name": "owner",
          "type": "address"
        }
      ],
      "name": "nonces",
      "outputs": [
        {
          "internalType": "uint256",
          "name": "",
          "type": "uint256"
        }
      ],
      "stateMutability": "view",
      "type": "function"
    },
    {
      "inputs": [],
      "name": "owner",
      "outputs": [
        {
          "internalType": "address",
          "name": "",
          "type": "address"
        }
      ],
      "stateMutability": "view",
      "type": "function"
    },
    {
      "inputs": [],
      "name": "pause",
      "outputs": [],
      "stateMutability": "nonpayable",
      "type": "function"
    },
    {
      "inputs": [],
      "name": "paused",
      "outputs": [
        {
          "internalType": "bool",
          "name": "",
          "type": "bool"
        }
      ],
      "stateMutability": "view",
      "type": "function"
    },
    {
      "inputs": [
        {
          "internalType": "address",
          "name": "owner",
          "type": "address"
        },
        {
          "internalType": "address",
          "name": "spender",
          "type": "address"
        },
        {
          "internalType": "uint256",
          "name": "value",
          "type": "uint256"
        },
        {
          "internalType": "uint256",
          "name": "deadline",
          "type": "uint256"
        },
        {
          "internalType": "uint8",
          "name": "v",
          "type": "uint8"
        },
        {
          "internalType": "bytes32",
          "name": "r",
          "type": "bytes32"
        },
        {
          "internalType": "bytes32",
          "name": "s",
          "type": "bytes32"
        }
      ],
      "name": "permit",
      "outputs": [],
      "stateMutability": "nonpayable",
      "type": "function"
    },
    {
      "inputs": [
        {
          "internalType": "address",
          "name": "from",
          "type": "address"
        },
        {
          "internalType": "address",
          "name": "to",
          "type": "address"
        },
        {
          "internalType": "uint256",
          "name": "amount",
          "type": "uint256"
        },
        {
          "internalType": "uint256",
          "name": "deadline",
          "type": "uint256"
        },
        {
          "internalType": "uint8",
          "name": "v",
          "type": "uint8"
        },
        {
          "internalType": "bytes32",
          "name": "r",
          "type": "bytes32"
        },
        {
          "internalType": "bytes32",
          "name": "s",
          "type": "bytes32"
        }
      ],
      "name": "permitTransfer",
      "outputs": [],
      "stateMutability": "nonpayable",
      "type": "function"
    },
    {
      "inputs": [],
      "name": "renounceOwnership",
      "outputs": [],
      "stateMutability": "nonpayable",
      "type": "function"
    },
    {
      "inputs": [
        {
          "internalType": "address",
          "name": "account",
          "type": "address"
        },
        {
          "internalType": "bool",
          "name": "blacklistStatus",
          "type": "bool"
        }
      ],
      "name": "setBlacklisted",
      "outputs": [],
      "stateMutability": "nonpayable",
      "type": "function"
    },
    {
      "inputs": [
        {
          "internalType": "bool",
          "name": "enabled",
          "type": "bool"
        }
      ],
      "name": "setWhitelistEnabled",
      "outputs": [],
      "stateMutability": "nonpayable",
      "type": "function"
    },
    {
      "inputs": [
        {
          "internalType": "address",
          "name": "account",
          "type": "address"
        },
        {
          "internalType": "bool",
          "name": "whitelistStatus",
          "type": "bool"
        }
      ],
      "name": "setWhitelisted",
      "outputs": [],
      "stateMutability": "nonpayable",
      "type": "function"
    },
    {
      "inputs": [],
      "name": "symbol",
      "outputs": [
        {
          "internalType": "string",
          "name": "",
          "type": "string"
        }
      ],
      "stateMutability": "view",
      "type": "function"
    },
    {
      "inputs": [],
      "name": "totalMinted",
      "outputs": [
        {
          "internalType": "uint256",
          "name": "",
          "type": "uint256"
        }
      ],
      "stateMutability": "view",
      "type": "function"
    },
    {
      "inputs": [],
      "name": "totalSupply",
      "outputs": [
        {
          "internalType": "uint256",
          "name": "",
          "type": "uint256"
        }
      ],
      "stateMutability": "view",
      "type": "function"
    },
    {
      "inputs": [
        {
          "internalType": "address",
          "name": "to",
          "type": "address"
        },
        {
          "internalType": "uint256",
          "name": "value",
          "type": "uint256"
        }
      ],
      "name": "transfer",
      "outputs": [
        {
          "internalType": "bool",
          "name": "",
          "type": "bool"
        }
      ],
      "stateMutability": "nonpayable",
      "type": "function"
    },
    {
      "inputs": [
        {
          "internalType": "address",
          "name": "from",
          "type": "address"
        },
        {
          "internalType": "address",
          "name": "to",
          "type": "address"
        },
        {
          "internalType": "uint256",
          "name": "value",
          "type": "uint256"
        }
      ],
      "name": "transferFrom",
      "outputs": [
        {
          "internalType": "bool",
          "name": "",
          "type": "bool"
        }
      ],
      "stateMutability": "nonpayable",
      "type": "function"
    },
    {
      "inputs": [
        {
          "internalType": "address",
          "name": "newOwner",
          "type": "address"
        }
      ],
      "name": "transferOwnership",
      "outputs": [],
      "stateMutability": "nonpayable",
      "type": "function"
    },
    {
      "inputs": [],
      "name": "unpause",
      "outputs": [],
      "stateMutability": "nonpayable",
      "type": "function"
    },
    {
      "inputs": [
        {
          "internalType": "uint256",
          "name": "newMaxSupply",
          "type": "uint256"
        }
      ],
      "name": "updateMaxSupply",
      "outputs": [],
      "stateMutability": "nonpayable",
      "type": "function"
    },
    {
      "inputs": [],
      "name": "version",
      "outputs": [
        {
          "internalType": "string",
          "name": "",
          "type": "string"
        }
      ],
      "stateMutability": "pure",
      "type": "function"
    },
    {
      "inputs": [],
      "name": "whitelistEnabled",
      "outputs": [
        {
          "internalType": "bool",
          "name": "",
          "type": "bool"
        }
      ],
      "stateMutability": "view",
      "type": "function"
    },
    {
      "inputs": [
        {
          "internalType": "address",
          "name": "",
          "type": "address"
        }
      ],
      "name": "whitelisted",
      "outputs": [
        {
          "internalType": "bool",
          "name": "",
          "type": "bool"
        }
      ],
      "stateMutability": "view",
      "type": "function"
    }
  ],
  "bytecode": "0x6080806040523461001657613460908161001c8239f35b600080fdfe6080604052600436101561001257600080fd5b60003560e01c8063052d9e7e1461222457806306fdde0314612156578063095ea7b31461213057806318160ddd146120f3578063184d69ab14610f4257806323b872dd146120ba5780632d0335ab14610a87578063313ce5671461209e57806333eea1811461155a5780633644e515146103505780633af32abf146103d25780633f4ba83a146114b957806340c10f191461128057806342966c6814610f6557806351fb012d14610f4257806354fd4d5014610ee45780635b4e128c14610e1a5780635c975abb14610dd857806365f7488814610bc157806370a0823114610b68578063715018a614610ae05780637ecebe0014610a875780638456cb5914610a0e57806384b0196e1461087857806387164412146107bd5780638da5cb5b146107775780639281aa0b146106f3578063957f82cd1461063357806395d89b411461052a578063a2309ff81461050c578063a9059cbb146104db578063d01dd6d21461044c578063d505accf1461042f578063d5abeb0114610411578063d936547e146103d2578063dbac26e9146101ea578063dd62ed3e14610355578063ed24911d14610350578063f065895b1461031d578063f103b43314610259578063f2fde38b1461022e5763fe575a87146101ea57600080fd5b34610229576020366003190112610229576001600160a01b0361020b6122d5565b166000526002602052602060ff604060002054166040519015158152f35b600080fd5b346102295760203660031901126102295761025761024a6122d5565b610252612b1e565b612a73565b005b3461022957602036600319011261022957600435610275612b1e565b801580156102f2575b1561028857600055005b608460405162461bcd60e51b815260206004820152602860248201527f4e6577206d617820737570706c79206d757374206265203e3d2063757272656e60448201527f7420737570706c790000000000000000000000000000000000000000000000006064820152fd5b507f52c63247e1f47db19d5ce0460030c497f067ca4cebf71ba98eeadabe20bace025481101561027e565b346102295761025761034b61033136612426565b92610343979497969596929192613038565b8733876128e3565b61265a565b612396565b346102295760403660031901126102295761036e6122d5565b6001600160a01b036103ba6103816122eb565b926001600160a01b03166000527f52c63247e1f47db19d5ce0460030c497f067ca4cebf71ba98eeadabe20bace01602052604060002090565b91166000526020526020604060002054604051908152f35b34610229576020366003190112610229576001600160a01b036103f36122d5565b166000526003602052602060ff604060002054166040519015158152f35b34610229576000366003190112610229576020600054604051908152f35b346102295761025761044036612426565b959490949391936128e3565b34610229576040366003190112610229576104656122d5565b7f97b7af35c8c05eca90f543eb78b16fdf2664d3e6c9a907286f310647d9813b7160206001600160a01b03610498612286565b936104a1612b1e565b16926104ae84151561284d565b83600052600282526104d08160406000209060ff801983541691151516179055565b6040519015158152a2005b34610229576040366003190112610229576105016104f76122d5565b6024359033612b81565b602060405160018152f35b34610229576000366003190112610229576020600154604051908152f35b34610229576000366003190112610229576040517f52c63247e1f47db19d5ce0460030c497f067ca4cebf71ba98eeadabe20bace04805482600061056d83612475565b92838352602094600191866001821691826000146106115750506001146105b5575b505061059d9250038361231d565b6105b1604051928284938452830190612295565b0390f35b8592506000527f46a2803e59a4de4e7a4c574b1243f25977ac4c77d5a1a4a609b5394cebb4a2aa906000915b8583106105f957505061059d9350820101858061058f565b805483890185015287945086939092019181016105e1565b925093505061059d94915060ff191682840152151560051b820101858061058f565b3461022957610641366123ea565b610649612b1e565b60005b82811061065557005b6001906001600160a01b0361067f8161067761067285898b612813565b612839565b161515612898565b8061068e61067284888a612813565b166000527faf367c7d20ce5b2ab6da56afd0c9c39b00ba995263c60292a3e1ee3781fd4885602091600383526106d48660406000209060ff801983541691151516179055565b6106e261067285898b612813565b16916040518615158152a20161064c565b346102295760403660031901126102295761070c6122d5565b7faf367c7d20ce5b2ab6da56afd0c9c39b00ba995263c60292a3e1ee3781fd488560206001600160a01b0361073f612286565b93610748612b1e565b1692610755841515612898565b83600052600382526104d08160406000209060ff801983541691151516179055565b346102295760003660031901126102295760206001600160a01b037f9016d09d72d40fdae2fd8ceac6b6234c7706214fd39c1cd1e609a0528c1993005416604051908152f35b34610229576107cb366123ea565b6107d3612b1e565b60005b8281106107df57005b6001906001600160a01b03610804816107fc61067285898b612813565b16151561284d565b8061081361067284888a612813565b166000527f97b7af35c8c05eca90f543eb78b16fdf2664d3e6c9a907286f310647d9813b71602091600283526108598660406000209060ff801983541691151516179055565b61086761067285898b612813565b16916040518615158152a2016107d6565b34610229576000366003190112610229577fa16a46d94261c7517cc8ff89f61c0ce93598e3c849801011dee649a6a557d1005415806109e5575b156109a1576108bf6124af565b6108c7612599565b60405160208082019282841067ffffffffffffffff85111761098b5791602061093e85946109309796604052600084526040519788977f0f00000000000000000000000000000000000000000000000000000000000000895260e0858a015260e0890190612295565b908782036040890152612295565b91466060870152306080870152600060a087015285830360c0870152519182815201929160005b82811061097457505050500390f35b835185528695509381019392810192600101610965565b634e487b7160e01b600052604160045260246000fd5b606460405162461bcd60e51b815260206004820152601560248201527f4549503731323a20556e696e697469616c697a656400000000000000000000006044820152fd5b507fa16a46d94261c7517cc8ff89f61c0ce93598e3c849801011dee649a6a557d10154156108b2565b3461022957600036600319011261022957610a27612b1e565b610a2f613038565b7fcd5ed15c6e187e77e9aee88184c21f4f2182ab5827cb3b7e07fbedcd63f03300600160ff198254161790557f62e78cea01bee320cd4e420270b5ea74000d11b0c9f74754ebdbfc544b05a2586020604051338152a1005b34610229576020366003190112610229576001600160a01b03610aa86122d5565b166000527f5ab42ced628888259c08ac98db1eb0cf702fc1501344311d8b100cd1bfe4bb006020526020604060002054604051908152f35b3461022957600036600319011261022957610af9612b1e565b60006001600160a01b037f9016d09d72d40fdae2fd8ceac6b6234c7706214fd39c1cd1e609a0528c19930080549073ffffffffffffffffffffffffffffffffffffffff1982169055167f8be0079c531659141344cd1fd0a4f28419497f9722a3daafe3b4186f6b6457e08280a3005b34610229576020366003190112610229576001600160a01b03610b896122d5565b166000527f52c63247e1f47db19d5ce0460030c497f067ca4cebf71ba98eeadabe20bace006020526020604060002054604051908152f35b346102295760e03660031901126102295767ffffffffffffffff60043581811161022957610bf39036906004016123b9565b9060243583811161022957610c0c9036906004016123b9565b9060443585811161022957610c259036906004016123b9565b909160643587811161022957610c3f9036906004016123b9565b909260843589811161022957610c599036906004016123b9565b9360a4358b811161022957610c729036906004016123b9565b96909b60c43590811161022957610c8d9036906004016123b9565b9a9098610c98613038565b8a8d1480610dcf575b80610dc6575b80610dbd575b80610db4575b80610dab575b15610d675760005b8d8110610cca57005b8e818f928f908f908f908f908f908f908f908f908f8f908f8f908f9285610cf48180968195612813565b610cfd90612839565b9d610d0792612813565b610d1090612839565b96610d1a92612813565b3595610d2592612813565b3594610d3092612813565b359360ff851685036102295788610d5f98610d5182610d589460019e612813565b3597612813565b35956128e3565b019050610cc1565b606460405162461bcd60e51b815260206004820152601660248201527f417272617973206c656e677468206d69736d61746368000000000000000000006044820152fd5b508b8914610cb9565b50888814610cb3565b50878714610cad565b50868614610ca7565b50858b14610ca1565b3461022957600036600319011261022957602060ff7fcd5ed15c6e187e77e9aee88184c21f4f2182ab5827cb3b7e07fbedcd63f0330054166040519015158152f35b34610229576020366003190112610229577ff0c57e16840df040f15088dc2f81fe391c3923bec73e23a9662efc9c229c6a00805460ff8160401c168015610ecf575b610ea55760029060043560005568ffffffffffffffffff19161790557fc7f505b2f371ae2175ee4913f4499e1f2633a7b5936321eed1cdaeb6115181d2602060405160028152a1005b60046040517ff92ee8a9000000000000000000000000000000000000000000000000000000008152fd5b50600267ffffffffffffffff82161015610e5c565b34610229576000366003190112610229576105b1604051610f0481612301565b600581527f322e302e300000000000000000000000000000000000000000000000000000006020820152604051918291602083526020830190612295565b3461022957600036600319011261022957602060ff600454166040519015158152f35b346102295760208060031936011261022957600435610f82612b1e565b610f8a613038565b610f958115156127a5565b336000527f52c63247e1f47db19d5ce0460030c497f067ca4cebf71ba98eeadabe20bace0091828152816040600020541061123c57331561120b57336000526002815260ff604060002054166111bd57600080526002815260ff604060002054166111795760ff600454166110ac575b61100d613038565b33600052828152604060002054928284106110865790826000947fddf252ad1be2c89b69c2b068fc378daa952ba7f163c4a11628f55a4df523b3ef9333875283520360408520557f52c63247e1f47db19d5ce0460030c497f067ca4cebf71ba98eeadabe20bace028381540390556040519283523392a3005b60405163391434e360e21b81523360048201526024810185905260448101849052606490fd5b336000526003815260ff604060002054161561112757600080526003815260ff60406000205416611005576084906040519062461bcd60e51b82526004820152602360248201527f5472616e7366657220746f206e6f6e2d77686974656c6973746564206164647260448201526265737360e81b6064820152fd5b6084906040519062461bcd60e51b82526004820152602560248201527f5472616e736665722066726f6d206e6f6e2d77686974656c6973746564206164604482015264647265737360d81b6064820152fd5b6064906040519062461bcd60e51b82526004820152601f60248201527f5472616e7366657220746f20626c61636b6c69737465642061646472657373006044820152fd5b6084906040519062461bcd60e51b82526004820152602160248201527f5472616e736665722066726f6d20626c61636b6c6973746564206164647265736044820152607360f81b6064820152fd5b60246040517f96c6fd1e00000000000000000000000000000000000000000000000000000000815260006004820152fd5b6064906040519062461bcd60e51b82526004820152601c60248201527f496e73756666696369656e742062616c616e636520746f206275726e000000006044820152fd5b34610229576040366003190112610229576112996122d5565b6024356112a4612b1e565b6112ac613038565b6001600160a01b0382168015611475576112c78215156127a5565b80600052600260205260ff6040600020541661140b5760ff60045416611385575b506000548061130b575b5061025791611303826001546127f0565b600155612e0c565b611336827f52c63247e1f47db19d5ce0460030c497f067ca4cebf71ba98eeadabe20bace02546127f0565b1161134157826112f2565b606460405162461bcd60e51b815260206004820152601f60248201527f4d696e74696e6720776f756c6420657863656564206d617820737570706c79006044820152fd5b600052600360205260ff60406000205416156113a157826112e8565b608460405162461bcd60e51b815260206004820152602660248201527f43616e6e6f74206d696e7420746f206e6f6e2d77686974656c6973746564206160448201527f64647265737300000000000000000000000000000000000000000000000000006064820152fd5b608460405162461bcd60e51b815260206004820152602260248201527f43616e6e6f74206d696e7420746f20626c61636b6c697374656420616464726560448201527f73730000000000000000000000000000000000000000000000000000000000006064820152fd5b606460405162461bcd60e51b815260206004820152601b60248201527f43616e6e6f74206d696e7420746f207a65726f206164647265737300000000006044820152fd5b34610229576000366003190112610229576114d2612b1e565b7fcd5ed15c6e187e77e9aee88184c21f4f2182ab5827cb3b7e07fbedcd63f03300805460ff8116156115305760ff191690557f5db9ee0a495bf2e6ff9c91a7834c1ba4fdd244a5e8aa4e537bd38aeae4b073aa6020604051338152a1005b60046040517f8dfc202b000000000000000000000000000000000000000000000000000000008152fd5b346102295760a03660031901126102295760043567ffffffffffffffff81116102295761158b90369060040161233f565b60243567ffffffffffffffff8111610229576115ab90369060040161233f565b6001600160a01b0360843516918260843503610229577ff0c57e16840df040f15088dc2f81fe391c3923bec73e23a9662efc9c229c6a00549267ffffffffffffffff84168015908161208e575b6001149081612084575b15908161207b575b50610ea557600167ffffffffffffffff198516177ff0c57e16840df040f15088dc2f81fe391c3923bec73e23a9662efc9c229c6a005560ff8460401c161561203c575b60643560443511801590612032575b15611fc85715611f5f5761166e61314e565b61167661314e565b80519267ffffffffffffffff841161098b576116b27f52c63247e1f47db19d5ce0460030c497f067ca4cebf71ba98eeadabe20bace0354612475565b601f8111611ea1575b50602093601f8111600114611de0578091929394600091611dd5575b508160011b916000199060031b1c1916177f52c63247e1f47db19d5ce0460030c497f067ca4cebf71ba98eeadabe20bace03555b825167ffffffffffffffff811161098b576117467f52c63247e1f47db19d5ce0460030c497f067ca4cebf71ba98eeadabe20bace0454612475565b601f8111611d55575b506020601f8211600114611c915781929394600092611c86575b50508160011b916000199060031b1c1916177f52c63247e1f47db19d5ce0460030c497f067ca4cebf71ba98eeadabe20bace04555b6117a661314e565b604051906117b382612301565b600182527f310000000000000000000000000000000000000000000000000000000000000060208301526117e561314e565b825167ffffffffffffffff811161098b576118207fa16a46d94261c7517cc8ff89f61c0ce93598e3c849801011dee649a6a557d10254612475565b601f8111611bc8575b506020601f8211600114611b065781929394600092611afb575b50508160011b916000199060031b1c1916177fa16a46d94261c7517cc8ff89f61c0ce93598e3c849801011dee649a6a557d102555b81519167ffffffffffffffff831161098b577fa16a46d94261c7517cc8ff89f61c0ce93598e3c849801011dee649a6a557d103906118b68254612475565b601f8111611a97575b50602090601f8511600114611a115760ff949160009183611a06575b50508160011b916000199060031b1c19161790555b60007fa16a46d94261c7517cc8ff89f61c0ce93598e3c849801011dee649a6a557d1005560007fa16a46d94261c7517cc8ff89f61c0ce93598e3c849801011dee649a6a557d1015561194061314e565b61194861314e565b611953608435612a73565b61195b61314e565b60643560005560443560015581196004541660045561197e604435608435612e0c565b60401c161561198957005b68ff0000000000000000197ff0c57e16840df040f15088dc2f81fe391c3923bec73e23a9662efc9c229c6a0054167ff0c57e16840df040f15088dc2f81fe391c3923bec73e23a9662efc9c229c6a00557fc7f505b2f371ae2175ee4913f4499e1f2633a7b5936321eed1cdaeb6115181d2602060405160018152a1005b0151905085806118db565b90601f19851691836000527f5f9ce34815f8e11431c7bb75a8e6886a91478f7ffc1dbb0a98dc240fddd76b759260005b818110611a7f575091600193918760ff989410611a66575b505050811b0190556118f0565b015160001960f88460031b161c19169055858080611a59565b92936020600181928786015181550195019301611a41565b826000527f5f9ce34815f8e11431c7bb75a8e6886a91478f7ffc1dbb0a98dc240fddd76b75601f860160051c81019160208710611af1575b601f0160051c01905b818110611ae557506118bf565b60008155600101611ad8565b9091508190611acf565b015190508480611843565b601f198216907fa16a46d94261c7517cc8ff89f61c0ce93598e3c849801011dee649a6a557d1026000527f42ad5d3e1f2e6e70edcf6d991b8a3023d3fca8047a131592f9edb9fd9b89d57d9160005b818110611bb057509583600195969710611b97575b505050811b017fa16a46d94261c7517cc8ff89f61c0ce93598e3c849801011dee649a6a557d10255611878565b015160001960f88460031b161c19169055848080611b6a565b9192602060018192868b015181550194019201611b55565b7fa16a46d94261c7517cc8ff89f61c0ce93598e3c849801011dee649a6a557d102600052601f820160051c7f42ad5d3e1f2e6e70edcf6d991b8a3023d3fca8047a131592f9edb9fd9b89d57d0160208310611c5f575b601f820160051c7f42ad5d3e1f2e6e70edcf6d991b8a3023d3fca8047a131592f9edb9fd9b89d57d018110611c535750611829565b60008155600101611c1e565b507f42ad5d3e1f2e6e70edcf6d991b8a3023d3fca8047a131592f9edb9fd9b89d57d611c1e565b015190508480611769565b7f52c63247e1f47db19d5ce0460030c497f067ca4cebf71ba98eeadabe20bace046000527f46a2803e59a4de4e7a4c574b1243f25977ac4c77d5a1a4a609b5394cebb4a2aa9060005b601f1984168110611d3d5750600193949583601f19811610611d24575b505050811b017f52c63247e1f47db19d5ce0460030c497f067ca4cebf71ba98eeadabe20bace045561179e565b015160001960f88460031b161c19169055848080611cf7565b9091602060018192858a015181550193019101611cda565b7f52c63247e1f47db19d5ce0460030c497f067ca4cebf71ba98eeadabe20bace046000527f46a2803e59a4de4e7a4c574b1243f25977ac4c77d5a1a4a609b5394cebb4a2aa601f830160051c810160208410611dce575b601f830160051c82018110611dc257505061174f565b60008155600101611dac565b5080611dac565b9050830151856116d7565b601f198116947f52c63247e1f47db19d5ce0460030c497f067ca4cebf71ba98eeadabe20bace036000527f2ae08a8e29253f69ac5d979a101956ab8f8d9d7ded63fa7a83b16fc47648eab09060005b878110611e8957508260019495969710611e70575b5050811b017f52c63247e1f47db19d5ce0460030c497f067ca4cebf71ba98eeadabe20bace035561170b565b85015160001960f88460031b161c191690558580611e44565b90916020600181928589015181550193019101611e2f565b7f52c63247e1f47db19d5ce0460030c497f067ca4cebf71ba98eeadabe20bace03600052601f850160051c7f2ae08a8e29253f69ac5d979a101956ab8f8d9d7ded63fa7a83b16fc47648eab00160208610611f38575b601f820160051c7f2ae08a8e29253f69ac5d979a101956ab8f8d9d7ded63fa7a83b16fc47648eab0018110611f2c57506116bb565b60008155600101611ef7565b507f2ae08a8e29253f69ac5d979a101956ab8f8d9d7ded63fa7a83b16fc47648eab0611ef7565b608460405162461bcd60e51b8152602060048201526024808201527f496e697469616c206f776e65722063616e6e6f74206265207a65726f2061646460448201527f72657373000000000000000000000000000000000000000000000000000000006064820152fd5b608460405162461bcd60e51b815260206004820152602160248201527f496e697469616c20737570706c792065786365656473206d617820737570706c60448201527f79000000000000000000000000000000000000000000000000000000000000006064820152fd5b506064351561165c565b68ffffffffffffffffff19841668010000000000000001177ff0c57e16840df040f15088dc2f81fe391c3923bec73e23a9662efc9c229c6a005561164d565b9050158561160a565b303b159150611602565b604086901c60ff161591506115f8565b3461022957600036600319011261022957602060405160128152f35b346102295760603660031901126102295760206120e96120d86122d5565b6120e06122eb565b6044359161265a565b6040519015158152f35b346102295760003660031901126102295760207f52c63247e1f47db19d5ce0460030c497f067ca4cebf71ba98eeadabe20bace0254604051908152f35b346102295760403660031901126102295761050161214c6122d5565b602435903361308d565b34610229576000366003190112610229576040517f52c63247e1f47db19d5ce0460030c497f067ca4cebf71ba98eeadabe20bace03805482600061219983612475565b92838352602094600191866001821691826000146106115750506001146121c857505061059d9250038361231d565b8592506000527f2ae08a8e29253f69ac5d979a101956ab8f8d9d7ded63fa7a83b16fc47648eab0906000915b85831061220c57505061059d9350820101858061058f565b805483890185015287945086939092019181016121f4565b34610229576020366003190112610229576004358015158091036102295760207fc816dd38770d8cbe6a8fb169cb4961c28b697d528ebfd3c353ab8f74e82f1f9a9161226e612b1e565b60ff196004541660ff821617600455604051908152a1005b60243590811515820361022957565b919082519283825260005b8481106122c1575050826000602080949584010152601f8019910116010190565b6020818301810151848301820152016122a0565b600435906001600160a01b038216820361022957565b602435906001600160a01b038216820361022957565b6040810190811067ffffffffffffffff82111761098b57604052565b90601f8019910116810190811067ffffffffffffffff82111761098b57604052565b81601f820112156102295780359067ffffffffffffffff821161098b5760405192612374601f8401601f19166020018561231d565b8284526020838301011161022957816000926020809301838601378301015290565b346102295760003660031901126102295760206123b16131a7565b604051908152f35b9181601f840112156102295782359167ffffffffffffffff8311610229576020808501948460051b01011161022957565b6040600319820112610229576004359067ffffffffffffffff821161022957612415916004016123b9565b909160243580151581036102295790565b60e0906003190112610229576001600160a01b03906004358281168103610229579160243590811681036102295790604435906064359060843560ff81168103610229579060a4359060c43590565b90600182811c921680156124a5575b602083101461248f57565b634e487b7160e01b600052602260045260246000fd5b91607f1691612484565b604051906000827fa16a46d94261c7517cc8ff89f61c0ce93598e3c849801011dee649a6a557d102918254926124e484612475565b808452936020916001918281169081156125735750600114612512575b5050506125109250038361231d565b565b60009081527f42ad5d3e1f2e6e70edcf6d991b8a3023d3fca8047a131592f9edb9fd9b89d57d9590935091905b82841061255b5750612510945050508101602001388080612501565b8554888501830152948501948794509281019261253f565b925050506020925061251094915060ff191682840152151560051b820101388080612501565b604051906000827fa16a46d94261c7517cc8ff89f61c0ce93598e3c849801011dee649a6a557d103918254926125ce84612475565b8084529360209160019182811690811561257357506001146125f9575050506125109250038361231d565b60009081527f5f9ce34815f8e11431c7bb75a8e6886a91478f7ffc1dbb0a98dc240fddd76b759590935091905b8284106126425750612510945050508101602001388080612501565b85548885018301529485019487945092810192612626565b929190612699846001600160a01b03166000527f52c63247e1f47db19d5ce0460030c497f067ca4cebf71ba98eeadabe20bace01602052604060002090565b93600094338652602052604085205460001981106126c3575b506126be939450612b81565b600190565b838110612765576001600160a01b0382161561274d57331561273557946040846126be9697612724856001600160a01b03166000527f52c63247e1f47db19d5ce0460030c497f067ca4cebf71ba98eeadabe20bace01602052604060002090565b3385526020520391205584936126b2565b60248660405190634a1406b160e11b82526004820152fd5b6024866040519063e602df0560e01b82526004820152fd5b6040517ffb8f41b2000000000000000000000000000000000000000000000000000000008152336004820152602481019190915260448101849052606490fd5b156127ac57565b606460405162461bcd60e51b815260206004820152602060248201527f416d6f756e74206d7573742062652067726561746572207468616e207a65726f6044820152fd5b919082018092116127fd57565b634e487b7160e01b600052601160045260246000fd5b91908110156128235760051b0190565b634e487b7160e01b600052603260045260246000fd5b356001600160a01b03811681036102295790565b1561285457565b606460405162461bcd60e51b815260206004820152601d60248201527f43616e6e6f7420626c61636b6c697374207a65726f20616464726573730000006044820152fd5b1561289f57565b606460405162461bcd60e51b815260206004820152601d60248201527f43616e6e6f742077686974656c697374207a65726f20616464726573730000006044820152fd5b929695919496939093804211612a42576001600160a01b039182851693846000527f5ab42ced628888259c08ac98db1eb0cf702fc1501344311d8b100cd1bfe4bb006020526040998a9283600020948554956001870190558451958860208801967f6e71edae12b1b97f4d1f60370fef10105fa2faae0126114a169c64845d6126c98852880152878b1660608801528b608088015260a087015260c086015260c0855260e085019480861067ffffffffffffffff87111761098b578c6129ed956042926129f69883525190206129b76131a7565b9151917f19010000000000000000000000000000000000000000000000000000000000008352600283015260228201522061321d565b909291926132ad565b1690808203612a0c57505061251093945061308d565b604492508651917f4b800e4600000000000000000000000000000000000000000000000000000000835260048301526024820152fd5b602490604051907f627913020000000000000000000000000000000000000000000000000000000082526004820152fd5b6001600160a01b03809116908115612aed577f9016d09d72d40fdae2fd8ceac6b6234c7706214fd39c1cd1e609a0528c1993008054908373ffffffffffffffffffffffffffffffffffffffff198316179055167f8be0079c531659141344cd1fd0a4f28419497f9722a3daafe3b4186f6b6457e0600080a3565b60246040517f1e4fbdf700000000000000000000000000000000000000000000000000000000815260006004820152fd5b6001600160a01b037f9016d09d72d40fdae2fd8ceac6b6234c7706214fd39c1cd1e609a0528c19930054163303612b5157565b60246040517f118cdaa7000000000000000000000000000000000000000000000000000000008152336004820152fd5b9291906001600160a01b0380851691821561120b5716918215612ddb576000908282526020916002835260409060ff8282205416612d8e578581526002845260ff8282205416612d4b5760ff60045416612c86575b612bde613038565b8481527f52c63247e1f47db19d5ce0460030c497f067ca4cebf71ba98eeadabe20bace008085528282205498848a10612c56575090838697989984937fddf252ad1be2c89b69c2b068fc378daa952ba7f163c4a11628f55a4df523b3ef988452875203828220558781522082815401905551908152a3565b835163391434e360e21b81526001600160a01b03919091166004820152602481018a905260448101859052606490fd5b8481526003845260ff828220541615612cfa578581526003845260ff8282205416612bd65760848483519062461bcd60e51b82526004820152602360248201527f5472616e7366657220746f206e6f6e2d77686974656c6973746564206164647260448201526265737360e81b6064820152fd5b60848483519062461bcd60e51b82526004820152602560248201527f5472616e736665722066726f6d206e6f6e2d77686974656c6973746564206164604482015264647265737360d81b6064820152fd5b60648483519062461bcd60e51b82526004820152601f60248201527f5472616e7366657220746f20626c61636b6c69737465642061646472657373006044820152fd5b60848483519062461bcd60e51b82526004820152602160248201527f5472616e736665722066726f6d20626c61636b6c6973746564206164647265736044820152607360f81b6064820152fd5b60246040517fec442f0500000000000000000000000000000000000000000000000000000000815260006004820152fd5b6001600160a01b0316908115612ddb5760009081805260209060028252604060ff8185205416612feb578484526002835260ff8185205416612fa85760ff60045416612ee3575b907fddf252ad1be2c89b69c2b068fc378daa952ba7f163c4a11628f55a4df523b3ef9291612e7f613038565b7f52c63247e1f47db19d5ce0460030c497f067ca4cebf71ba98eeadabe20bace02612eab8382546127f0565b90558585527f52c63247e1f47db19d5ce0460030c497f067ca4cebf71ba98eeadabe20bace00835280852082815401905551908152a3565b8380526003835260ff818520541615612f57578484526003835260ff8185205416612e535782608491519062461bcd60e51b82526004820152602360248201527f5472616e7366657220746f206e6f6e2d77686974656c6973746564206164647260448201526265737360e81b6064820152fd5b82608491519062461bcd60e51b82526004820152602560248201527f5472616e736665722066726f6d206e6f6e2d77686974656c6973746564206164604482015264647265737360d81b6064820152fd5b82606491519062461bcd60e51b82526004820152601f60248201527f5472616e7366657220746f20626c61636b6c69737465642061646472657373006044820152fd5b82608491519062461bcd60e51b82526004820152602160248201527f5472616e736665722066726f6d20626c61636b6c6973746564206164647265736044820152607360f81b6064820152fd5b60ff7fcd5ed15c6e187e77e9aee88184c21f4f2182ab5827cb3b7e07fbedcd63f03300541661306357565b60046040517fd93c0665000000000000000000000000000000000000000000000000000000008152fd5b916001600160a01b03808416928315613136571692831561311e577f8c5be1e5ebec7d5bd14f71427d1e84f3dd0314c0f7b2291e5b200ac8c7c3b925916131086020926001600160a01b03166000527f52c63247e1f47db19d5ce0460030c497f067ca4cebf71ba98eeadabe20bace01602052604060002090565b85600052825280604060002055604051908152a3565b6024604051634a1406b160e11b815260006004820152fd5b602460405163e602df0560e01b815260006004820152fd5b60ff7ff0c57e16840df040f15088dc2f81fe391c3923bec73e23a9662efc9c229c6a005460401c161561317d57565b60046040517fd7e6bcf8000000000000000000000000000000000000000000000000000000008152fd5b6131af61337b565b6131b76133e5565b6040519060208201927f8b73c3c69bb8fe3d512ecc4cf759cc79239f7b179b0ffacaa9a75d522b39400f8452604083015260608201524660808201523060a082015260a0815260c0810181811067ffffffffffffffff82111761098b5760405251902090565b91907f7fffffffffffffffffffffffffffffff5d576e7357a4501ddfe92f46681b20a084116132a157926020929160ff608095604051948552168484015260408301526060820152600092839182805260015afa156132955780516001600160a01b0381161561328c57918190565b50809160019190565b604051903d90823e3d90fd5b50505060009160039190565b600481101561336557806132bf575050565b600181036132f15760046040517ff645eedf000000000000000000000000000000000000000000000000000000008152fd5b6002810361332a57602482604051907ffce698f70000000000000000000000000000000000000000000000000000000082526004820152fd5b6003146133345750565b602490604051907fd78bce0c0000000000000000000000000000000000000000000000000000000082526004820152fd5b634e487b7160e01b600052602160045260246000fd5b6133836124af565b8051908115613393576020012090565b50507fa16a46d94261c7517cc8ff89f61c0ce93598e3c849801011dee649a6a557d1005480156133c05790565b507fc5d2460186f7233c927e7db2dcc703c0e500b653ca82273b7bfad8045d85a47090565b6133ed612599565b80519081156133fd576020012090565b50507fa16a46d94261c7517cc8ff89f61c0ce93598e3c849801011dee649a6a557d1015480156133c0579056fea2646970667358221220b3b5064a451b764e0cda7923077f8f59c241cc6cddb49e4cef269bb2e9800bf364736f6c63430008160033",
  "linkReferences": {},
  "deployedLinkReferences": {}
}