{
  "_format": "hh-sol-artifact-1",
  "contractName": "ProxyAdmin",
  "sourceName": "@openzeppelin/contracts/proxy/transparent/ProxyAdmin.sol",
  "abi": [
    {
      "inputs": [
        {
          "internalType": "address",
          "name": "initialOwner",
          "type": "address"
        }
      ],
      "stateMutability": "nonpayable",
      "type": "constructor"
    },
    {
      "inputs": [
        {
          "internalType": "address",
          "name": "owner",
          "type": "address"
        }
      ],
      "name": "OwnableInvalidOwner",
      "type": "error"
    },
    {
      "inputs": [
        {
          "internalType": "address",
          "name": "account",
          "type": "address"
        }
      ],
      "name": "OwnableUnauthorizedAccount",
      "type": "error"
    },
    {
      "anonymous": false,
      "inputs": [
        {
          "indexed": true,
          "internalType": "address",
          "name": "previousOwner",
          "type": "address"
        },
        {
          "indexed": true,
          "internalType": "address",
          "name": "newOwner",
          "type": "address"
        }
      ],
      "name": "OwnershipTransferred",
      "type": "event"
    },
    {
      "inputs": [],
      "name": "UPGRADE_INTERFACE_VERSION",
      "outputs": [
        {
          "internalType": "string",
          "name": "",
          "type": "string"
        }
      ],
      "stateMutability": "view",
      "type": "function"
    },
    {
      "inputs": [],
      "name": "owner",
      "outputs": [
        {
          "internalType": "address",
          "name": "",
          "type": "address"
        }
      ],
      "stateMutability": "view",
      "type": "function"
    },
    {
      "inputs": [],
      "name": "renounceOwnership",
      "outputs": [],
      "stateMutability": "nonpayable",
      "type": "function"
    },
    {
      "inputs": [
        {
          "internalType": "address",
          "name": "newOwner",
          "type": "address"
        }
      ],
      "name": "transferOwnership",
      "outputs": [],
      "stateMutability": "nonpayable",
      "type": "function"
    },
    {
      "inputs": [
        {
          "internalType": "contract ITransparentUpgradeableProxy",
          "name": "proxy",
          "type": "address"
        },
        {
          "internalType": "address",
          "name": "implementation",
          "type": "address"
        },
        {
          "internalType": "bytes",
          "name": "data",
          "type": "bytes"
        }
      ],
      "name": "upgradeAndCall",
      "outputs": [],
      "stateMutability": "payable",
      "type": "function"
    }
  ],
  "bytecode": "0x6080346100bb57601f61051b38819003918201601f19168301916001600160401b038311848410176100c0578084926020946040528339810103126100bb57516001600160a01b0390818116908190036100bb5780156100a257600080546001600160a01b03198116831782556040519316907f8be0079c531659141344cd1fd0a4f28419497f9722a3daafe3b4186f6b6457e09080a361044490816100d78239f35b604051631e4fbdf760e01b815260006004820152602490fd5b600080fd5b634e487b7160e01b600052604160045260246000fdfe60406080815260048036101561001457600080fd5b600091823560e01c8063715018a6146103245780638da5cb5b146102fa5780639623609d1461019a578063ad3cb1cc1461010f5763f2fde38b1461005757600080fd5b3461010b57602036600319011261010b578135916001600160a01b0391828416809403610106576100866103ca565b83156100d75750506000548273ffffffffffffffffffffffffffffffffffffffff19821617600055167f8be0079c531659141344cd1fd0a4f28419497f9722a3daafe3b4186f6b6457e0600080a380f35b908460249251917f1e4fbdf7000000000000000000000000000000000000000000000000000000008352820152fd5b600080fd5b8280fd5b5082346101975780600319360112610197575080519080820182811067ffffffffffffffff8211176101825761017e93508152600582527f352e302e3000000000000000000000000000000000000000000000000000000060208301525191829160208352602083019061038a565b0390f35b604184634e487b7160e01b6000525260246000fd5b80fd5b50606036600319011261010b5781356001600160a01b03928382168092036102ca5760249182359485168095036102f65760443567ffffffffffffffff918282116102f257366023830112156102f257818401358381116102e057865192601f8201601f19908116603f01168401858111858210176102ce5788528184528993929190368282018901116102ca57818592896020930183870137840101526102406103ca565b803b1561010b576102899787518099819482937f4f1ef286000000000000000000000000000000000000000000000000000000008452898401528a8a840152604483019061038a565b039134905af180156102c05761029d578580f35b84116102af5750505238808080808580f35b60418591634e487b7160e01b835252fd5b84513d88823e3d90fd5b8480fd5b878b604189634e487b7160e01b835252fd5b8589604187634e487b7160e01b835252fd5b8780fd5b8580fd5b8382346103205781600319360112610320576001600160a01b0360209254169051908152f35b5080fd5b833461019757806003193601126101975761033d6103ca565b806001600160a01b03815473ffffffffffffffffffffffffffffffffffffffff1981168355167f8be0079c531659141344cd1fd0a4f28419497f9722a3daafe3b4186f6b6457e08280a380f35b919082519283825260005b8481106103b6575050826000602080949584010152601f8019910116010190565b602081830181015184830182015201610395565b6001600160a01b036000541633036103de57565b60246040517f118cdaa7000000000000000000000000000000000000000000000000000000008152336004820152fdfea2646970667358221220582d2ccc8da4a8619f91669690e1bb6be2b79b5c29b3b293f34b94c18c321e0664736f6c63430008160033",
  "linkReferences": {},
  "deployedLinkReferences": {}
}